{
  "contractName": "Administered",
  "abi": [
    {
      "inputs": [],
      "stateMutability": "nonpayable",
      "type": "constructor"
    },
    {
      "anonymous": false,
      "inputs": [
        {
          "indexed": true,
          "internalType": "bytes32",
          "name": "role",
          "type": "bytes32"
        },
        {
          "indexed": true,
          "internalType": "bytes32",
          "name": "previousAdminRole",
          "type": "bytes32"
        },
        {
          "indexed": true,
          "internalType": "bytes32",
          "name": "newAdminRole",
          "type": "bytes32"
        }
      ],
      "name": "RoleAdminChanged",
      "type": "event"
    },
    {
      "anonymous": false,
      "inputs": [
        {
          "indexed": true,
          "internalType": "bytes32",
          "name": "role",
          "type": "bytes32"
        },
        {
          "indexed": true,
          "internalType": "address",
          "name": "account",
          "type": "address"
        },
        {
          "indexed": true,
          "internalType": "address",
          "name": "sender",
          "type": "address"
        }
      ],
      "name": "RoleGranted",
      "type": "event"
    },
    {
      "anonymous": false,
      "inputs": [
        {
          "indexed": true,
          "internalType": "bytes32",
          "name": "role",
          "type": "bytes32"
        },
        {
          "indexed": true,
          "internalType": "address",
          "name": "account",
          "type": "address"
        },
        {
          "indexed": true,
          "internalType": "address",
          "name": "sender",
          "type": "address"
        }
      ],
      "name": "RoleRevoked",
      "type": "event"
    },
    {
      "inputs": [],
      "name": "DEFAULT_ADMIN_ROLE",
      "outputs": [
        {
          "internalType": "bytes32",
          "name": "",
          "type": "bytes32"
        }
      ],
      "stateMutability": "view",
      "type": "function",
      "constant": true
    },
    {
      "inputs": [],
      "name": "MARKET_ADMIN_ROLE",
      "outputs": [
        {
          "internalType": "bytes32",
          "name": "",
          "type": "bytes32"
        }
      ],
      "stateMutability": "view",
      "type": "function",
      "constant": true
    },
    {
      "inputs": [],
      "name": "STORE_OWNER_ROLE",
      "outputs": [
        {
          "internalType": "bytes32",
          "name": "",
          "type": "bytes32"
        }
      ],
      "stateMutability": "view",
      "type": "function",
      "constant": true
    },
    {
      "inputs": [
        {
          "internalType": "bytes32",
          "name": "role",
          "type": "bytes32"
        }
      ],
      "name": "getRoleAdmin",
      "outputs": [
        {
          "internalType": "bytes32",
          "name": "",
          "type": "bytes32"
        }
      ],
      "stateMutability": "view",
      "type": "function",
      "constant": true
    },
    {
      "inputs": [
        {
          "internalType": "bytes32",
          "name": "role",
          "type": "bytes32"
        },
        {
          "internalType": "uint256",
          "name": "index",
          "type": "uint256"
        }
      ],
      "name": "getRoleMember",
      "outputs": [
        {
          "internalType": "address",
          "name": "",
          "type": "address"
        }
      ],
      "stateMutability": "view",
      "type": "function",
      "constant": true
    },
    {
      "inputs": [
        {
          "internalType": "bytes32",
          "name": "role",
          "type": "bytes32"
        }
      ],
      "name": "getRoleMemberCount",
      "outputs": [
        {
          "internalType": "uint256",
          "name": "",
          "type": "uint256"
        }
      ],
      "stateMutability": "view",
      "type": "function",
      "constant": true
    },
    {
      "inputs": [
        {
          "internalType": "bytes32",
          "name": "role",
          "type": "bytes32"
        },
        {
          "internalType": "address",
          "name": "account",
          "type": "address"
        }
      ],
      "name": "grantRole",
      "outputs": [],
      "stateMutability": "nonpayable",
      "type": "function"
    },
    {
      "inputs": [
        {
          "internalType": "bytes32",
          "name": "role",
          "type": "bytes32"
        },
        {
          "internalType": "address",
          "name": "account",
          "type": "address"
        }
      ],
      "name": "hasRole",
      "outputs": [
        {
          "internalType": "bool",
          "name": "",
          "type": "bool"
        }
      ],
      "stateMutability": "view",
      "type": "function",
      "constant": true
    },
    {
      "inputs": [
        {
          "internalType": "bytes32",
          "name": "role",
          "type": "bytes32"
        },
        {
          "internalType": "address",
          "name": "account",
          "type": "address"
        }
      ],
      "name": "renounceRole",
      "outputs": [],
      "stateMutability": "nonpayable",
      "type": "function"
    },
    {
      "inputs": [
        {
          "internalType": "bytes32",
          "name": "role",
          "type": "bytes32"
        },
        {
          "internalType": "address",
          "name": "account",
          "type": "address"
        }
      ],
      "name": "revokeRole",
      "outputs": [],
      "stateMutability": "nonpayable",
      "type": "function"
    },
    {
      "inputs": [
        {
          "internalType": "address",
          "name": "account",
          "type": "address"
        }
      ],
      "name": "isAdmin",
      "outputs": [
        {
          "internalType": "bool",
          "name": "",
          "type": "bool"
        }
      ],
      "stateMutability": "view",
      "type": "function",
      "constant": true
    },
    {
      "inputs": [
        {
          "internalType": "address",
          "name": "account",
          "type": "address"
        }
      ],
      "name": "isMarketAdmin",
      "outputs": [
        {
          "internalType": "bool",
          "name": "",
          "type": "bool"
        }
      ],
      "stateMutability": "view",
      "type": "function",
      "constant": true
    },
    {
      "inputs": [
        {
          "internalType": "address",
          "name": "account",
          "type": "address"
        }
      ],
      "name": "isStoreOwner",
      "outputs": [
        {
          "internalType": "bool",
          "name": "",
          "type": "bool"
        }
      ],
      "stateMutability": "view",
      "type": "function",
      "constant": true
    },
    {
      "inputs": [
        {
          "internalType": "address",
          "name": "account",
          "type": "address"
        }
      ],
      "name": "addAdmin",
      "outputs": [],
      "stateMutability": "nonpayable",
      "type": "function"
    },
    {
      "inputs": [
        {
          "internalType": "address",
          "name": "account",
          "type": "address"
        }
      ],
      "name": "addMarketAdmin",
      "outputs": [],
      "stateMutability": "nonpayable",
      "type": "function"
    },
    {
      "inputs": [
        {
          "internalType": "address",
          "name": "account",
          "type": "address"
        }
      ],
      "name": "addStoreOwner",
      "outputs": [],
      "stateMutability": "nonpayable",
      "type": "function"
    },
    {
      "inputs": [],
      "name": "renounceAdmin",
      "outputs": [],
      "stateMutability": "nonpayable",
      "type": "function"
    },
    {
      "inputs": [
        {
          "internalType": "address",
          "name": "account",
          "type": "address"
        }
      ],
      "name": "removeMarketAdmin",
      "outputs": [],
      "stateMutability": "nonpayable",
      "type": "function"
    },
    {
      "inputs": [
        {
          "internalType": "address",
          "name": "account",
          "type": "address"
        }
      ],
      "name": "removeStoreOwner",
      "outputs": [],
      "stateMutability": "nonpayable",
      "type": "function"
    },
    {
      "inputs": [],
      "name": "getMarketAdminsCount",
      "outputs": [
        {
          "internalType": "uint256",
          "name": "",
          "type": "uint256"
        }
      ],
      "stateMutability": "view",
      "type": "function",
      "constant": true
    },
    {
      "inputs": [],
      "name": "getStoreOwnersCount",
      "outputs": [
        {
          "internalType": "uint256",
          "name": "",
          "type": "uint256"
        }
      ],
      "stateMutability": "view",
      "type": "function",
      "constant": true
    },
    {
      "inputs": [
        {
          "internalType": "uint256",
          "name": "index",
          "type": "uint256"
        }
      ],
      "name": "getMarketAdminMember",
      "outputs": [
        {
          "internalType": "address",
          "name": "",
          "type": "address"
        }
      ],
      "stateMutability": "view",
      "type": "function",
      "constant": true
    },
    {
      "inputs": [
        {
          "internalType": "uint256",
          "name": "index",
          "type": "uint256"
        }
      ],
      "name": "getStoreOwnerMember",
      "outputs": [
        {
          "internalType": "address",
          "name": "",
          "type": "address"
        }
      ],
      "stateMutability": "view",
      "type": "function",
      "constant": true
    }
  ],
  "bytecode": "0x60806040523480156200001157600080fd5b50620000276000801b33620000f360201b60201c565b6200007160405180807f4d41524b45545f41444d494e5f524f4c45000000000000000000000000000000815250601101905060405180910390206000801b6200010960201b60201c565b620000ed60405180807f53544f52455f4f574e4552000000000000000000000000000000000000000000815250600b019050604051809103902060405180807f4d41524b45545f41444d494e5f524f4c45000000000000000000000000000000815250601101905060405180910390206200010960201b60201c565b620002eb565b6200010582826200016b60201b60201c565b5050565b8060008084815260200190815260200160002060020154837fbd79b86ffe0ab8e8776151514217cd7cacd52c909f66475c3af44e129f0b00ff60405160405180910390a480600080848152602001908152602001600020600201819055505050565b62000199816000808581526020019081526020016000206000016200020e60201b620011281790919060201c565b156200020a57620001af6200024660201b60201c565b73ffffffffffffffffffffffffffffffffffffffff168173ffffffffffffffffffffffffffffffffffffffff16837f2f8788117e7eff1d82e926ec794901d17c78024a50270940304540a733656f0d60405160405180910390a45b5050565b60006200023e836000018373ffffffffffffffffffffffffffffffffffffffff1660001b6200024e60201b60201c565b905092915050565b600033905090565b6000620002628383620002c860201b60201c565b620002bd578260000182908060018154018082558091505060019003906000526020600020016000909190919091505582600001805490508360010160008481526020019081526020016000208190555060019050620002c2565b600090505b92915050565b600080836001016000848152602001908152602001600020541415905092915050565b61147d80620002fb6000396000f3fe608060405234801561001057600080fd5b506004361061014d5760003560e01c806391d14854116100c3578063b38f668b1161007c578063b38f668b146105de578063be5610b914610622578063ca15c87314610690578063d547741f146106d2578063d6f0d39f14610720578063f3c93a921461073e5761014d565b806391d148541461047e57806395e81428146104e45780639adeb5f1146105025780639d4cca8e14610546578063a217fddf14610564578063a845925d146105825761014d565b80635effd33c116101155780635effd33c146102fa5780636174fdd1146103565780636adaabb61461039a57806370480275146103b85780638bad0c0a146103fc5780639010d07c146104065761014d565b8063057a711e14610152578063248a9ca3146101c057806324d7806c146102025780632f2ff15d1461025e57806336568abe146102ac575b600080fd5b61017e6004803603602081101561016857600080fd5b8101908080359060200190929190505050610782565b604051808273ffffffffffffffffffffffffffffffffffffffff1673ffffffffffffffffffffffffffffffffffffffff16815260200191505060405180910390f35b6101ec600480360360208110156101d657600080fd5b81019080803590602001909291905050506107ca565b6040518082815260200191505060405180910390f35b6102446004803603602081101561021857600080fd5b81019080803573ffffffffffffffffffffffffffffffffffffffff1690602001909291905050506107e9565b604051808215151515815260200191505060405180910390f35b6102aa6004803603604081101561027457600080fd5b8101908080359060200190929190803573ffffffffffffffffffffffffffffffffffffffff1690602001909291905050506107ff565b005b6102f8600480360360408110156102c257600080fd5b8101908080359060200190929190803573ffffffffffffffffffffffffffffffffffffffff169060200190929190505050610888565b005b61033c6004803603602081101561031057600080fd5b81019080803573ffffffffffffffffffffffffffffffffffffffff169060200190929190505050610921565b604051808215151515815260200191505060405180910390f35b6103986004803603602081101561036c57600080fd5b81019080803573ffffffffffffffffffffffffffffffffffffffff169060200190929190505050610969565b005b6103a2610a26565b6040518082815260200191505060405180910390f35b6103fa600480360360208110156103ce57600080fd5b81019080803573ffffffffffffffffffffffffffffffffffffffff169060200190929190505050610a5f565b005b610404610aea565b005b61043c6004803603604081101561041c57600080fd5b810190808035906020019092919080359060200190929190505050610af9565b604051808273ffffffffffffffffffffffffffffffffffffffff1673ffffffffffffffffffffffffffffffffffffffff16815260200191505060405180910390f35b6104ca6004803603604081101561049457600080fd5b8101908080359060200190929190803573ffffffffffffffffffffffffffffffffffffffff169060200190929190505050610b2a565b604051808215151515815260200191505060405180910390f35b6104ec610b5b565b6040518082815260200191505060405180910390f35b6105446004803603602081101561051857600080fd5b81019080803573ffffffffffffffffffffffffffffffffffffffff169060200190929190505050610ba0565b005b61054e610c5d565b6040518082815260200191505060405180910390f35b61056c610ca2565b6040518082815260200191505060405180910390f35b6105c46004803603602081101561059857600080fd5b81019080803573ffffffffffffffffffffffffffffffffffffffff169060200190929190505050610ca9565b604051808215151515815260200191505060405180910390f35b610620600480360360208110156105f457600080fd5b81019080803573ffffffffffffffffffffffffffffffffffffffff169060200190929190505050610cf1565b005b61064e6004803603602081101561063857600080fd5b8101908080359060200190929190505050610dae565b604051808273ffffffffffffffffffffffffffffffffffffffff1673ffffffffffffffffffffffffffffffffffffffff16815260200191505060405180910390f35b6106bc600480360360208110156106a657600080fd5b8101908080359060200190929190505050610df6565b6040518082815260200191505060405180910390f35b61071e600480360360408110156106e857600080fd5b8101908080359060200190929190803573ffffffffffffffffffffffffffffffffffffffff169060200190929190505050610e1c565b005b610728610ea5565b6040518082815260200191505060405180910390f35b6107806004803603602081101561075457600080fd5b81019080803573ffffffffffffffffffffffffffffffffffffffff169060200190929190505050610ede565b005b60006107c360405180807f53544f52455f4f574e4552000000000000000000000000000000000000000000815250600b019050604051809103902083610af9565b9050919050565b6000806000838152602001908152602001600020600201549050919050565b60006107f86000801b83610b2a565b9050919050565b61082560008084815260200190815260200160002060020154610820610f9b565b610b2a565b61087a576040517f08c379a000000000000000000000000000000000000000000000000000000000815260040180806020018281038252602f8152602001806113ba602f913960400191505060405180910390fd5b6108848282610fa3565b5050565b610890610f9b565b73ffffffffffffffffffffffffffffffffffffffff168173ffffffffffffffffffffffffffffffffffffffff1614610913576040517f08c379a000000000000000000000000000000000000000000000000000000000815260040180806020018281038252602f815260200180611419602f913960400191505060405180910390fd5b61091d8282611036565b5050565b600061096260405180807f53544f52455f4f574e4552000000000000000000000000000000000000000000815250600b019050604051809103902083610b2a565b9050919050565b61097233610ca9565b6109e4576040517f08c379a000000000000000000000000000000000000000000000000000000000815260040180806020018281038252601a8152602001807f5265737472696374656420746f204d61726b657441646d696e2e00000000000081525060200191505060405180910390fd5b610a2360405180807f53544f52455f4f574e4552000000000000000000000000000000000000000000815250600b019050604051809103902082610e1c565b50565b60405180807f53544f52455f4f574e4552000000000000000000000000000000000000000000815250600b019050604051809103902081565b610a68336107e9565b610ada576040517f08c379a00000000000000000000000000000000000000000000000000000000081526004018080602001828103825260158152602001807f5265737472696374656420746f2061646d696e732e000000000000000000000081525060200191505060405180910390fd5b610ae76000801b826107ff565b50565b610af76000801b33610888565b565b6000610b22826000808681526020019081526020016000206000016110c990919063ffffffff16565b905092915050565b6000610b53826000808681526020019081526020016000206000016110e390919063ffffffff16565b905092915050565b6000610b9b60405180807f4d41524b45545f41444d494e5f524f4c4500000000000000000000000000000081525060110190506040518091039020610df6565b905090565b610ba933610ca9565b610c1b576040517f08c379a000000000000000000000000000000000000000000000000000000000815260040180806020018281038252601a8152602001807f5265737472696374656420746f204d61726b657441646d696e2e00000000000081525060200191505060405180910390fd5b610c5a60405180807f53544f52455f4f574e4552000000000000000000000000000000000000000000815250600b0190506040518091039020826107ff565b50565b6000610c9d60405180807f53544f52455f4f574e4552000000000000000000000000000000000000000000815250600b0190506040518091039020610df6565b905090565b6000801b81565b6000610cea60405180807f4d41524b45545f41444d494e5f524f4c450000000000000000000000000000008152506011019050604051809103902083610b2a565b9050919050565b610cfa336107e9565b610d6c576040517f08c379a00000000000000000000000000000000000000000000000000000000081526004018080602001828103825260158152602001807f5265737472696374656420746f2061646d696e732e000000000000000000000081525060200191505060405180910390fd5b610dab60405180807f4d41524b45545f41444d494e5f524f4c450000000000000000000000000000008152506011019050604051809103902082610e1c565b50565b6000610def60405180807f4d41524b45545f41444d494e5f524f4c450000000000000000000000000000008152506011019050604051809103902083610af9565b9050919050565b6000610e15600080848152602001908152602001600020600001611113565b9050919050565b610e4260008084815260200190815260200160002060020154610e3d610f9b565b610b2a565b610e97576040517f08c379a00000000000000000000000000000000000000000000000000000000081526004018080602001828103825260308152602001806113e96030913960400191505060405180910390fd5b610ea18282611036565b5050565b60405180807f4d41524b45545f41444d494e5f524f4c450000000000000000000000000000008152506011019050604051809103902081565b610ee7336107e9565b610f59576040517f08c379a00000000000000000000000000000000000000000000000000000000081526004018080602001828103825260158152602001807f5265737472696374656420746f2061646d696e732e000000000000000000000081525060200191505060405180910390fd5b610f9860405180807f4d41524b45545f41444d494e5f524f4c4500000000000000000000000000000081525060110190506040518091039020826107ff565b50565b600033905090565b610fca8160008085815260200190815260200160002060000161112890919063ffffffff16565b1561103257610fd7610f9b565b73ffffffffffffffffffffffffffffffffffffffff168173ffffffffffffffffffffffffffffffffffffffff16837f2f8788117e7eff1d82e926ec794901d17c78024a50270940304540a733656f0d60405160405180910390a45b5050565b61105d8160008085815260200190815260200160002060000161115890919063ffffffff16565b156110c55761106a610f9b565b73ffffffffffffffffffffffffffffffffffffffff168173ffffffffffffffffffffffffffffffffffffffff16837ff6391f5c32d9c69d2a47ea670b442974b53935d1edc7fd64eb21e047a839171b60405160405180910390a45b5050565b60006110d88360000183611188565b60001c905092915050565b600061110b836000018373ffffffffffffffffffffffffffffffffffffffff1660001b61120b565b905092915050565b60006111218260000161122e565b9050919050565b6000611150836000018373ffffffffffffffffffffffffffffffffffffffff1660001b61123f565b905092915050565b6000611180836000018373ffffffffffffffffffffffffffffffffffffffff1660001b6112af565b905092915050565b6000818360000180549050116111e9576040517f08c379a00000000000000000000000000000000000000000000000000000000081526004018080602001828103825260228152602001806113986022913960400191505060405180910390fd5b8260000182815481106111f857fe5b9060005260206000200154905092915050565b600080836001016000848152602001908152602001600020541415905092915050565b600081600001805490509050919050565b600061124b838361120b565b6112a45782600001829080600181540180825580915050600190039060005260206000200160009091909190915055826000018054905083600101600084815260200190815260200160002081905550600190506112a9565b600090505b92915050565b6000808360010160008481526020019081526020016000205490506000811461138b57600060018203905060006001866000018054905003905060008660000182815481106112fa57fe5b906000526020600020015490508087600001848154811061131757fe5b906000526020600020018190555060018301876001016000838152602001908152602001600020819055508660000180548061134f57fe5b60019003818190600052602060002001600090559055866001016000878152602001908152602001600020600090556001945050505050611391565b60009150505b9291505056fe456e756d657261626c655365743a20696e646578206f7574206f6620626f756e6473416363657373436f6e74726f6c3a2073656e646572206d75737420626520616e2061646d696e20746f206772616e74416363657373436f6e74726f6c3a2073656e646572206d75737420626520616e2061646d696e20746f207265766f6b65416363657373436f6e74726f6c3a2063616e206f6e6c792072656e6f756e636520726f6c657320666f722073656c66a2646970667358221220a0c1dbca25f9d32d13be575ab1b0719866331f491b73e4ed5c46d9881e40b34c64736f6c63430006020033",
  "source": "pragma solidity >=0.5.16 <0.8.0;\nimport \"@openzeppelin/contracts/access/AccessControl.sol\";\ncontract Administered is AccessControl{\n\n  bytes32 public constant MARKET_ADMIN_ROLE = keccak256(\"MARKET_ADMIN_ROLE\");\n  bytes32 public constant STORE_OWNER_ROLE = keccak256(\"STORE_OWNER\");\n\n  /// @dev Add `root` to the admin role as a member.\n  constructor ()\n    public\n  {\n    _setupRole(DEFAULT_ADMIN_ROLE, msg.sender);\n    //_setupRole(MARKET_ADMIN_ROLE, msg.sender);\n    _setRoleAdmin(MARKET_ADMIN_ROLE, DEFAULT_ADMIN_ROLE);\n    _setRoleAdmin(STORE_OWNER_ROLE, MARKET_ADMIN_ROLE);\n  }\n  \n  /// @dev Restricted to members of the admin role.\n  modifier onlyAdmin()\n  {\n    require(isAdmin(msg.sender), \"Restricted to admins.\");\n    _;\n  }\n\n  /// @dev Restricted to members of the MarketAdmin role.\n  modifier onlyMarketAdmin()\n  {\n    require(isMarketAdmin(msg.sender), \"Restricted to MarketAdmin.\");\n    _;\n  }\n\n  /// @dev Restricted to members of the StoreOwner role.\n  modifier onlyStoreOwner()\n  {\n    require(isStoreOwner(msg.sender), \"Restricted to StoreOwner.\");\n    _;\n  }\n\n  /// @dev Return `true` if the account belongs to the admin role.\n  /// @param account address of account to check is admin.\n  function isAdmin(address account) \n    public virtual view returns (bool)\n  {\n    return hasRole(DEFAULT_ADMIN_ROLE, account);\n  }\n\n  /// @dev Return `true` if the account belongs to the MarketAdmin role.\n  /// @param account address of account to check is MarketAdmin.\n  function isMarketAdmin(address account)\n    public virtual view returns (bool)\n  {\n    return hasRole(MARKET_ADMIN_ROLE, account);\n  }\n\n  /// @dev Return `true` if the account belongs to the StoreOwner role.\n  /// @param account address of account to check is StoreOwner.\n  function isStoreOwner(address account)\n    public virtual view returns (bool)\n  {\n    return hasRole(STORE_OWNER_ROLE, account);\n  }\n\n \n  /// @dev Add an account to the admin role. Restricted to admins.\n  /// @param account address of account to Add as Admin.\n  function addAdmin(address account)\n    public virtual onlyAdmin\n  {\n    grantRole(DEFAULT_ADMIN_ROLE, account);\n  }\n\n  /// @dev Add an account to the admin role. Restricted to admins.\n  /// @param account address of account to to Add as MarketAdmin.\n  function addMarketAdmin(address account)\n    public virtual onlyAdmin\n  {\n    grantRole(MARKET_ADMIN_ROLE, account);\n  }\n\n   /// @dev Add an account to the user role. Restricted to MarketAdmins.\n   /// @param account address of account to Add as StoreOwner.\n  function addStoreOwner(address account)\n    public virtual onlyMarketAdmin\n  {\n    grantRole(STORE_OWNER_ROLE, account);\n  }\n\n  \n  /// @dev Remove oneself from the admin role.\n  function renounceAdmin()\n    public virtual\n  {\n    renounceRole(DEFAULT_ADMIN_ROLE, msg.sender);\n  }\n\n  /// @dev Remove an account from the MarketAdmin role. Restricted to admins.\n  /// @param account address of account to Remove.\n  function removeMarketAdmin(address account)\n    public virtual onlyAdmin\n  {\n    revokeRole(MARKET_ADMIN_ROLE, account);\n  }\n\n  /// @dev Remove an account from the StoreOwner role. Restricted to MarketAdmins.\n  /// @param account address of account to Remove.\n  function removeStoreOwner(address account)\n    public virtual onlyMarketAdmin\n  {\n    revokeRole(STORE_OWNER_ROLE, account);\n  }\n\n  /// @dev get MarketAdminsCount. Restricted to Admins.\n  /// @return MarketAdmins Count.\n  function getMarketAdminsCount()\n  public virtual view \n  returns (uint)\n  {\n    return getRoleMemberCount(MARKET_ADMIN_ROLE);\n  }\n\n  /// @dev get MarketAdminsCount. Restricted to MarketAdmins.\n  /// @return StoreOwners Count.\n  function getStoreOwnersCount()\n  public virtual view \n  returns (uint)\n  {\n    return getRoleMemberCount(STORE_OWNER_ROLE);\n  }\n\n  /// @dev get MarketAdminMember. Restricted to Admins.\n  /// @return MarketAdmin Member.\n  function getMarketAdminMember(uint256 index)\n  public virtual view\n  returns (address)\n  {\n    return getRoleMember(MARKET_ADMIN_ROLE,index);\n  }\n\n  /// @dev get StoreOwnerMember. Restricted to MarketAdmins.\n  /// @return StoreOwners Member.\n  function getStoreOwnerMember(uint256 index)\n  public virtual view \n  returns (address)\n  {\n    return getRoleMember(STORE_OWNER_ROLE,index);\n  }\n}",
  "sourcePath": "/home/aysha/Github/Online-Marketplace-Daap/contracts/Administered.sol",
  "compiler": {
    "name": "solc",
    "version": "0.6.2+commit.bacdbe57.Emscripten.clang"
  },
  "schemaVersion": "3.3.2",
  "updatedAt": "2020-12-12T03:18:16.808Z",
  "networkType": "ethereum",
  "devdoc": {
    "methods": {
      "addAdmin(address)": {
        "details": "Add an account to the admin role. Restricted to admins.",
        "params": {
          "account": "address of account to Add as Admin."
        }
      },
      "addMarketAdmin(address)": {
        "details": "Add an account to the admin role. Restricted to admins.",
        "params": {
          "account": "address of account to to Add as MarketAdmin."
        }
      },
      "addStoreOwner(address)": {
        "details": "Add an account to the user role. Restricted to MarketAdmins.",
        "params": {
          "account": "address of account to Add as StoreOwner."
        }
      },
      "constructor": {
        "details": "Add `root` to the admin role as a member."
      },
      "getMarketAdminMember(uint256)": {
        "details": "get MarketAdminMember. Restricted to Admins.",
        "returns": {
          "_0": "MarketAdmin Member."
        }
      },
      "getMarketAdminsCount()": {
        "details": "get MarketAdminsCount. Restricted to Admins.",
        "returns": {
          "_0": "MarketAdmins Count."
        }
      },
      "getRoleAdmin(bytes32)": {
        "details": "Returns the admin role that controls `role`. See {grantRole} and {revokeRole}.     * To change a role's admin, use {_setRoleAdmin}."
      },
      "getRoleMember(bytes32,uint256)": {
        "details": "Returns one of the accounts that have `role`. `index` must be a value between 0 and {getRoleMemberCount}, non-inclusive.     * Role bearers are not sorted in any particular way, and their ordering may change at any point.     * WARNING: When using {getRoleMember} and {getRoleMemberCount}, make sure you perform all queries on the same block. See the following https://forum.openzeppelin.com/t/iterating-over-elements-on-enumerableset-in-openzeppelin-contracts/2296[forum post] for more information."
      },
      "getRoleMemberCount(bytes32)": {
        "details": "Returns the number of accounts that have `role`. Can be used together with {getRoleMember} to enumerate all bearers of a role."
      },
      "getStoreOwnerMember(uint256)": {
        "details": "get StoreOwnerMember. Restricted to MarketAdmins.",
        "returns": {
          "_0": "StoreOwners Member."
        }
      },
      "getStoreOwnersCount()": {
        "details": "get MarketAdminsCount. Restricted to MarketAdmins.",
        "returns": {
          "_0": "StoreOwners Count."
        }
      },
      "grantRole(bytes32,address)": {
        "details": "Grants `role` to `account`.     * If `account` had not been already granted `role`, emits a {RoleGranted} event.     * Requirements:     * - the caller must have ``role``'s admin role."
      },
      "hasRole(bytes32,address)": {
        "details": "Returns `true` if `account` has been granted `role`."
      },
      "isAdmin(address)": {
        "details": "Return `true` if the account belongs to the admin role.",
        "params": {
          "account": "address of account to check is admin."
        }
      },
      "isMarketAdmin(address)": {
        "details": "Return `true` if the account belongs to the MarketAdmin role.",
        "params": {
          "account": "address of account to check is MarketAdmin."
        }
      },
      "isStoreOwner(address)": {
        "details": "Return `true` if the account belongs to the StoreOwner role.",
        "params": {
          "account": "address of account to check is StoreOwner."
        }
      },
      "removeMarketAdmin(address)": {
        "details": "Remove an account from the MarketAdmin role. Restricted to admins.",
        "params": {
          "account": "address of account to Remove."
        }
      },
      "removeStoreOwner(address)": {
        "details": "Remove an account from the StoreOwner role. Restricted to MarketAdmins.",
        "params": {
          "account": "address of account to Remove."
        }
      },
      "renounceAdmin()": {
        "details": "Remove oneself from the admin role."
      },
      "renounceRole(bytes32,address)": {
        "details": "Revokes `role` from the calling account.     * Roles are often managed via {grantRole} and {revokeRole}: this function's purpose is to provide a mechanism for accounts to lose their privileges if they are compromised (such as when a trusted device is misplaced).     * If the calling account had been granted `role`, emits a {RoleRevoked} event.     * Requirements:     * - the caller must be `account`."
      },
      "revokeRole(bytes32,address)": {
        "details": "Revokes `role` from `account`.     * If `account` had been granted `role`, emits a {RoleRevoked} event.     * Requirements:     * - the caller must have ``role``'s admin role."
      }
    }
  },
  "userdoc": {
    "methods": {}
  }
}