{
  "contractName": "Marketplace",
  "abi": [
    {
      "inputs": [],
      "stateMutability": "nonpayable",
      "type": "constructor"
    },
    {
      "anonymous": false,
      "inputs": [
        {
          "indexed": false,
          "internalType": "int256",
          "name": "id",
          "type": "int256"
        }
      ],
      "name": "LogForSale",
      "type": "event"
    },
    {
      "anonymous": false,
      "inputs": [
        {
          "indexed": false,
          "internalType": "int256",
          "name": "id",
          "type": "int256"
        },
        {
          "indexed": false,
          "internalType": "uint256",
          "name": "oldPrice",
          "type": "uint256"
        },
        {
          "indexed": false,
          "internalType": "uint256",
          "name": "newPrice",
          "type": "uint256"
        }
      ],
      "name": "LogPriceUpdated",
      "type": "event"
    },
    {
      "anonymous": false,
      "inputs": [
        {
          "indexed": false,
          "internalType": "int256",
          "name": "id",
          "type": "int256"
        },
        {
          "indexed": false,
          "internalType": "string",
          "name": "name",
          "type": "string"
        },
        {
          "indexed": false,
          "internalType": "uint256",
          "name": "price",
          "type": "uint256"
        },
        {
          "indexed": false,
          "internalType": "int256",
          "name": "storeId",
          "type": "int256"
        }
      ],
      "name": "LogProductAdded",
      "type": "event"
    },
    {
      "anonymous": false,
      "inputs": [
        {
          "indexed": false,
          "internalType": "int256",
          "name": "id",
          "type": "int256"
        }
      ],
      "name": "LogSold",
      "type": "event"
    },
    {
      "anonymous": false,
      "inputs": [
        {
          "indexed": false,
          "internalType": "int256",
          "name": "id",
          "type": "int256"
        },
        {
          "indexed": false,
          "internalType": "string",
          "name": "name",
          "type": "string"
        },
        {
          "indexed": false,
          "internalType": "address",
          "name": "owner",
          "type": "address"
        },
        {
          "indexed": false,
          "internalType": "uint256",
          "name": "balance",
          "type": "uint256"
        }
      ],
      "name": "LogStoreAdded",
      "type": "event"
    },
    {
      "anonymous": false,
      "inputs": [
        {
          "indexed": false,
          "internalType": "int256",
          "name": "storeId",
          "type": "int256"
        },
        {
          "indexed": false,
          "internalType": "uint256",
          "name": "amount",
          "type": "uint256"
        }
      ],
      "name": "LogWithdrawStoreBalance",
      "type": "event"
    },
    {
      "anonymous": false,
      "inputs": [
        {
          "indexed": false,
          "internalType": "address",
          "name": "account",
          "type": "address"
        }
      ],
      "name": "Paused",
      "type": "event"
    },
    {
      "anonymous": false,
      "inputs": [
        {
          "indexed": false,
          "internalType": "int256",
          "name": "_productId",
          "type": "int256"
        }
      ],
      "name": "ProductRemoved",
      "type": "event"
    },
    {
      "anonymous": false,
      "inputs": [
        {
          "indexed": false,
          "internalType": "int256",
          "name": "_storeId",
          "type": "int256"
        }
      ],
      "name": "ProductsRemoved",
      "type": "event"
    },
    {
      "anonymous": false,
      "inputs": [
        {
          "indexed": true,
          "internalType": "bytes32",
          "name": "role",
          "type": "bytes32"
        },
        {
          "indexed": true,
          "internalType": "bytes32",
          "name": "previousAdminRole",
          "type": "bytes32"
        },
        {
          "indexed": true,
          "internalType": "bytes32",
          "name": "newAdminRole",
          "type": "bytes32"
        }
      ],
      "name": "RoleAdminChanged",
      "type": "event"
    },
    {
      "anonymous": false,
      "inputs": [
        {
          "indexed": true,
          "internalType": "bytes32",
          "name": "role",
          "type": "bytes32"
        },
        {
          "indexed": true,
          "internalType": "address",
          "name": "account",
          "type": "address"
        },
        {
          "indexed": true,
          "internalType": "address",
          "name": "sender",
          "type": "address"
        }
      ],
      "name": "RoleGranted",
      "type": "event"
    },
    {
      "anonymous": false,
      "inputs": [
        {
          "indexed": true,
          "internalType": "bytes32",
          "name": "role",
          "type": "bytes32"
        },
        {
          "indexed": true,
          "internalType": "address",
          "name": "account",
          "type": "address"
        },
        {
          "indexed": true,
          "internalType": "address",
          "name": "sender",
          "type": "address"
        }
      ],
      "name": "RoleRevoked",
      "type": "event"
    },
    {
      "anonymous": false,
      "inputs": [
        {
          "indexed": false,
          "internalType": "int256",
          "name": "_storeId",
          "type": "int256"
        }
      ],
      "name": "StoreRemoved",
      "type": "event"
    },
    {
      "anonymous": false,
      "inputs": [
        {
          "indexed": false,
          "internalType": "address",
          "name": "account",
          "type": "address"
        }
      ],
      "name": "Unpaused",
      "type": "event"
    },
    {
      "inputs": [],
      "name": "DEFAULT_ADMIN_ROLE",
      "outputs": [
        {
          "internalType": "bytes32",
          "name": "",
          "type": "bytes32"
        }
      ],
      "stateMutability": "view",
      "type": "function"
    },
    {
      "inputs": [],
      "name": "MARKET_ADMIN_ROLE",
      "outputs": [
        {
          "internalType": "bytes32",
          "name": "",
          "type": "bytes32"
        }
      ],
      "stateMutability": "view",
      "type": "function"
    },
    {
      "inputs": [],
      "name": "STORE_OWNER_ROLE",
      "outputs": [
        {
          "internalType": "bytes32",
          "name": "",
          "type": "bytes32"
        }
      ],
      "stateMutability": "view",
      "type": "function"
    },
    {
      "inputs": [
        {
          "internalType": "address",
          "name": "account",
          "type": "address"
        }
      ],
      "name": "addAdmin",
      "outputs": [],
      "stateMutability": "nonpayable",
      "type": "function"
    },
    {
      "inputs": [
        {
          "internalType": "address",
          "name": "account",
          "type": "address"
        }
      ],
      "name": "addMarketAdmin",
      "outputs": [],
      "stateMutability": "nonpayable",
      "type": "function"
    },
    {
      "inputs": [
        {
          "internalType": "address",
          "name": "account",
          "type": "address"
        }
      ],
      "name": "addStoreOwner",
      "outputs": [],
      "stateMutability": "nonpayable",
      "type": "function"
    },
    {
      "inputs": [
        {
          "internalType": "uint256",
          "name": "index",
          "type": "uint256"
        }
      ],
      "name": "getMarketAdminMember",
      "outputs": [
        {
          "internalType": "address",
          "name": "",
          "type": "address"
        }
      ],
      "stateMutability": "view",
      "type": "function"
    },
    {
      "inputs": [],
      "name": "getMarketAdminsCount",
      "outputs": [
        {
          "internalType": "uint256",
          "name": "",
          "type": "uint256"
        }
      ],
      "stateMutability": "view",
      "type": "function"
    },
    {
      "inputs": [
        {
          "internalType": "bytes32",
          "name": "role",
          "type": "bytes32"
        }
      ],
      "name": "getRoleAdmin",
      "outputs": [
        {
          "internalType": "bytes32",
          "name": "",
          "type": "bytes32"
        }
      ],
      "stateMutability": "view",
      "type": "function"
    },
    {
      "inputs": [
        {
          "internalType": "bytes32",
          "name": "role",
          "type": "bytes32"
        },
        {
          "internalType": "uint256",
          "name": "index",
          "type": "uint256"
        }
      ],
      "name": "getRoleMember",
      "outputs": [
        {
          "internalType": "address",
          "name": "",
          "type": "address"
        }
      ],
      "stateMutability": "view",
      "type": "function"
    },
    {
      "inputs": [
        {
          "internalType": "bytes32",
          "name": "role",
          "type": "bytes32"
        }
      ],
      "name": "getRoleMemberCount",
      "outputs": [
        {
          "internalType": "uint256",
          "name": "",
          "type": "uint256"
        }
      ],
      "stateMutability": "view",
      "type": "function"
    },
    {
      "inputs": [
        {
          "internalType": "uint256",
          "name": "index",
          "type": "uint256"
        }
      ],
      "name": "getStoreOwnerMember",
      "outputs": [
        {
          "internalType": "address",
          "name": "",
          "type": "address"
        }
      ],
      "stateMutability": "view",
      "type": "function"
    },
    {
      "inputs": [],
      "name": "getStoreOwnersCount",
      "outputs": [
        {
          "internalType": "uint256",
          "name": "",
          "type": "uint256"
        }
      ],
      "stateMutability": "view",
      "type": "function"
    },
    {
      "inputs": [
        {
          "internalType": "bytes32",
          "name": "role",
          "type": "bytes32"
        },
        {
          "internalType": "address",
          "name": "account",
          "type": "address"
        }
      ],
      "name": "grantRole",
      "outputs": [],
      "stateMutability": "nonpayable",
      "type": "function"
    },
    {
      "inputs": [
        {
          "internalType": "bytes32",
          "name": "role",
          "type": "bytes32"
        },
        {
          "internalType": "address",
          "name": "account",
          "type": "address"
        }
      ],
      "name": "hasRole",
      "outputs": [
        {
          "internalType": "bool",
          "name": "",
          "type": "bool"
        }
      ],
      "stateMutability": "view",
      "type": "function"
    },
    {
      "inputs": [
        {
          "internalType": "address",
          "name": "account",
          "type": "address"
        }
      ],
      "name": "isAdmin",
      "outputs": [
        {
          "internalType": "bool",
          "name": "",
          "type": "bool"
        }
      ],
      "stateMutability": "view",
      "type": "function"
    },
    {
      "inputs": [
        {
          "internalType": "address",
          "name": "account",
          "type": "address"
        }
      ],
      "name": "isMarketAdmin",
      "outputs": [
        {
          "internalType": "bool",
          "name": "",
          "type": "bool"
        }
      ],
      "stateMutability": "view",
      "type": "function"
    },
    {
      "inputs": [
        {
          "internalType": "address",
          "name": "account",
          "type": "address"
        }
      ],
      "name": "isStoreOwner",
      "outputs": [
        {
          "internalType": "bool",
          "name": "",
          "type": "bool"
        }
      ],
      "stateMutability": "view",
      "type": "function"
    },
    {
      "inputs": [],
      "name": "paused",
      "outputs": [
        {
          "internalType": "bool",
          "name": "",
          "type": "bool"
        }
      ],
      "stateMutability": "view",
      "type": "function"
    },
    {
      "inputs": [
        {
          "internalType": "address",
          "name": "account",
          "type": "address"
        }
      ],
      "name": "removeMarketAdmin",
      "outputs": [],
      "stateMutability": "nonpayable",
      "type": "function"
    },
    {
      "inputs": [
        {
          "internalType": "address",
          "name": "account",
          "type": "address"
        }
      ],
      "name": "removeStoreOwner",
      "outputs": [],
      "stateMutability": "nonpayable",
      "type": "function"
    },
    {
      "inputs": [],
      "name": "renounceAdmin",
      "outputs": [],
      "stateMutability": "nonpayable",
      "type": "function"
    },
    {
      "inputs": [
        {
          "internalType": "bytes32",
          "name": "role",
          "type": "bytes32"
        },
        {
          "internalType": "address",
          "name": "account",
          "type": "address"
        }
      ],
      "name": "renounceRole",
      "outputs": [],
      "stateMutability": "nonpayable",
      "type": "function"
    },
    {
      "inputs": [
        {
          "internalType": "bytes32",
          "name": "role",
          "type": "bytes32"
        },
        {
          "internalType": "address",
          "name": "account",
          "type": "address"
        }
      ],
      "name": "revokeRole",
      "outputs": [],
      "stateMutability": "nonpayable",
      "type": "function"
    },
    {
      "inputs": [
        {
          "internalType": "string",
          "name": "_name",
          "type": "string"
        }
      ],
      "name": "addStore",
      "outputs": [],
      "stateMutability": "nonpayable",
      "type": "function"
    },
    {
      "inputs": [],
      "name": "getStoreCount",
      "outputs": [
        {
          "internalType": "int256",
          "name": "",
          "type": "int256"
        }
      ],
      "stateMutability": "view",
      "type": "function"
    },
    {
      "inputs": [
        {
          "internalType": "int256",
          "name": "_storeId",
          "type": "int256"
        }
      ],
      "name": "getStore",
      "outputs": [
        {
          "internalType": "int256",
          "name": "id",
          "type": "int256"
        },
        {
          "internalType": "string",
          "name": "name",
          "type": "string"
        },
        {
          "internalType": "address",
          "name": "owner",
          "type": "address"
        },
        {
          "internalType": "uint256",
          "name": "balance",
          "type": "uint256"
        }
      ],
      "stateMutability": "view",
      "type": "function"
    },
    {
      "inputs": [
        {
          "internalType": "int256",
          "name": "_storeId",
          "type": "int256"
        }
      ],
      "name": "removeStore",
      "outputs": [],
      "stateMutability": "nonpayable",
      "type": "function"
    },
    {
      "inputs": [
        {
          "internalType": "string",
          "name": "_name",
          "type": "string"
        },
        {
          "internalType": "uint256",
          "name": "_price",
          "type": "uint256"
        },
        {
          "internalType": "int256",
          "name": "_storeId",
          "type": "int256"
        }
      ],
      "name": "addProduct",
      "outputs": [
        {
          "internalType": "bool",
          "name": "",
          "type": "bool"
        }
      ],
      "stateMutability": "nonpayable",
      "type": "function"
    },
    {
      "inputs": [
        {
          "internalType": "int256",
          "name": "_productId",
          "type": "int256"
        }
      ],
      "name": "getProduct",
      "outputs": [
        {
          "internalType": "string",
          "name": "",
          "type": "string"
        },
        {
          "internalType": "uint256",
          "name": "",
          "type": "uint256"
        },
        {
          "internalType": "int256",
          "name": "",
          "type": "int256"
        }
      ],
      "stateMutability": "view",
      "type": "function"
    },
    {
      "inputs": [],
      "name": "getProductCount",
      "outputs": [
        {
          "internalType": "int256",
          "name": "",
          "type": "int256"
        }
      ],
      "stateMutability": "view",
      "type": "function"
    },
    {
      "inputs": [
        {
          "internalType": "int256",
          "name": "_productId",
          "type": "int256"
        },
        {
          "internalType": "uint256",
          "name": "_price",
          "type": "uint256"
        },
        {
          "internalType": "int256",
          "name": "_storeId",
          "type": "int256"
        }
      ],
      "name": "updateProduct",
      "outputs": [],
      "stateMutability": "nonpayable",
      "type": "function"
    },
    {
      "inputs": [
        {
          "internalType": "int256",
          "name": "_productId",
          "type": "int256"
        },
        {
          "internalType": "int256",
          "name": "_storeId",
          "type": "int256"
        }
      ],
      "name": "removeProduct",
      "outputs": [],
      "stateMutability": "nonpayable",
      "type": "function"
    },
    {
      "inputs": [
        {
          "internalType": "int256",
          "name": "_storeId",
          "type": "int256"
        }
      ],
      "name": "removeStoreProducts",
      "outputs": [],
      "stateMutability": "nonpayable",
      "type": "function"
    },
    {
      "inputs": [
        {
          "internalType": "int256",
          "name": "_productId",
          "type": "int256"
        }
      ],
      "name": "purchaseProduct",
      "outputs": [
        {
          "internalType": "bool",
          "name": "",
          "type": "bool"
        }
      ],
      "stateMutability": "payable",
      "type": "function"
    },
    {
      "inputs": [
        {
          "internalType": "int256",
          "name": "_storeId",
          "type": "int256"
        }
      ],
      "name": "withdrawStoreBalance",
      "outputs": [
        {
          "internalType": "bool",
          "name": "",
          "type": "bool"
        }
      ],
      "stateMutability": "payable",
      "type": "function"
    }
  ],
  "bytecode": "0x60806040523480156200001157600080fd5b50620000276000801b336200020160201b60201c565b6200007160405180807f4d41524b45545f41444d494e5f524f4c45000000000000000000000000000000815250601101905060405180910390206000801b6200021760201b60201c565b620000ed60405180807f53544f52455f4f574e4552000000000000000000000000000000000000000000815250600b019050604051809103902060405180807f4d41524b45545f41444d494e5f524f4c45000000000000000000000000000000815250601101905060405180910390206200021760201b60201c565b6000600160006101000a81548160ff0219169083151502179055506001600281905550620001256000801b336200020160201b60201c565b6200016f60405180807f4d41524b45545f41444d494e5f524f4c45000000000000000000000000000000815250601101905060405180910390206000801b6200021760201b60201c565b620001eb60405180807f53544f52455f4f574e4552000000000000000000000000000000000000000000815250600b019050604051809103902060405180807f4d41524b45545f41444d494e5f524f4c45000000000000000000000000000000815250601101905060405180910390206200021760201b60201c565b60006005819055506000600681905550620003f9565b6200021382826200027960201b60201c565b5050565b8060008084815260200190815260200160002060020154837fbd79b86ffe0ab8e8776151514217cd7cacd52c909f66475c3af44e129f0b00ff60405160405180910390a480600080848152602001908152602001600020600201819055505050565b620002a7816000808581526020019081526020016000206000016200031c60201b620032731790919060201c565b156200031857620002bd6200035460201b60201c565b73ffffffffffffffffffffffffffffffffffffffff168173ffffffffffffffffffffffffffffffffffffffff16837f2f8788117e7eff1d82e926ec794901d17c78024a50270940304540a733656f0d60405160405180910390a45b5050565b60006200034c836000018373ffffffffffffffffffffffffffffffffffffffff1660001b6200035c60201b60201c565b905092915050565b600033905090565b6000620003708383620003d660201b60201c565b620003cb578260000182908060018154018082558091505060019003906000526020600020016000909190919091505582600001805490508360010160008481526020019081526020016000208190555060019050620003d0565b600090505b92915050565b600080836001016000848152602001908152602001600020541415905092915050565b61377580620004096000396000f3fe60806040526004361061020f5760003560e01c806391d1485411610118578063b1558700116100a0578063ca15c8731161006f578063ca15c87314610d15578063d547741f14610d64578063d6f0d39f14610dbf578063e0d0fb1b14610dea578063f3c93a9214610eac5761020f565b8063b155870014610b19578063b38f668b14610b54578063b5cb4c9114610ba5578063be5610b914610c9a5761020f565b80639adeb5f1116100e75780639adeb5f1146109155780639d4cca8e14610966578063a217fddf14610991578063a2410cf2146109bc578063a845925d14610ab05761020f565b806391d148541461080657806392020e101461087957806395e81428146108bf57806398e8bd97146108ea5761020f565b80634aa373f71161019b578063662feffc1161016a578063662feffc146106265780636adaabb6146106ee57806370480275146107195780638bad0c0a1461076a5780639010d07c146107815761020f565b80634aa373f7146104f75780635c975abb1461053d5780635effd33c1461056c5780636174fdd1146105d55761020f565b806324d7806c116101e257806324d7806c146103685780632771c781146103d15780632f2ff15d1461041657806336568abe146104715780634a348da9146104cc5761020f565b8063057a711e146102145780631a993b571461028f5780631da7f68c146102de578063248a9ca314610319575b600080fd5b34801561022057600080fd5b5061024d6004803603602081101561023757600080fd5b8101908080359060200190929190505050610efd565b604051808273ffffffffffffffffffffffffffffffffffffffff1673ffffffffffffffffffffffffffffffffffffffff16815260200191505060405180910390f35b34801561029b57600080fd5b506102dc600480360360608110156102b257600080fd5b81019080803590602001909291908035906020019092919080359060200190929190505050610f45565b005b3480156102ea57600080fd5b506103176004803603602081101561030157600080fd5b810190808035906020019092919050505061119e565b005b34801561032557600080fd5b506103526004803603602081101561033c57600080fd5b810190808035906020019092919050505061133c565b6040518082815260200191505060405180910390f35b34801561037457600080fd5b506103b76004803603602081101561038b57600080fd5b81019080803573ffffffffffffffffffffffffffffffffffffffff16906020019092919050505061135b565b604051808215151515815260200191505060405180910390f35b3480156103dd57600080fd5b50610414600480360360408110156103f457600080fd5b810190808035906020019092919080359060200190929190505050611371565b005b34801561042257600080fd5b5061046f6004803603604081101561043957600080fd5b8101908080359060200190929190803573ffffffffffffffffffffffffffffffffffffffff169060200190929190505050611623565b005b34801561047d57600080fd5b506104ca6004803603604081101561049457600080fd5b8101908080359060200190929190803573ffffffffffffffffffffffffffffffffffffffff1690602001909291905050506116ac565b005b3480156104d857600080fd5b506104e1611745565b6040518082815260200191505060405180910390f35b6105236004803603602081101561050d57600080fd5b810190808035906020019092919050505061174f565b604051808215151515815260200191505060405180910390f35b34801561054957600080fd5b50610552611aab565b604051808215151515815260200191505060405180910390f35b34801561057857600080fd5b506105bb6004803603602081101561058f57600080fd5b81019080803573ffffffffffffffffffffffffffffffffffffffff169060200190929190505050611ac2565b604051808215151515815260200191505060405180910390f35b3480156105e157600080fd5b50610624600480360360208110156105f857600080fd5b81019080803573ffffffffffffffffffffffffffffffffffffffff169060200190929190505050611b0a565b005b34801561063257600080fd5b506106ec6004803603602081101561064957600080fd5b810190808035906020019064010000000081111561066657600080fd5b82018360208201111561067857600080fd5b8035906020019184600183028401116401000000008311171561069a57600080fd5b91908080601f016020809104026020016040519081016040528093929190818152602001838380828437600081840152601f19601f820116905080830192505050505050509192919290505050611bc7565b005b3480156106fa57600080fd5b50610703611e86565b6040518082815260200191505060405180910390f35b34801561072557600080fd5b506107686004803603602081101561073c57600080fd5b81019080803573ffffffffffffffffffffffffffffffffffffffff169060200190929190505050611ebf565b005b34801561077657600080fd5b5061077f611f4a565b005b34801561078d57600080fd5b506107c4600480360360408110156107a457600080fd5b810190808035906020019092919080359060200190929190505050611f59565b604051808273ffffffffffffffffffffffffffffffffffffffff1673ffffffffffffffffffffffffffffffffffffffff16815260200191505060405180910390f35b34801561081257600080fd5b5061085f6004803603604081101561082957600080fd5b8101908080359060200190929190803573ffffffffffffffffffffffffffffffffffffffff169060200190929190505050611f8a565b604051808215151515815260200191505060405180910390f35b6108a56004803603602081101561088f57600080fd5b8101908080359060200190929190505050611fbb565b604051808215151515815260200191505060405180910390f35b3480156108cb57600080fd5b506108d4612305565b6040518082815260200191505060405180910390f35b3480156108f657600080fd5b506108ff61234a565b6040518082815260200191505060405180910390f35b34801561092157600080fd5b506109646004803603602081101561093857600080fd5b81019080803573ffffffffffffffffffffffffffffffffffffffff169060200190929190505050612354565b005b34801561097257600080fd5b5061097b612411565b6040518082815260200191505060405180910390f35b34801561099d57600080fd5b506109a6612456565b6040518082815260200191505060405180910390f35b3480156109c857600080fd5b50610a96600480360360608110156109df57600080fd5b81019080803590602001906401000000008111156109fc57600080fd5b820183602082011115610a0e57600080fd5b80359060200191846001830284011164010000000083111715610a3057600080fd5b91908080601f016020809104026020016040519081016040528093929190818152602001838380828437600081840152601f19601f820116905080830192505050505050509192919290803590602001909291908035906020019092919050505061245d565b604051808215151515815260200191505060405180910390f35b348015610abc57600080fd5b50610aff60048036036020811015610ad357600080fd5b81019080803573ffffffffffffffffffffffffffffffffffffffff1690602001909291905050506127e0565b604051808215151515815260200191505060405180910390f35b348015610b2557600080fd5b50610b5260048036036020811015610b3c57600080fd5b8101908080359060200190929190505050612828565b005b348015610b6057600080fd5b50610ba360048036036020811015610b7757600080fd5b81019080803573ffffffffffffffffffffffffffffffffffffffff169060200190929190505050612b5b565b005b348015610bb157600080fd5b50610bde60048036036020811015610bc857600080fd5b8101908080359060200190929190505050612c18565b60405180858152602001806020018473ffffffffffffffffffffffffffffffffffffffff1673ffffffffffffffffffffffffffffffffffffffff168152602001838152602001828103825285818151815260200191508051906020019080838360005b83811015610c5c578082015181840152602081019050610c41565b50505050905090810190601f168015610c895780820380516001836020036101000a031916815260200191505b509550505050505060405180910390f35b348015610ca657600080fd5b50610cd360048036036020811015610cbd57600080fd5b8101908080359060200190929190505050612d35565b604051808273ffffffffffffffffffffffffffffffffffffffff1673ffffffffffffffffffffffffffffffffffffffff16815260200191505060405180910390f35b348015610d2157600080fd5b50610d4e60048036036020811015610d3857600080fd5b8101908080359060200190929190505050612d7d565b6040518082815260200191505060405180910390f35b348015610d7057600080fd5b50610dbd60048036036040811015610d8757600080fd5b8101908080359060200190929190803573ffffffffffffffffffffffffffffffffffffffff169060200190929190505050612da3565b005b348015610dcb57600080fd5b50610dd4612e2c565b6040518082815260200191505060405180910390f35b348015610df657600080fd5b50610e2360048036036020811015610e0d57600080fd5b8101908080359060200190929190505050612e65565b6040518080602001848152602001838152602001828103825285818151815260200191508051906020019080838360005b83811015610e6f578082015181840152602081019050610e54565b50505050905090810190601f168015610e9c5780820380516001836020036101000a031916815260200191505b5094505050505060405180910390f35b348015610eb857600080fd5b50610efb60048036036020811015610ecf57600080fd5b81019080803573ffffffffffffffffffffffffffffffffffffffff169060200190929190505050612f57565b005b6000610f3e60405180807f53544f52455f4f574e4552000000000000000000000000000000000000000000815250600b019050604051809103902083611f59565b9050919050565b610f4e33611ac2565b610fc0576040517f08c379a00000000000000000000000000000000000000000000000000000000081526004018080602001828103825260198152602001807f5265737472696374656420746f2053746f72654f776e65722e0000000000000081525060200191505060405180910390fd5b803373ffffffffffffffffffffffffffffffffffffffff166003600083815260200190815260200160002060020160009054906101000a900473ffffffffffffffffffffffffffffffffffffffff1673ffffffffffffffffffffffffffffffffffffffff1614611098576040517f08c379a00000000000000000000000000000000000000000000000000000000081526004018080602001828103825260198152602001807f5265737472696374656420746f2053746f72654f776e65722e0000000000000081525060200191505060405180910390fd5b600160009054906101000a900460ff161561111b576040517f08c379a00000000000000000000000000000000000000000000000000000000081526004018080602001828103825260108152602001807f5061757361626c653a207061757365640000000000000000000000000000000081525060200191505060405180910390fd5b6000600460008681526020019081526020016000206002015490508360046000878152602001908152602001600020600201819055507e6c939128b14301f0f1d4af0f5557e3193f7d60c540636c841aef2c947848ba85828660405180848152602001838152602001828152602001935050505060405180910390a15050505050565b6111a733611ac2565b611219576040517f08c379a00000000000000000000000000000000000000000000000000000000081526004018080602001828103825260198152602001807f5265737472696374656420746f2053746f72654f776e65722e0000000000000081525060200191505060405180910390fd5b600160009054906101000a900460ff161561129c576040517f08c379a00000000000000000000000000000000000000000000000000000000081526004018080602001828103825260108152602001807f5061757361626c653a207061757365640000000000000000000000000000000081525060200191505060405180910390fd5b6112a581612828565b600360008281526020019081526020016000206000808201600090556001820160006112d191906135a2565b6002820160006101000a81549073ffffffffffffffffffffffffffffffffffffffff0219169055600382016000905550507f7956068b7f41bfb21a22334f5005c7bb94e03402fd0f0dc057963912a7feac30816040518082815260200191505060405180910390a150565b6000806000838152602001908152602001600020600201549050919050565b600061136a6000801b83611f8a565b9050919050565b61137a33611ac2565b6113ec576040517f08c379a00000000000000000000000000000000000000000000000000000000081526004018080602001828103825260198152602001807f5265737472696374656420746f2053746f72654f776e65722e0000000000000081525060200191505060405180910390fd5b803373ffffffffffffffffffffffffffffffffffffffff166003600083815260200190815260200160002060020160009054906101000a900473ffffffffffffffffffffffffffffffffffffffff1673ffffffffffffffffffffffffffffffffffffffff16146114c4576040517f08c379a00000000000000000000000000000000000000000000000000000000081526004018080602001828103825260198152602001807f5265737472696374656420746f2053746f72654f776e65722e0000000000000081525060200191505060405180910390fd5b600160009054906101000a900460ff1615611547576040517f08c379a00000000000000000000000000000000000000000000000000000000081526004018080602001828103825260108152602001807f5061757361626c653a207061757365640000000000000000000000000000000081525060200191505060405180910390fd5b6004600084815260200190815260200160002060008082016000905560018201600061157391906135a2565b600282016000905560038201600090556004820160006101000a81549060ff02191690556004820160016101000a81549073ffffffffffffffffffffffffffffffffffffffff02191690556005820160006101000a81549073ffffffffffffffffffffffffffffffffffffffff021916905550507f4216a11a0ccf796f48ed5b14d014483de402e4bc3136424cfc8d0a26574f2b09836040518082815260200191505060405180910390a1505050565b61164960008084815260200190815260200160002060020154611644613014565b611f8a565b61169e576040517f08c379a000000000000000000000000000000000000000000000000000000000815260040180806020018281038252602f8152602001806136b2602f913960400191505060405180910390fd5b6116a8828261301c565b5050565b6116b4613014565b73ffffffffffffffffffffffffffffffffffffffff168173ffffffffffffffffffffffffffffffffffffffff1614611737576040517f08c379a000000000000000000000000000000000000000000000000000000000815260040180806020018281038252602f815260200180613711602f913960400191505060405180910390fd5b61174182826130af565b5050565b6000600554905090565b6000816000600181111561175f57fe5b6004600083815260200190815260200160002060040160009054906101000a900460ff16600181111561178e57fe5b1480156117b257506000600460008381526020019081526020016000206002015410155b6117bb57600080fd5b6004600084815260200190815260200160002060020154803410156117df57600080fd5b83600160009054906101000a900460ff1615611863576040517f08c379a00000000000000000000000000000000000000000000000000000000081526004018080602001828103825260108152602001807f5061757361626c653a207061757365640000000000000000000000000000000081525060200191505060405180910390fd5b6002805414156118db576040517f08c379a000000000000000000000000000000000000000000000000000000000815260040180806020018281038252601f8152602001807f5265656e7472616e637947756172643a207265656e7472616e742063616c6c0081525060200191505060405180910390fd5b60028081905550336004600087815260200190815260200160002060050160006101000a81548173ffffffffffffffffffffffffffffffffffffffff021916908373ffffffffffffffffffffffffffffffffffffffff16021790555060016004600087815260200190815260200160002060040160006101000a81548160ff0219169083600181111561196a57fe5b02179055506119ae3460036000600460008a81526020019081526020016000206003015481526020019081526020016000206003015461314290919063ffffffff16565b507fc27f1ce0902edb04ebb927f31b38dd70b2e07d44c948cfe30b3f433fe7ea12b6856040518082815260200191505060405180910390a16001935060016002819055506000600460008381526020019081526020016000206002015490506000611a2282346131ca90919063ffffffff16565b90506004600084815260200190815260200160002060050160009054906101000a900473ffffffffffffffffffffffffffffffffffffffff1673ffffffffffffffffffffffffffffffffffffffff166108fc829081150290604051600060405180830381858888f19350505050158015611aa0573d6000803e3d6000fd5b505050505050919050565b6000600160009054906101000a900460ff16905090565b6000611b0360405180807f53544f52455f4f574e4552000000000000000000000000000000000000000000815250600b019050604051809103902083611f8a565b9050919050565b611b13336127e0565b611b85576040517f08c379a000000000000000000000000000000000000000000000000000000000815260040180806020018281038252601a8152602001807f5265737472696374656420746f204d61726b657441646d696e2e00000000000081525060200191505060405180910390fd5b611bc460405180807f53544f52455f4f574e4552000000000000000000000000000000000000000000815250600b019050604051809103902082612da3565b50565b611bd033611ac2565b611c42576040517f08c379a00000000000000000000000000000000000000000000000000000000081526004018080602001828103825260198152602001807f5265737472696374656420746f2053746f72654f776e65722e0000000000000081525060200191505060405180910390fd5b600160009054906101000a900460ff1615611cc5576040517f08c379a00000000000000000000000000000000000000000000000000000000081526004018080602001828103825260108152602001807f5061757361626c653a207061757365640000000000000000000000000000000081525060200191505060405180910390fd5b604051806080016040528060065481526020018281526020013373ffffffffffffffffffffffffffffffffffffffff1681526020016000815250600360006006548152602001908152602001600020600082015181600001556020820151816001019080519060200190611d3a9291906135ea565b5060408201518160020160006101000a81548173ffffffffffffffffffffffffffffffffffffffff021916908373ffffffffffffffffffffffffffffffffffffffff1602179055506060820151816003015590505060016006600082825401925050819055507fb26cd1b7e77e2bac09f8db62f0718a886941d51886aa0073dea96f1ae2b2161d6006548233600060405180858152602001806020018473ffffffffffffffffffffffffffffffffffffffff1673ffffffffffffffffffffffffffffffffffffffff168152602001838152602001828103825285818151815260200191508051906020019080838360005b83811015611e46578082015181840152602081019050611e2b565b50505050905090810190601f168015611e735780820380516001836020036101000a031916815260200191505b509550505050505060405180910390a150565b60405180807f53544f52455f4f574e4552000000000000000000000000000000000000000000815250600b019050604051809103902081565b611ec83361135b565b611f3a576040517f08c379a00000000000000000000000000000000000000000000000000000000081526004018080602001828103825260158152602001807f5265737472696374656420746f2061646d696e732e000000000000000000000081525060200191505060405180910390fd5b611f476000801b82611623565b50565b611f576000801b336116ac565b565b6000611f828260008086815260200190815260200160002060000161321490919063ffffffff16565b905092915050565b6000611fb38260008086815260200190815260200160002060000161322e90919063ffffffff16565b905092915050565b6000611fc633611ac2565b612038576040517f08c379a00000000000000000000000000000000000000000000000000000000081526004018080602001828103825260198152602001807f5265737472696374656420746f2053746f72654f776e65722e0000000000000081525060200191505060405180910390fd5b813373ffffffffffffffffffffffffffffffffffffffff166003600083815260200190815260200160002060020160009054906101000a900473ffffffffffffffffffffffffffffffffffffffff1673ffffffffffffffffffffffffffffffffffffffff1614612110576040517f08c379a00000000000000000000000000000000000000000000000000000000081526004018080602001828103825260198152602001807f5265737472696374656420746f2053746f72654f776e65722e0000000000000081525060200191505060405180910390fd5b600160009054906101000a900460ff1615612193576040517f08c379a00000000000000000000000000000000000000000000000000000000081526004018080602001828103825260108152602001807f5061757361626c653a207061757365640000000000000000000000000000000081525060200191505060405180910390fd5b60028054141561220b576040517f08c379a000000000000000000000000000000000000000000000000000000000815260040180806020018281038252601f8152602001807f5265656e7472616e637947756172643a207265656e7472616e742063616c6c0081525060200191505060405180910390fd5b60028081905550600060036000858152602001908152602001600020600301541161223557600080fd5b600060036000858152602001908152602001600020600301549050600060036000868152602001908152602001600020600301819055503373ffffffffffffffffffffffffffffffffffffffff166108fc829081150290604051600060405180830381858888f193505050501580156122b2573d6000803e3d6000fd5b507f397cbf37f742f11e9d5fc23b6877c1b61c301b2926beb2505bfe9482560390878482604051808381526020018281526020019250505060405180910390a16001925050600160028190555050919050565b600061234560405180807f4d41524b45545f41444d494e5f524f4c4500000000000000000000000000000081525060110190506040518091039020612d7d565b905090565b6000600654905090565b61235d336127e0565b6123cf576040517f08c379a000000000000000000000000000000000000000000000000000000000815260040180806020018281038252601a8152602001807f5265737472696374656420746f204d61726b657441646d696e2e00000000000081525060200191505060405180910390fd5b61240e60405180807f53544f52455f4f574e4552000000000000000000000000000000000000000000815250600b019050604051809103902082611623565b50565b600061245160405180807f53544f52455f4f574e4552000000000000000000000000000000000000000000815250600b0190506040518091039020612d7d565b905090565b6000801b81565b600061246833611ac2565b6124da576040517f08c379a00000000000000000000000000000000000000000000000000000000081526004018080602001828103825260198152602001807f5265737472696374656420746f2053746f72654f776e65722e0000000000000081525060200191505060405180910390fd5b600160009054906101000a900460ff161561255d576040517f08c379a00000000000000000000000000000000000000000000000000000000081526004018080602001828103825260108152602001807f5061757361626c653a207061757365640000000000000000000000000000000081525060200191505060405180910390fd5b6040518060e0016040528060055481526020018581526020018481526020018381526020016000600181111561258f57fe5b81526020013373ffffffffffffffffffffffffffffffffffffffff168152602001600073ffffffffffffffffffffffffffffffffffffffff168152506004600060055481526020019081526020016000206000820151816000015560208201518160010190805190602001906126069291906135ea565b50604082015181600201556060820151816003015560808201518160040160006101000a81548160ff0219169083600181111561263f57fe5b021790555060a08201518160040160016101000a81548173ffffffffffffffffffffffffffffffffffffffff021916908373ffffffffffffffffffffffffffffffffffffffff16021790555060c08201518160050160006101000a81548173ffffffffffffffffffffffffffffffffffffffff021916908373ffffffffffffffffffffffffffffffffffffffff1602179055509050507f12158a50a952aada69c3b23193cf114c789c43ac7b6a16a0de87beb2a9dc6c526005548585856040518085815260200180602001848152602001838152602001828103825285818151815260200191508051906020019080838360005b8381101561274e578082015181840152602081019050612733565b50505050905090810190601f16801561277b5780820380516001836020036101000a031916815260200191505b509550505050505060405180910390a17f2368d2b842af4cd3b645cf031229a7e2088c68011d7c98bf0517f2037c5281006005546040518082815260200191505060405180910390a16001600560008282540192505081905550600190509392505050565b600061282160405180807f4d41524b45545f41444d494e5f524f4c450000000000000000000000000000008152506011019050604051809103902083611f8a565b9050919050565b61283133611ac2565b6128a3576040517f08c379a00000000000000000000000000000000000000000000000000000000081526004018080602001828103825260198152602001807f5265737472696374656420746f2053746f72654f776e65722e0000000000000081525060200191505060405180910390fd5b803373ffffffffffffffffffffffffffffffffffffffff166003600083815260200190815260200160002060020160009054906101000a900473ffffffffffffffffffffffffffffffffffffffff1673ffffffffffffffffffffffffffffffffffffffff161461297b576040517f08c379a00000000000000000000000000000000000000000000000000000000081526004018080602001828103825260198152602001807f5265737472696374656420746f2053746f72654f776e65722e0000000000000081525060200191505060405180910390fd5b600160009054906101000a900460ff16156129fe576040517f08c379a00000000000000000000000000000000000000000000000000000000081526004018080602001828103825260108152602001807f5061757361626c653a207061757365640000000000000000000000000000000081525060200191505060405180910390fd5b60008090505b600554811215612b1f578260046000838152602001908152602001600020600301541415612b1a5760046000828152602001908152602001600020600080820160009055600182016000612a5891906135a2565b600282016000905560038201600090556004820160006101000a81549060ff02191690556004820160016101000a81549073ffffffffffffffffffffffffffffffffffffffff02191690556005820160006101000a81549073ffffffffffffffffffffffffffffffffffffffff021916905550507f4216a11a0ccf796f48ed5b14d014483de402e4bc3136424cfc8d0a26574f2b0960046000838152602001908152602001600020600001546040518082815260200191505060405180910390a15b612a04565b507f795fd0951344efc96d0974f972cca3eefacb675fad5847f0e6b7c4452dd15d11826040518082815260200191505060405180910390a15050565b612b643361135b565b612bd6576040517f08c379a00000000000000000000000000000000000000000000000000000000081526004018080602001828103825260158152602001807f5265737472696374656420746f2061646d696e732e000000000000000000000081525060200191505060405180910390fd5b612c1560405180807f4d41524b45545f41444d494e5f524f4c450000000000000000000000000000008152506011019050604051809103902082612da3565b50565b60006060600080600360008681526020019081526020016000206001018054600181600116156101000203166002900480601f016020809104026020016040519081016040528092919081815260200182805460018160011615610100020316600290048015612cc95780601f10612c9e57610100808354040283529160200191612cc9565b820191906000526020600020905b815481529060010190602001808311612cac57829003601f168201915b505050505092506003600086815260200190815260200160002060020160009054906101000a900473ffffffffffffffffffffffffffffffffffffffff169150600360008681526020019081526020016000206003015490508483838393509350935093509193509193565b6000612d7660405180807f4d41524b45545f41444d494e5f524f4c450000000000000000000000000000008152506011019050604051809103902083611f59565b9050919050565b6000612d9c60008084815260200190815260200160002060000161325e565b9050919050565b612dc960008084815260200190815260200160002060020154612dc4613014565b611f8a565b612e1e576040517f08c379a00000000000000000000000000000000000000000000000000000000081526004018080602001828103825260308152602001806136e16030913960400191505060405180910390fd5b612e2882826130af565b5050565b60405180807f4d41524b45545f41444d494e5f524f4c450000000000000000000000000000008152506011019050604051809103902081565b60606000806004600085815260200190815260200160002060010160046000868152602001908152602001600020600201546004600087815260200190815260200160002060030154828054600181600116156101000203166002900480601f016020809104026020016040519081016040528092919081815260200182805460018160011615610100020316600290048015612f435780601f10612f1857610100808354040283529160200191612f43565b820191906000526020600020905b815481529060010190602001808311612f2657829003601f168201915b505050505092509250925092509193909250565b612f603361135b565b612fd2576040517f08c379a00000000000000000000000000000000000000000000000000000000081526004018080602001828103825260158152602001807f5265737472696374656420746f2061646d696e732e000000000000000000000081525060200191505060405180910390fd5b61301160405180807f4d41524b45545f41444d494e5f524f4c450000000000000000000000000000008152506011019050604051809103902082611623565b50565b600033905090565b6130438160008085815260200190815260200160002060000161327390919063ffffffff16565b156130ab57613050613014565b73ffffffffffffffffffffffffffffffffffffffff168173ffffffffffffffffffffffffffffffffffffffff16837f2f8788117e7eff1d82e926ec794901d17c78024a50270940304540a733656f0d60405160405180910390a45b5050565b6130d6816000808581526020019081526020016000206000016132a390919063ffffffff16565b1561313e576130e3613014565b73ffffffffffffffffffffffffffffffffffffffff168173ffffffffffffffffffffffffffffffffffffffff16837ff6391f5c32d9c69d2a47ea670b442974b53935d1edc7fd64eb21e047a839171b60405160405180910390a45b5050565b6000808284019050838110156131c0576040517f08c379a000000000000000000000000000000000000000000000000000000000815260040180806020018281038252601b8152602001807f536166654d6174683a206164646974696f6e206f766572666c6f77000000000081525060200191505060405180910390fd5b8091505092915050565b600061320c83836040518060400160405280601e81526020017f536166654d6174683a207375627472616374696f6e206f766572666c6f7700008152506132d3565b905092915050565b60006132238360000183613393565b60001c905092915050565b6000613256836000018373ffffffffffffffffffffffffffffffffffffffff1660001b613416565b905092915050565b600061326c82600001613439565b9050919050565b600061329b836000018373ffffffffffffffffffffffffffffffffffffffff1660001b61344a565b905092915050565b60006132cb836000018373ffffffffffffffffffffffffffffffffffffffff1660001b6134ba565b905092915050565b6000838311158290613380576040517f08c379a00000000000000000000000000000000000000000000000000000000081526004018080602001828103825283818151815260200191508051906020019080838360005b8381101561334557808201518184015260208101905061332a565b50505050905090810190601f1680156133725780820380516001836020036101000a031916815260200191505b509250505060405180910390fd5b5060008385039050809150509392505050565b6000818360000180549050116133f4576040517f08c379a00000000000000000000000000000000000000000000000000000000081526004018080602001828103825260228152602001806136906022913960400191505060405180910390fd5b82600001828154811061340357fe5b9060005260206000200154905092915050565b600080836001016000848152602001908152602001600020541415905092915050565b600081600001805490509050919050565b60006134568383613416565b6134af5782600001829080600181540180825580915050600190039060005260206000200160009091909190915055826000018054905083600101600084815260200190815260200160002081905550600190506134b4565b600090505b92915050565b60008083600101600084815260200190815260200160002054905060008114613596576000600182039050600060018660000180549050039050600086600001828154811061350557fe5b906000526020600020015490508087600001848154811061352257fe5b906000526020600020018190555060018301876001016000838152602001908152602001600020819055508660000180548061355a57fe5b6001900381819060005260206000200160009055905586600101600087815260200190815260200160002060009055600194505050505061359c565b60009150505b92915050565b50805460018160011615610100020316600290046000825580601f106135c857506135e7565b601f0160209004906000526020600020908101906135e6919061366a565b5b50565b828054600181600116156101000203166002900490600052602060002090601f016020900481019282601f1061362b57805160ff1916838001178555613659565b82800160010185558215613659579182015b8281111561365857825182559160200191906001019061363d565b5b509050613666919061366a565b5090565b61368c91905b80821115613688576000816000905550600101613670565b5090565b9056fe456e756d657261626c655365743a20696e646578206f7574206f6620626f756e6473416363657373436f6e74726f6c3a2073656e646572206d75737420626520616e2061646d696e20746f206772616e74416363657373436f6e74726f6c3a2073656e646572206d75737420626520616e2061646d696e20746f207265766f6b65416363657373436f6e74726f6c3a2063616e206f6e6c792072656e6f756e636520726f6c657320666f722073656c66a26469706673582212206288e01899176e0ea468cb06b435484474ec53111465697d2bdce3534fc0c4a764736f6c63430006020033",
  "source": "pragma solidity >=0.5.16<0.8.0;\n\nimport \"@openzeppelin/contracts/math/SafeMath.sol\";\nimport \"@openzeppelin/contracts/utils/Pausable.sol\";\nimport \"@openzeppelin/contracts/utils/ReentrancyGuard.sol\";\nimport \"./Administered.sol\";\n\n/// @title A simulator for Market Place\n/// @author Aysha Amin\n/// @notice You can use this contract for only the most basic simulation\ncontract Marketplace is Administered, Pausable, ReentrancyGuard{\n\nusing SafeMath for uint256;\n  struct Store{\n\t\tint id; \n\t\tstring name;\n\t\taddress owner; \n\t\tuint256 balance; \n\t}\n  struct Product{\n    int id;\n    string name;\n    uint256 price;\n    int storeId; \n    State state;\n    address payable seller;\n    address payable buyer;\n  }\n  enum State{\n    ForSale,\n    Sold\n  }\n\n\tmapping (int => Store) private stores; \n  mapping (int => Product) private products;\n  int private productCount;\n  int private storeCount;\n\n\n  constructor() public \n  {\n    /* Here, set the owner as the person who instantiated the contract\n       and set your idCount to 0. */\n       //owner=msg.sender;\n       _setupRole(DEFAULT_ADMIN_ROLE, msg.sender);\n    //_setupRole(MARKET_ADMIN_ROLE, msg.sender);\n    _setRoleAdmin(MARKET_ADMIN_ROLE, DEFAULT_ADMIN_ROLE);\n    _setRoleAdmin(STORE_OWNER_ROLE, MARKET_ADMIN_ROLE);\n       productCount=0;\n       storeCount=0;\n  }\n\n  event LogForSale(int id);\n  event LogSold(int id);\n  event LogStoreAdded (\n\t\tint id, \n\t\tstring name, \n\t\taddress owner, \n\t\tuint256 balance);\n\n  event LogProductAdded (\n\t\tint id, \n\t\tstring name, \n\t\tuint256 price, \n\t\tint storeId);\n  event LogWithdrawStoreBalance(\n    int storeId,\n\t\tuint256 amount\n  );\n  event LogPriceUpdated(\n    int id, \n\t\tuint256 oldPrice, \n\t\tuint256 newPrice\n  );\n  event ProductRemoved(int _productId);\n  event ProductsRemoved(int _storeId);\n  event StoreRemoved(int _storeId);\n\n\n  modifier forSale(int _productId){require(products[_productId].state == State.ForSale && products[_productId].price >= 0); _;}\n  modifier sold(int _productId){require(products[_productId].state == State.Sold && products[_productId].buyer != address(0)); _;}\n  modifier paidEnough(uint256 _price) { require(msg.value >= _price); _;}\n  modifier checkValue(int _productId) {\n    //refund them after pay for item (why it is before, _ checks for logic before func)\n    _;\n    uint256 _price = products[_productId].price;\n    uint256 amountToRefund = msg.value.sub(_price) ;\n    products[_productId].buyer.transfer(amountToRefund);\n  }\n  \n  modifier onlyOwnerOfThisStore(int _storeId)\n  {\n    require(stores[_storeId].owner == msg.sender, \"Restricted to StoreOwner.\");\n    _;\n  }\n\n  /// @dev Add a Store.\n\t/// @param _name Name of Store to Add \n  \n  function addStore(string memory _name)\n  onlyStoreOwner\n  whenNotPaused\n  public\n  //returns(bool)\n  {\n    stores[storeCount] = Store({ id: storeCount,name: _name, owner: msg.sender, balance: 0});\n    \n    storeCount+=1;\n    //storeCount.add(1);\n    emit LogStoreAdded(storeCount, _name, msg.sender, 0);\n    //return true;\n  }\n  \n  /// @dev Get Store Count.\n  /// @return The count of the stores\n  function getStoreCount() \n  public \n  view \n  returns (int) {\n    return storeCount;\n  } \n\n  /// @dev Get a Store.\n\t/// @param _storeId ID of Store to Get \n  function getStore(int _storeId) \n  public \n  view \n  returns (int id,string memory name, address owner, uint256 balance) {\n    name = stores[_storeId].name;\n    owner = stores[_storeId].owner;\n    balance = stores[_storeId].balance;\n    return (_storeId,name, owner, balance);\n  } \n\n  /// @dev Remove a Store.\n\t/// @param _storeId ID of Store to Remove \n  function removeStore(int _storeId)\n  onlyStoreOwner\n  whenNotPaused\n  public\n  {\n    removeStoreProducts(_storeId);\n    delete stores[_storeId];\n\t\temit StoreRemoved(_storeId);\n  }\n\n  /// @dev Add a product.\n\t/// @param _name Name of product to Add \n  /// @param _price Price ID for product \n  /// @param _storeId Store ID for product to Add \n  function addProduct(string memory _name,uint256 _price,int  _storeId)\n    onlyStoreOwner\n    whenNotPaused\n    public\n    returns(bool)\n  {\n    products[productCount] = Product({name: _name, id: productCount, price: _price, storeId:_storeId ,state: State.ForSale, seller: msg.sender, buyer: address(0)});\n    emit LogProductAdded(productCount, _name,_price, _storeId);\n    emit LogForSale(productCount);\n    productCount += 1;\n    //productCount = productCount.add(1);\n    return true;\n  }\n\n  /// @dev Get a product.\n\t/// @param _productId ID of product to Get \n  function getProduct(int _productId)\n\tview \n\tpublic\n\treturns (string memory, uint256, int) {\n\n\t\treturn ( products[_productId].name,\n\t\t\t\tproducts[_productId].price,\n\t\t\t\tproducts[_productId].storeId\n        );\n\t}\n\n  /// @dev Get Product Count.\n  /// @return The count of the Products\n  function getProductCount() \n  public \n  view \n  returns (int) {\n    return productCount;\n  } \n\n  /// @dev update a product.\n  /// @param _productId ID of product to Update \n  /// @param _price New Price ID for product \n  /// @param _storeId Store ID for product to Update \n  function updateProduct(int _productId, uint256 _price, int _storeId) \n  onlyStoreOwner\n  onlyOwnerOfThisStore(_storeId)\n  whenNotPaused\n  public {\n    uint256 oldPrice=products[_productId].price;\n\t\tproducts[_productId].price=_price;\n\t\temit LogPriceUpdated(_productId, oldPrice, _price);\n  }\n\n  /// @dev Removes a product.\n\t/// @param _storeId Store ID for product to remove \n\t/// @param _productId ID of product to remove \n  function removeProduct(int _productId,int _storeId)\n  onlyStoreOwner\n  onlyOwnerOfThisStore(_storeId)\n  whenNotPaused\n  public\n  {\n\t\tdelete products[_productId];\n\t\temit ProductRemoved(_productId);\n  }\n\n  /// @dev Removes products from store.\n\t/// @param _storeId Storefront ID for products to remove \n  function removeStoreProducts(int _storeId)\n  onlyStoreOwner\n  onlyOwnerOfThisStore(_storeId)\n  whenNotPaused\n  public\n  {\n\t\tfor(int i=0; i<productCount; i+1) {\n\t\t\tif ( products[i].storeId == _storeId) {\n\t\t\t\tdelete products[i];\n\t\t\t\temit ProductRemoved(products[i].id);\n\t\t\t}\n\t\t}\n    emit ProductsRemoved(_storeId);\n  }\n\n  /// @dev Purchase a product.\n  /// @param _productId ID of product to Purchase \n  /// @return The Product Purchased\n  function purchaseProduct(int _productId)\n  payable\n  forSale(_productId) \n  paidEnough(products[_productId].price) \n  checkValue(_productId)\n  whenNotPaused\n  nonReentrant\n  public\n  returns (bool)\n  {\n    products[_productId].buyer = msg.sender;\n    products[_productId].state = State.Sold;\n    stores[products[_productId].storeId].balance.add(msg.value);\n    emit LogSold(_productId);\n    return true;\n  }\n\n  /// @dev Withdraw The Store Balance.\n  /// @param _storeId ID of Store to Withdraw \n  /// @return The Withdraw Done\n  function withdrawStoreBalance(int _storeId) \n  payable\n\tonlyStoreOwner\n  onlyOwnerOfThisStore(_storeId)\n\twhenNotPaused\n  nonReentrant\n\tpublic \n  returns (bool)\n  {\n\t\trequire(stores[_storeId].balance > 0);\n\t\tuint storeBalance = stores[_storeId].balance;\n    stores[_storeId].balance = 0;\n\t\tmsg.sender.transfer(storeBalance);\n\t\temit LogWithdrawStoreBalance(_storeId, storeBalance);\n\t\treturn true;\n\t}\n\n}",
  "sourcePath": "/home/aysha/Github/Online-Marketplace/contracts/Marketplace.sol",
  "compiler": {
    "name": "solc",
    "version": "0.6.2+commit.bacdbe57.Emscripten.clang"
  },
  "schemaVersion": "3.3.2",
  "updatedAt": "2020-12-04T04:43:35.340Z",
  "devdoc": {
    "author": "Aysha Amin",
    "methods": {
      "addAdmin(address)": {
        "details": "Add an account to the admin role. Restricted to admins.",
        "params": {
          "account": "address of account to Add as Admin."
        }
      },
      "addMarketAdmin(address)": {
        "details": "Add an account to the admin role. Restricted to admins.",
        "params": {
          "account": "address of account to to Add as MarketAdmin."
        }
      },
      "addProduct(string,uint256,int256)": {
        "details": "Add a product.",
        "params": {
          "_name": "Name of product to Add ",
          "_price": "Price ID for product ",
          "_storeId": "Store ID for product to Add "
        }
      },
      "addStore(string)": {
        "details": "Add a Store.",
        "params": {
          "_name": "Name of Store to Add "
        }
      },
      "addStoreOwner(address)": {
        "details": "Add an account to the user role. Restricted to MarketAdmins.",
        "params": {
          "account": "address of account to Add as StoreOwner."
        }
      },
      "getMarketAdminMember(uint256)": {
        "details": "get MarketAdminMember. Restricted to Admins.",
        "returns": {
          "_0": "MarketAdmin Member."
        }
      },
      "getMarketAdminsCount()": {
        "details": "get MarketAdminsCount. Restricted to Admins.",
        "returns": {
          "_0": "MarketAdmins Count."
        }
      },
      "getProduct(int256)": {
        "details": "Get a product.",
        "params": {
          "_productId": "ID of product to Get "
        }
      },
      "getProductCount()": {
        "details": "Get Product Count.",
        "returns": {
          "_0": "The count of the Products"
        }
      },
      "getRoleAdmin(bytes32)": {
        "details": "Returns the admin role that controls `role`. See {grantRole} and {revokeRole}.     * To change a role's admin, use {_setRoleAdmin}."
      },
      "getRoleMember(bytes32,uint256)": {
        "details": "Returns one of the accounts that have `role`. `index` must be a value between 0 and {getRoleMemberCount}, non-inclusive.     * Role bearers are not sorted in any particular way, and their ordering may change at any point.     * WARNING: When using {getRoleMember} and {getRoleMemberCount}, make sure you perform all queries on the same block. See the following https://forum.openzeppelin.com/t/iterating-over-elements-on-enumerableset-in-openzeppelin-contracts/2296[forum post] for more information."
      },
      "getRoleMemberCount(bytes32)": {
        "details": "Returns the number of accounts that have `role`. Can be used together with {getRoleMember} to enumerate all bearers of a role."
      },
      "getStore(int256)": {
        "details": "Get a Store.",
        "params": {
          "_storeId": "ID of Store to Get "
        }
      },
      "getStoreCount()": {
        "details": "Get Store Count.",
        "returns": {
          "_0": "The count of the stores"
        }
      },
      "getStoreOwnerMember(uint256)": {
        "details": "get StoreOwnerMember. Restricted to MarketAdmins.",
        "returns": {
          "_0": "StoreOwners Member."
        }
      },
      "getStoreOwnersCount()": {
        "details": "get MarketAdminsCount. Restricted to MarketAdmins.",
        "returns": {
          "_0": "StoreOwners Count."
        }
      },
      "grantRole(bytes32,address)": {
        "details": "Grants `role` to `account`.     * If `account` had not been already granted `role`, emits a {RoleGranted} event.     * Requirements:     * - the caller must have ``role``'s admin role."
      },
      "hasRole(bytes32,address)": {
        "details": "Returns `true` if `account` has been granted `role`."
      },
      "isAdmin(address)": {
        "details": "Return `true` if the account belongs to the admin role.",
        "params": {
          "account": "address of account to check is admin."
        }
      },
      "isMarketAdmin(address)": {
        "details": "Return `true` if the account belongs to the MarketAdmin role.",
        "params": {
          "account": "address of account to check is MarketAdmin."
        }
      },
      "isStoreOwner(address)": {
        "details": "Return `true` if the account belongs to the StoreOwner role.",
        "params": {
          "account": "address of account to check is StoreOwner."
        }
      },
      "paused()": {
        "details": "Returns true if the contract is paused, and false otherwise."
      },
      "purchaseProduct(int256)": {
        "details": "Purchase a product.",
        "params": {
          "_productId": "ID of product to Purchase "
        },
        "returns": {
          "_0": "The Product Purchased"
        }
      },
      "removeMarketAdmin(address)": {
        "details": "Remove an account from the MarketAdmin role. Restricted to admins.",
        "params": {
          "account": "address of account to Remove."
        }
      },
      "removeProduct(int256,int256)": {
        "details": "Removes a product.",
        "params": {
          "_productId": "ID of product to remove ",
          "_storeId": "Store ID for product to remove "
        }
      },
      "removeStore(int256)": {
        "details": "Remove a Store.",
        "params": {
          "_storeId": "ID of Store to Remove "
        }
      },
      "removeStoreOwner(address)": {
        "details": "Remove an account from the StoreOwner role. Restricted to MarketAdmins.",
        "params": {
          "account": "address of account to Remove."
        }
      },
      "removeStoreProducts(int256)": {
        "details": "Removes products from store.",
        "params": {
          "_storeId": "Storefront ID for products to remove "
        }
      },
      "renounceAdmin()": {
        "details": "Remove oneself from the admin role."
      },
      "renounceRole(bytes32,address)": {
        "details": "Revokes `role` from the calling account.     * Roles are often managed via {grantRole} and {revokeRole}: this function's purpose is to provide a mechanism for accounts to lose their privileges if they are compromised (such as when a trusted device is misplaced).     * If the calling account had been granted `role`, emits a {RoleRevoked} event.     * Requirements:     * - the caller must be `account`."
      },
      "revokeRole(bytes32,address)": {
        "details": "Revokes `role` from `account`.     * If `account` had been granted `role`, emits a {RoleRevoked} event.     * Requirements:     * - the caller must have ``role``'s admin role."
      },
      "updateProduct(int256,uint256,int256)": {
        "details": "update a product.",
        "params": {
          "_price": "New Price ID for product ",
          "_productId": "ID of product to Update ",
          "_storeId": "Store ID for product to Update "
        }
      },
      "withdrawStoreBalance(int256)": {
        "details": "Withdraw The Store Balance.",
        "params": {
          "_storeId": "ID of Store to Withdraw "
        },
        "returns": {
          "_0": "The Withdraw Done"
        }
      }
    },
    "title": "A simulator for Market Place"
  },
  "userdoc": {
    "methods": {},
    "notice": "You can use this contract for only the most basic simulation"
  }
}