{
  "contractName": "Marketplace",
  "abi": [
    {
      "inputs": [],
      "stateMutability": "nonpayable",
      "type": "constructor"
    },
    {
      "anonymous": false,
      "inputs": [
        {
          "indexed": false,
          "internalType": "int32",
          "name": "id",
          "type": "int32"
        }
      ],
      "name": "LogForSale",
      "type": "event"
    },
    {
      "anonymous": false,
      "inputs": [
        {
          "indexed": false,
          "internalType": "int32",
          "name": "id",
          "type": "int32"
        },
        {
          "indexed": false,
          "internalType": "uint256",
          "name": "oldPrice",
          "type": "uint256"
        },
        {
          "indexed": false,
          "internalType": "uint256",
          "name": "newPrice",
          "type": "uint256"
        }
      ],
      "name": "LogPriceUpdated",
      "type": "event"
    },
    {
      "anonymous": false,
      "inputs": [
        {
          "indexed": false,
          "internalType": "int32",
          "name": "id",
          "type": "int32"
        },
        {
          "indexed": false,
          "internalType": "string",
          "name": "name",
          "type": "string"
        },
        {
          "indexed": false,
          "internalType": "uint256",
          "name": "price",
          "type": "uint256"
        },
        {
          "indexed": false,
          "internalType": "int32",
          "name": "storeId",
          "type": "int32"
        }
      ],
      "name": "LogProductAdded",
      "type": "event"
    },
    {
      "anonymous": false,
      "inputs": [
        {
          "indexed": false,
          "internalType": "int32",
          "name": "id",
          "type": "int32"
        }
      ],
      "name": "LogSold",
      "type": "event"
    },
    {
      "anonymous": false,
      "inputs": [
        {
          "indexed": false,
          "internalType": "int32",
          "name": "id",
          "type": "int32"
        },
        {
          "indexed": false,
          "internalType": "string",
          "name": "name",
          "type": "string"
        },
        {
          "indexed": false,
          "internalType": "address",
          "name": "owner",
          "type": "address"
        },
        {
          "indexed": false,
          "internalType": "uint256",
          "name": "balance",
          "type": "uint256"
        }
      ],
      "name": "LogStoreAdded",
      "type": "event"
    },
    {
      "anonymous": false,
      "inputs": [
        {
          "indexed": false,
          "internalType": "int32",
          "name": "storeId",
          "type": "int32"
        },
        {
          "indexed": false,
          "internalType": "uint256",
          "name": "amount",
          "type": "uint256"
        }
      ],
      "name": "LogWithdrawStoreBalance",
      "type": "event"
    },
    {
      "anonymous": false,
      "inputs": [
        {
          "indexed": false,
          "internalType": "address",
          "name": "account",
          "type": "address"
        }
      ],
      "name": "Paused",
      "type": "event"
    },
    {
      "anonymous": false,
      "inputs": [
        {
          "indexed": false,
          "internalType": "int32",
          "name": "_productId",
          "type": "int32"
        }
      ],
      "name": "ProductRemoved",
      "type": "event"
    },
    {
      "anonymous": false,
      "inputs": [
        {
          "indexed": false,
          "internalType": "int32",
          "name": "_storeId",
          "type": "int32"
        }
      ],
      "name": "ProductsRemoved",
      "type": "event"
    },
    {
      "anonymous": false,
      "inputs": [
        {
          "indexed": true,
          "internalType": "bytes32",
          "name": "role",
          "type": "bytes32"
        },
        {
          "indexed": true,
          "internalType": "bytes32",
          "name": "previousAdminRole",
          "type": "bytes32"
        },
        {
          "indexed": true,
          "internalType": "bytes32",
          "name": "newAdminRole",
          "type": "bytes32"
        }
      ],
      "name": "RoleAdminChanged",
      "type": "event"
    },
    {
      "anonymous": false,
      "inputs": [
        {
          "indexed": true,
          "internalType": "bytes32",
          "name": "role",
          "type": "bytes32"
        },
        {
          "indexed": true,
          "internalType": "address",
          "name": "account",
          "type": "address"
        },
        {
          "indexed": true,
          "internalType": "address",
          "name": "sender",
          "type": "address"
        }
      ],
      "name": "RoleGranted",
      "type": "event"
    },
    {
      "anonymous": false,
      "inputs": [
        {
          "indexed": true,
          "internalType": "bytes32",
          "name": "role",
          "type": "bytes32"
        },
        {
          "indexed": true,
          "internalType": "address",
          "name": "account",
          "type": "address"
        },
        {
          "indexed": true,
          "internalType": "address",
          "name": "sender",
          "type": "address"
        }
      ],
      "name": "RoleRevoked",
      "type": "event"
    },
    {
      "anonymous": false,
      "inputs": [
        {
          "indexed": false,
          "internalType": "int32",
          "name": "_storeId",
          "type": "int32"
        }
      ],
      "name": "StoreRemoved",
      "type": "event"
    },
    {
      "anonymous": false,
      "inputs": [
        {
          "indexed": false,
          "internalType": "address",
          "name": "account",
          "type": "address"
        }
      ],
      "name": "Unpaused",
      "type": "event"
    },
    {
      "inputs": [],
      "name": "DEFAULT_ADMIN_ROLE",
      "outputs": [
        {
          "internalType": "bytes32",
          "name": "",
          "type": "bytes32"
        }
      ],
      "stateMutability": "view",
      "type": "function"
    },
    {
      "inputs": [],
      "name": "MARKET_ADMIN_ROLE",
      "outputs": [
        {
          "internalType": "bytes32",
          "name": "",
          "type": "bytes32"
        }
      ],
      "stateMutability": "view",
      "type": "function"
    },
    {
      "inputs": [],
      "name": "STORE_OWNER_ROLE",
      "outputs": [
        {
          "internalType": "bytes32",
          "name": "",
          "type": "bytes32"
        }
      ],
      "stateMutability": "view",
      "type": "function"
    },
    {
      "inputs": [
        {
          "internalType": "address",
          "name": "account",
          "type": "address"
        }
      ],
      "name": "addAdmin",
      "outputs": [],
      "stateMutability": "nonpayable",
      "type": "function"
    },
    {
      "inputs": [
        {
          "internalType": "address",
          "name": "account",
          "type": "address"
        }
      ],
      "name": "addMarketAdmin",
      "outputs": [],
      "stateMutability": "nonpayable",
      "type": "function"
    },
    {
      "inputs": [
        {
          "internalType": "address",
          "name": "account",
          "type": "address"
        }
      ],
      "name": "addStoreOwner",
      "outputs": [],
      "stateMutability": "nonpayable",
      "type": "function"
    },
    {
      "inputs": [
        {
          "internalType": "uint256",
          "name": "index",
          "type": "uint256"
        }
      ],
      "name": "getMarketAdminMember",
      "outputs": [
        {
          "internalType": "address",
          "name": "",
          "type": "address"
        }
      ],
      "stateMutability": "view",
      "type": "function"
    },
    {
      "inputs": [],
      "name": "getMarketAdminsCount",
      "outputs": [
        {
          "internalType": "uint256",
          "name": "",
          "type": "uint256"
        }
      ],
      "stateMutability": "view",
      "type": "function"
    },
    {
      "inputs": [
        {
          "internalType": "bytes32",
          "name": "role",
          "type": "bytes32"
        }
      ],
      "name": "getRoleAdmin",
      "outputs": [
        {
          "internalType": "bytes32",
          "name": "",
          "type": "bytes32"
        }
      ],
      "stateMutability": "view",
      "type": "function"
    },
    {
      "inputs": [
        {
          "internalType": "bytes32",
          "name": "role",
          "type": "bytes32"
        },
        {
          "internalType": "uint256",
          "name": "index",
          "type": "uint256"
        }
      ],
      "name": "getRoleMember",
      "outputs": [
        {
          "internalType": "address",
          "name": "",
          "type": "address"
        }
      ],
      "stateMutability": "view",
      "type": "function"
    },
    {
      "inputs": [
        {
          "internalType": "bytes32",
          "name": "role",
          "type": "bytes32"
        }
      ],
      "name": "getRoleMemberCount",
      "outputs": [
        {
          "internalType": "uint256",
          "name": "",
          "type": "uint256"
        }
      ],
      "stateMutability": "view",
      "type": "function"
    },
    {
      "inputs": [
        {
          "internalType": "uint256",
          "name": "index",
          "type": "uint256"
        }
      ],
      "name": "getStoreOwnerMember",
      "outputs": [
        {
          "internalType": "address",
          "name": "",
          "type": "address"
        }
      ],
      "stateMutability": "view",
      "type": "function"
    },
    {
      "inputs": [],
      "name": "getStoreOwnersCount",
      "outputs": [
        {
          "internalType": "uint256",
          "name": "",
          "type": "uint256"
        }
      ],
      "stateMutability": "view",
      "type": "function"
    },
    {
      "inputs": [
        {
          "internalType": "bytes32",
          "name": "role",
          "type": "bytes32"
        },
        {
          "internalType": "address",
          "name": "account",
          "type": "address"
        }
      ],
      "name": "grantRole",
      "outputs": [],
      "stateMutability": "nonpayable",
      "type": "function"
    },
    {
      "inputs": [
        {
          "internalType": "bytes32",
          "name": "role",
          "type": "bytes32"
        },
        {
          "internalType": "address",
          "name": "account",
          "type": "address"
        }
      ],
      "name": "hasRole",
      "outputs": [
        {
          "internalType": "bool",
          "name": "",
          "type": "bool"
        }
      ],
      "stateMutability": "view",
      "type": "function"
    },
    {
      "inputs": [
        {
          "internalType": "address",
          "name": "account",
          "type": "address"
        }
      ],
      "name": "isAdmin",
      "outputs": [
        {
          "internalType": "bool",
          "name": "",
          "type": "bool"
        }
      ],
      "stateMutability": "view",
      "type": "function"
    },
    {
      "inputs": [
        {
          "internalType": "address",
          "name": "account",
          "type": "address"
        }
      ],
      "name": "isMarketAdmin",
      "outputs": [
        {
          "internalType": "bool",
          "name": "",
          "type": "bool"
        }
      ],
      "stateMutability": "view",
      "type": "function"
    },
    {
      "inputs": [
        {
          "internalType": "address",
          "name": "account",
          "type": "address"
        }
      ],
      "name": "isStoreOwner",
      "outputs": [
        {
          "internalType": "bool",
          "name": "",
          "type": "bool"
        }
      ],
      "stateMutability": "view",
      "type": "function"
    },
    {
      "inputs": [],
      "name": "paused",
      "outputs": [
        {
          "internalType": "bool",
          "name": "",
          "type": "bool"
        }
      ],
      "stateMutability": "view",
      "type": "function"
    },
    {
      "inputs": [
        {
          "internalType": "address",
          "name": "account",
          "type": "address"
        }
      ],
      "name": "removeMarketAdmin",
      "outputs": [],
      "stateMutability": "nonpayable",
      "type": "function"
    },
    {
      "inputs": [
        {
          "internalType": "address",
          "name": "account",
          "type": "address"
        }
      ],
      "name": "removeStoreOwner",
      "outputs": [],
      "stateMutability": "nonpayable",
      "type": "function"
    },
    {
      "inputs": [],
      "name": "renounceAdmin",
      "outputs": [],
      "stateMutability": "nonpayable",
      "type": "function"
    },
    {
      "inputs": [
        {
          "internalType": "bytes32",
          "name": "role",
          "type": "bytes32"
        },
        {
          "internalType": "address",
          "name": "account",
          "type": "address"
        }
      ],
      "name": "renounceRole",
      "outputs": [],
      "stateMutability": "nonpayable",
      "type": "function"
    },
    {
      "inputs": [
        {
          "internalType": "bytes32",
          "name": "role",
          "type": "bytes32"
        },
        {
          "internalType": "address",
          "name": "account",
          "type": "address"
        }
      ],
      "name": "revokeRole",
      "outputs": [],
      "stateMutability": "nonpayable",
      "type": "function"
    },
    {
      "inputs": [
        {
          "internalType": "string",
          "name": "_name",
          "type": "string"
        }
      ],
      "name": "addStore",
      "outputs": [],
      "stateMutability": "nonpayable",
      "type": "function"
    },
    {
      "inputs": [],
      "name": "getStoreCount",
      "outputs": [
        {
          "internalType": "int32",
          "name": "",
          "type": "int32"
        }
      ],
      "stateMutability": "view",
      "type": "function"
    },
    {
      "inputs": [
        {
          "internalType": "int32",
          "name": "_storeId",
          "type": "int32"
        }
      ],
      "name": "getStore",
      "outputs": [
        {
          "internalType": "int32",
          "name": "id",
          "type": "int32"
        },
        {
          "internalType": "string",
          "name": "name",
          "type": "string"
        },
        {
          "internalType": "address",
          "name": "owner",
          "type": "address"
        },
        {
          "internalType": "uint256",
          "name": "balance",
          "type": "uint256"
        }
      ],
      "stateMutability": "view",
      "type": "function"
    },
    {
      "inputs": [
        {
          "internalType": "int32",
          "name": "_storeId",
          "type": "int32"
        }
      ],
      "name": "removeStore",
      "outputs": [],
      "stateMutability": "nonpayable",
      "type": "function"
    },
    {
      "inputs": [
        {
          "internalType": "string",
          "name": "_name",
          "type": "string"
        },
        {
          "internalType": "uint256",
          "name": "_price",
          "type": "uint256"
        },
        {
          "internalType": "int32",
          "name": "_storeId",
          "type": "int32"
        }
      ],
      "name": "addProduct",
      "outputs": [
        {
          "internalType": "bool",
          "name": "",
          "type": "bool"
        }
      ],
      "stateMutability": "nonpayable",
      "type": "function"
    },
    {
      "inputs": [
        {
          "internalType": "int32",
          "name": "_productId",
          "type": "int32"
        }
      ],
      "name": "getProduct",
      "outputs": [
        {
          "internalType": "int32",
          "name": "",
          "type": "int32"
        },
        {
          "internalType": "string",
          "name": "",
          "type": "string"
        },
        {
          "internalType": "uint256",
          "name": "",
          "type": "uint256"
        },
        {
          "internalType": "int32",
          "name": "",
          "type": "int32"
        }
      ],
      "stateMutability": "view",
      "type": "function"
    },
    {
      "inputs": [],
      "name": "getProductCount",
      "outputs": [
        {
          "internalType": "int32",
          "name": "",
          "type": "int32"
        }
      ],
      "stateMutability": "view",
      "type": "function"
    },
    {
      "inputs": [
        {
          "internalType": "int32",
          "name": "_productId",
          "type": "int32"
        },
        {
          "internalType": "uint256",
          "name": "_price",
          "type": "uint256"
        },
        {
          "internalType": "int32",
          "name": "_storeId",
          "type": "int32"
        }
      ],
      "name": "updateProduct",
      "outputs": [],
      "stateMutability": "nonpayable",
      "type": "function"
    },
    {
      "inputs": [
        {
          "internalType": "int32",
          "name": "_productId",
          "type": "int32"
        },
        {
          "internalType": "int32",
          "name": "_storeId",
          "type": "int32"
        }
      ],
      "name": "removeProduct",
      "outputs": [],
      "stateMutability": "nonpayable",
      "type": "function"
    },
    {
      "inputs": [
        {
          "internalType": "int32",
          "name": "_storeId",
          "type": "int32"
        }
      ],
      "name": "removeStoreProducts",
      "outputs": [],
      "stateMutability": "nonpayable",
      "type": "function"
    },
    {
      "inputs": [
        {
          "internalType": "int32",
          "name": "_productId",
          "type": "int32"
        }
      ],
      "name": "purchaseProduct",
      "outputs": [
        {
          "internalType": "bool",
          "name": "",
          "type": "bool"
        }
      ],
      "stateMutability": "payable",
      "type": "function"
    },
    {
      "inputs": [
        {
          "internalType": "int32",
          "name": "_storeId",
          "type": "int32"
        }
      ],
      "name": "withdrawStoreBalance",
      "outputs": [
        {
          "internalType": "bool",
          "name": "",
          "type": "bool"
        }
      ],
      "stateMutability": "payable",
      "type": "function"
    },
    {
      "inputs": [],
      "name": "getBalance",
      "outputs": [
        {
          "internalType": "uint256",
          "name": "",
          "type": "uint256"
        }
      ],
      "stateMutability": "view",
      "type": "function"
    }
  ],
  "bytecode": "0x60806040523480156200001157600080fd5b50620000276000801b336200023b60201b60201c565b6200007160405180807f4d41524b45545f41444d494e5f524f4c45000000000000000000000000000000815250601101905060405180910390206000801b6200025160201b60201c565b620000ed60405180807f53544f52455f4f574e4552000000000000000000000000000000000000000000815250600b019050604051809103902060405180807f4d41524b45545f41444d494e5f524f4c45000000000000000000000000000000815250601101905060405180910390206200025160201b60201c565b6000600160006101000a81548160ff0219169083151502179055506001600281905550620001256000801b336200023b60201b60201c565b6200016f60405180807f4d41524b45545f41444d494e5f524f4c45000000000000000000000000000000815250601101905060405180910390206000801b6200025160201b60201c565b620001eb60405180807f53544f52455f4f574e4552000000000000000000000000000000000000000000815250600b019050604051809103902060405180807f4d41524b45545f41444d494e5f524f4c45000000000000000000000000000000815250601101905060405180910390206200025160201b60201c565b6000600560006101000a81548163ffffffff021916908360030b63ffffffff1602179055506000600560046101000a81548163ffffffff021916908360030b63ffffffff16021790555062000433565b6200024d8282620002b360201b60201c565b5050565b8060008084815260200190815260200160002060020154837fbd79b86ffe0ab8e8776151514217cd7cacd52c909f66475c3af44e129f0b00ff60405160405180910390a480600080848152602001908152602001600020600201819055505050565b620002e1816000808581526020019081526020016000206000016200035660201b620033b21790919060201c565b156200035257620002f76200038e60201b60201c565b73ffffffffffffffffffffffffffffffffffffffff168173ffffffffffffffffffffffffffffffffffffffff16837f2f8788117e7eff1d82e926ec794901d17c78024a50270940304540a733656f0d60405160405180910390a45b5050565b600062000386836000018373ffffffffffffffffffffffffffffffffffffffff1660001b6200039660201b60201c565b905092915050565b600033905090565b6000620003aa83836200041060201b60201c565b620004055782600001829080600181540180825580915050600190039060005260206000200160009091909190915055826000018054905083600101600084815260200190815260200160002081905550600190506200040a565b600090505b92915050565b600080836001016000848152602001908152602001600020541415905092915050565b6137f480620004436000396000f3fe60806040526004361061021a5760003560e01c80639010d07c11610123578063b38f668b116100ab578063d547741f1161006f578063d547741f14610d8c578063d6f0d39f14610de7578063e5fc39a214610e12578063ece768ea14610eea578063f3c93a9214610f285761021a565b8063b38f668b14610b2f578063b9dc5a9514610b80578063be5610b914610c77578063c4d6ea1614610cf2578063ca15c87314610d3d5761021a565b806398e8bd97116100f257806398e8bd97146109ee5780639adeb5f114610a1f5780639d4cca8e14610a70578063a217fddf14610a9b578063a845925d14610ac65761021a565b80639010d07c1461088d57806390f8ef961461091257806391d148541461095057806395e81428146109c35761021a565b80635effd33c116101a65780637048027511610175578063704802751461068957806377e180f2146106da57806379d91d59146107235780637b23adb8146107785780638bad0c0a146108765761021a565b80635effd33c146104dc5780636174fdd114610545578063662feffc146105965780636adaabb61461065e5761021a565b8063284e9005116101ed578063284e90051461037d5780632f2ff15d146103c657806336568abe146104215780634a348da91461047c5780635c975abb146104ad5761021a565b8063057a711e1461021f57806312065fe01461029a578063248a9ca3146102c557806324d7806c14610314575b600080fd5b34801561022b57600080fd5b506102586004803603602081101561024257600080fd5b8101908080359060200190929190505050610f79565b604051808273ffffffffffffffffffffffffffffffffffffffff1673ffffffffffffffffffffffffffffffffffffffff16815260200191505060405180910390f35b3480156102a657600080fd5b506102af610fc1565b6040518082815260200191505060405180910390f35b3480156102d157600080fd5b506102fe600480360360208110156102e857600080fd5b8101908080359060200190929190505050610fc9565b6040518082815260200191505060405180910390f35b34801561032057600080fd5b506103636004803603602081101561033757600080fd5b81019080803573ffffffffffffffffffffffffffffffffffffffff169060200190929190505050610fe8565b604051808215151515815260200191505060405180910390f35b6103ac6004803603602081101561039357600080fd5b81019080803560030b9060200190929190505050610ffe565b604051808215151515815260200191505060405180910390f35b3480156103d257600080fd5b5061041f600480360360408110156103e957600080fd5b8101908080359060200190929190803573ffffffffffffffffffffffffffffffffffffffff169060200190929190505050611322565b005b34801561042d57600080fd5b5061047a6004803603604081101561044457600080fd5b8101908080359060200190929190803573ffffffffffffffffffffffffffffffffffffffff1690602001909291905050506113ab565b005b34801561048857600080fd5b50610491611444565b604051808260030b60030b815260200191505060405180910390f35b3480156104b957600080fd5b506104c261145b565b604051808215151515815260200191505060405180910390f35b3480156104e857600080fd5b5061052b600480360360208110156104ff57600080fd5b81019080803573ffffffffffffffffffffffffffffffffffffffff169060200190929190505050611472565b604051808215151515815260200191505060405180910390f35b34801561055157600080fd5b506105946004803603602081101561056857600080fd5b81019080803573ffffffffffffffffffffffffffffffffffffffff1690602001909291905050506114ba565b005b3480156105a257600080fd5b5061065c600480360360208110156105b957600080fd5b81019080803590602001906401000000008111156105d657600080fd5b8201836020820111156105e857600080fd5b8035906020019184600183028401116401000000008311171561060a57600080fd5b91908080601f016020809104026020016040519081016040528093929190818152602001838380828437600081840152601f19601f820116905080830192505050505050509192919290505050611577565b005b34801561066a57600080fd5b506106736118b2565b6040518082815260200191505060405180910390f35b34801561069557600080fd5b506106d8600480360360208110156106ac57600080fd5b81019080803573ffffffffffffffffffffffffffffffffffffffff1690602001909291905050506118eb565b005b610709600480360360208110156106f057600080fd5b81019080803560030b9060200190929190505050611976565b604051808215151515815260200191505060405180910390f35b34801561072f57600080fd5b506107766004803603606081101561074657600080fd5b81019080803560030b906020019092919080359060200190929190803560030b9060200190929190505050611bff565b005b34801561078457600080fd5b506107b46004803603602081101561079b57600080fd5b81019080803560030b9060200190929190505050611e71565b604051808560030b60030b8152602001806020018473ffffffffffffffffffffffffffffffffffffffff1673ffffffffffffffffffffffffffffffffffffffff168152602001838152602001828103825285818151815260200191508051906020019080838360005b8381101561083857808201518184015260208101905061081d565b50505050905090810190601f1680156108655780820380516001836020036101000a031916815260200191505b509550505050505060405180910390f35b34801561088257600080fd5b5061088b611fa0565b005b34801561089957600080fd5b506108d0600480360360408110156108b057600080fd5b810190808035906020019092919080359060200190929190505050611faf565b604051808273ffffffffffffffffffffffffffffffffffffffff1673ffffffffffffffffffffffffffffffffffffffff16815260200191505060405180910390f35b34801561091e57600080fd5b5061094e6004803603602081101561093557600080fd5b81019080803560030b9060200190929190505050611fe0565b005b34801561095c57600080fd5b506109a96004803603604081101561097357600080fd5b8101908080359060200190929190803573ffffffffffffffffffffffffffffffffffffffff169060200190929190505050612388565b604051808215151515815260200191505060405180910390f35b3480156109cf57600080fd5b506109d86123b9565b6040518082815260200191505060405180910390f35b3480156109fa57600080fd5b50610a036123fe565b604051808260030b60030b815260200191505060405180910390f35b348015610a2b57600080fd5b50610a6e60048036036020811015610a4257600080fd5b81019080803573ffffffffffffffffffffffffffffffffffffffff169060200190929190505050612415565b005b348015610a7c57600080fd5b50610a856124d2565b6040518082815260200191505060405180910390f35b348015610aa757600080fd5b50610ab0612517565b6040518082815260200191505060405180910390f35b348015610ad257600080fd5b50610b1560048036036020811015610ae957600080fd5b81019080803573ffffffffffffffffffffffffffffffffffffffff16906020019092919050505061251e565b604051808215151515815260200191505060405180910390f35b348015610b3b57600080fd5b50610b7e60048036036020811015610b5257600080fd5b81019080803573ffffffffffffffffffffffffffffffffffffffff169060200190929190505050612566565b005b348015610b8c57600080fd5b50610c5d60048036036060811015610ba357600080fd5b8101908080359060200190640100000000811115610bc057600080fd5b820183602082011115610bd257600080fd5b80359060200191846001830284011164010000000083111715610bf457600080fd5b91908080601f016020809104026020016040519081016040528093929190818152602001838380828437600081840152601f19601f82011690508083019250505050505050919291929080359060200190929190803560030b9060200190929190505050612623565b604051808215151515815260200191505060405180910390f35b348015610c8357600080fd5b50610cb060048036036020811015610c9a57600080fd5b8101908080359060200190929190505050612a5e565b604051808273ffffffffffffffffffffffffffffffffffffffff1673ffffffffffffffffffffffffffffffffffffffff16815260200191505060405180910390f35b348015610cfe57600080fd5b50610d3b60048036036040811015610d1557600080fd5b81019080803560030b9060200190929190803560030b9060200190929190505050612aa6565b005b348015610d4957600080fd5b50610d7660048036036020811015610d6057600080fd5b8101908080359060200190929190505050612d88565b6040518082815260200191505060405180910390f35b348015610d9857600080fd5b50610de560048036036040811015610daf57600080fd5b8101908080359060200190929190803573ffffffffffffffffffffffffffffffffffffffff169060200190929190505050612dae565b005b348015610df357600080fd5b50610dfc612e37565b6040518082815260200191505060405180910390f35b348015610e1e57600080fd5b50610e4e60048036036020811015610e3557600080fd5b81019080803560030b9060200190929190505050612e70565b604051808560030b60030b8152602001806020018481526020018360030b60030b8152602001828103825285818151815260200191508051906020019080838360005b83811015610eac578082015181840152602081019050610e91565b50505050905090810190601f168015610ed95780820380516001836020036101000a031916815260200191505b509550505050505060405180910390f35b348015610ef657600080fd5b50610f2660048036036020811015610f0d57600080fd5b81019080803560030b9060200190929190505050612faf565b005b348015610f3457600080fd5b50610f7760048036036020811015610f4b57600080fd5b81019080803573ffffffffffffffffffffffffffffffffffffffff169060200190929190505050613168565b005b6000610fba60405180807f53544f52455f4f574e4552000000000000000000000000000000000000000000815250600b019050604051809103902083611faf565b9050919050565b600047905090565b6000806000838152602001908152602001600020600201549050919050565b6000610ff76000801b83612388565b9050919050565b6000816000600181111561100e57fe5b600460008360030b60030b815260200190815260200160002060030160049054906101000a900460ff16600181111561104357fe5b14801561106d57506000600460008360030b60030b81526020019081526020016000206002015410155b61107657600080fd5b600460008460030b60030b815260200190815260200160002060020154803410156110a057600080fd5b83600160009054906101000a900460ff1615611124576040517f08c379a00000000000000000000000000000000000000000000000000000000081526004018080602001828103825260108152602001807f5061757361626c653a207061757365640000000000000000000000000000000081525060200191505060405180910390fd5b33600460008760030b60030b815260200190815260200160002060040160006101000a81548173ffffffffffffffffffffffffffffffffffffffff021916908373ffffffffffffffffffffffffffffffffffffffff1602179055506001600460008760030b60030b815260200190815260200160002060030160046101000a81548160ff021916908360018111156111b857fe5b0217905550600460008660030b60030b81526020019081526020016000206002015460036000600460008960030b60030b815260200190815260200160002060030160009054906101000a900460030b60030b60030b8152602001908152602001600020600301600082825401925050819055507f35f1e222ba9436989de77a620f7f3846801c633a6daa7c8330cc2881afed21bb85604051808260030b60030b815260200191505060405180910390a1600193506000600460008360030b60030b815260200190815260200160002060020154905060008134039050600460008460030b60030b815260200190815260200160002060040160009054906101000a900473ffffffffffffffffffffffffffffffffffffffff1673ffffffffffffffffffffffffffffffffffffffff166108fc829081150290604051600060405180830381858888f19350505050158015611317573d6000803e3d6000fd5b505050505050919050565b61134860008084815260200190815260200160002060020154611343613225565b612388565b61139d576040517f08c379a000000000000000000000000000000000000000000000000000000000815260040180806020018281038252602f815260200180613731602f913960400191505060405180910390fd5b6113a7828261322d565b5050565b6113b3613225565b73ffffffffffffffffffffffffffffffffffffffff168173ffffffffffffffffffffffffffffffffffffffff1614611436576040517f08c379a000000000000000000000000000000000000000000000000000000000815260040180806020018281038252602f815260200180613790602f913960400191505060405180910390fd5b61144082826132c0565b5050565b6000600560009054906101000a900460030b905090565b6000600160009054906101000a900460ff16905090565b60006114b360405180807f53544f52455f4f574e4552000000000000000000000000000000000000000000815250600b019050604051809103902083612388565b9050919050565b6114c33361251e565b611535576040517f08c379a000000000000000000000000000000000000000000000000000000000815260040180806020018281038252601a8152602001807f5265737472696374656420746f204d61726b657441646d696e2e00000000000081525060200191505060405180910390fd5b61157460405180807f53544f52455f4f574e4552000000000000000000000000000000000000000000815250600b019050604051809103902082612dae565b50565b61158033611472565b6115f2576040517f08c379a00000000000000000000000000000000000000000000000000000000081526004018080602001828103825260198152602001807f5265737472696374656420746f2053746f72654f776e65722e0000000000000081525060200191505060405180910390fd5b600160009054906101000a900460ff1615611675576040517f08c379a00000000000000000000000000000000000000000000000000000000081526004018080602001828103825260108152602001807f5061757361626c653a207061757365640000000000000000000000000000000081525060200191505060405180910390fd5b6040518060800160405280600560049054906101000a900460030b60030b81526020018281526020013373ffffffffffffffffffffffffffffffffffffffff168152602001600081525060036000600560049054906101000a900460030b60030b60030b815260200190815260200160002060008201518160000160006101000a81548163ffffffff021916908360030b63ffffffff160217905550602082015181600101908051906020019061172d929190613621565b5060408201518160020160006101000a81548173ffffffffffffffffffffffffffffffffffffffff021916908373ffffffffffffffffffffffffffffffffffffffff160217905550606082015181600301559050506001600560048282829054906101000a900460030b0192506101000a81548163ffffffff021916908360030b63ffffffff1602179055507f679bd0bc274fe4212bc9b7cedcef9325b3ef82647b3fb776c37e432927934ceb600560049054906101000a900460030b82336000604051808560030b60030b8152602001806020018473ffffffffffffffffffffffffffffffffffffffff1673ffffffffffffffffffffffffffffffffffffffff168152602001838152602001828103825285818151815260200191508051906020019080838360005b83811015611872578082015181840152602081019050611857565b50505050905090810190601f16801561189f5780820380516001836020036101000a031916815260200191505b509550505050505060405180910390a150565b60405180807f53544f52455f4f574e4552000000000000000000000000000000000000000000815250600b019050604051809103902081565b6118f433610fe8565b611966576040517f08c379a00000000000000000000000000000000000000000000000000000000081526004018080602001828103825260158152602001807f5265737472696374656420746f2061646d696e732e000000000000000000000081525060200191505060405180910390fd5b6119736000801b82611322565b50565b600061198133611472565b6119f3576040517f08c379a00000000000000000000000000000000000000000000000000000000081526004018080602001828103825260198152602001807f5265737472696374656420746f2053746f72654f776e65722e0000000000000081525060200191505060405180910390fd5b600160009054906101000a900460ff1615611a76576040517f08c379a00000000000000000000000000000000000000000000000000000000081526004018080602001828103825260108152602001807f5061757361626c653a207061757365640000000000000000000000000000000081525060200191505060405180910390fd5b600280541415611aee576040517f08c379a000000000000000000000000000000000000000000000000000000000815260040180806020018281038252601f8152602001807f5265656e7472616e637947756172643a207265656e7472616e742063616c6c0081525060200191505060405180910390fd5b600280819055506000600360008460030b60030b81526020019081526020016000206003015411611b1e57600080fd5b6000600360008460030b60030b81526020019081526020016000206003015490506000600360008560030b60030b8152602001908152602001600020600301819055503373ffffffffffffffffffffffffffffffffffffffff166108fc829081150290604051600060405180830381858888f19350505050158015611ba7573d6000803e3d6000fd5b507fbd11dffb90cd461d3bfa786f4b7e04707b6c5829d6a66cd23cc48c81b38c281f8382604051808360030b60030b81526020018281526020019250505060405180910390a160019150506001600281905550919050565b611c0833611472565b611c7a576040517f08c379a00000000000000000000000000000000000000000000000000000000081526004018080602001828103825260198152602001807f5265737472696374656420746f2053746f72654f776e65722e0000000000000081525060200191505060405180910390fd5b803373ffffffffffffffffffffffffffffffffffffffff16600360008360030b60030b815260200190815260200160002060020160009054906101000a900473ffffffffffffffffffffffffffffffffffffffff1673ffffffffffffffffffffffffffffffffffffffff1614611d58576040517f08c379a00000000000000000000000000000000000000000000000000000000081526004018080602001828103825260198152602001807f5265737472696374656420746f2053746f72654f776e65722e0000000000000081525060200191505060405180910390fd5b600160009054906101000a900460ff1615611ddb576040517f08c379a00000000000000000000000000000000000000000000000000000000081526004018080602001828103825260108152602001807f5061757361626c653a207061757365640000000000000000000000000000000081525060200191505060405180910390fd5b6000600460008660030b60030b815260200190815260200160002060020154905083600460008760030b60030b8152602001908152602001600020600201819055507ff27d7b5a487cd2bcb7591f1d0aafe5fa65d49b5405cff916574ba773dda46723858286604051808460030b60030b8152602001838152602001828152602001935050505060405180910390a15050505050565b60006060600080600360008660030b60030b81526020019081526020016000206001018054600181600116156101000203166002900480601f016020809104026020016040519081016040528092919081815260200182805460018160011615610100020316600290048015611f285780601f10611efd57610100808354040283529160200191611f28565b820191906000526020600020905b815481529060010190602001808311611f0b57829003601f168201915b50505050509250600360008660030b60030b815260200190815260200160002060020160009054906101000a900473ffffffffffffffffffffffffffffffffffffffff169150600360008660030b60030b81526020019081526020016000206003015490508483838393509350935093509193509193565b611fad6000801b336113ab565b565b6000611fd88260008086815260200190815260200160002060000161335390919063ffffffff16565b905092915050565b611fe933611472565b61205b576040517f08c379a00000000000000000000000000000000000000000000000000000000081526004018080602001828103825260198152602001807f5265737472696374656420746f2053746f72654f776e65722e0000000000000081525060200191505060405180910390fd5b803373ffffffffffffffffffffffffffffffffffffffff16600360008360030b60030b815260200190815260200160002060020160009054906101000a900473ffffffffffffffffffffffffffffffffffffffff1673ffffffffffffffffffffffffffffffffffffffff1614612139576040517f08c379a00000000000000000000000000000000000000000000000000000000081526004018080602001828103825260198152602001807f5265737472696374656420746f2053746f72654f776e65722e0000000000000081525060200191505060405180910390fd5b600160009054906101000a900460ff16156121bc576040517f08c379a00000000000000000000000000000000000000000000000000000000081526004018080602001828103825260108152602001807f5061757361626c653a207061757365640000000000000000000000000000000081525060200191505060405180910390fd5b60008090505b600560009054906101000a900460030b60030b8160030b1215612346578260030b600460008360030b60030b815260200190815260200160002060030160009054906101000a900460030b60030b141561234157600460008260030b60030b8152602001908152602001600020600080820160006101000a81549063ffffffff021916905560018201600061225791906136a1565b60028201600090556003820160006101000a81549063ffffffff02191690556003820160046101000a81549060ff02191690556003820160056101000a81549073ffffffffffffffffffffffffffffffffffffffff02191690556004820160006101000a81549073ffffffffffffffffffffffffffffffffffffffff021916905550507f0d5e110ab63ef94da0e5220f2fd7ca7cd47ad988685b640dae02e20e221d880c600460008360030b60030b815260200190815260200160002060000160009054906101000a900460030b604051808260030b60030b815260200191505060405180910390a15b6121c2565b507fd55a26df78b4d45f43c573300e95bb028a6550652585045b2ec2ca031ab164dc82604051808260030b60030b815260200191505060405180910390a15050565b60006123b18260008086815260200190815260200160002060000161336d90919063ffffffff16565b905092915050565b60006123f960405180807f4d41524b45545f41444d494e5f524f4c4500000000000000000000000000000081525060110190506040518091039020612d88565b905090565b6000600560049054906101000a900460030b905090565b61241e3361251e565b612490576040517f08c379a000000000000000000000000000000000000000000000000000000000815260040180806020018281038252601a8152602001807f5265737472696374656420746f204d61726b657441646d696e2e00000000000081525060200191505060405180910390fd5b6124cf60405180807f53544f52455f4f574e4552000000000000000000000000000000000000000000815250600b019050604051809103902082611322565b50565b600061251260405180807f53544f52455f4f574e4552000000000000000000000000000000000000000000815250600b0190506040518091039020612d88565b905090565b6000801b81565b600061255f60405180807f4d41524b45545f41444d494e5f524f4c450000000000000000000000000000008152506011019050604051809103902083612388565b9050919050565b61256f33610fe8565b6125e1576040517f08c379a00000000000000000000000000000000000000000000000000000000081526004018080602001828103825260158152602001807f5265737472696374656420746f2061646d696e732e000000000000000000000081525060200191505060405180910390fd5b61262060405180807f4d41524b45545f41444d494e5f524f4c450000000000000000000000000000008152506011019050604051809103902082612dae565b50565b600061262e33611472565b6126a0576040517f08c379a00000000000000000000000000000000000000000000000000000000081526004018080602001828103825260198152602001807f5265737472696374656420746f2053746f72654f776e65722e0000000000000081525060200191505060405180910390fd5b600160009054906101000a900460ff1615612723576040517f08c379a00000000000000000000000000000000000000000000000000000000081526004018080602001828103825260108152602001807f5061757361626c653a207061757365640000000000000000000000000000000081525060200191505060405180910390fd5b6040518060e00160405280600560009054906101000a900460030b60030b81526020018581526020018481526020018360030b81526020016000600181111561276857fe5b81526020013373ffffffffffffffffffffffffffffffffffffffff168152602001600073ffffffffffffffffffffffffffffffffffffffff1681525060046000600560009054906101000a900460030b60030b60030b815260200190815260200160002060008201518160000160006101000a81548163ffffffff021916908360030b63ffffffff1602179055506020820151816001019080519060200190612812929190613621565b506040820151816002015560608201518160030160006101000a81548163ffffffff021916908360030b63ffffffff16021790555060808201518160030160046101000a81548160ff0219169083600181111561286b57fe5b021790555060a08201518160030160056101000a81548173ffffffffffffffffffffffffffffffffffffffff021916908373ffffffffffffffffffffffffffffffffffffffff16021790555060c08201518160040160006101000a81548173ffffffffffffffffffffffffffffffffffffffff021916908373ffffffffffffffffffffffffffffffffffffffff1602179055509050507ff5ea14c2dbd9c8caf129f8b7c21e9abde83ad592e1291390eba36b4a37881794600560009054906101000a900460030b858585604051808560030b60030b8152602001806020018481526020018360030b60030b8152602001828103825285818151815260200191508051906020019080838360005b83811015612993578082015181840152602081019050612978565b50505050905090810190601f1680156129c05780820380516001836020036101000a031916815260200191505b509550505050505060405180910390a17ffbbc37cc55e289efb382fb0468ad27afbcc0deb62d5a9b2723ae5f6e86d33a0a600560009054906101000a900460030b604051808260030b60030b815260200191505060405180910390a16001600560008282829054906101000a900460030b0192506101000a81548163ffffffff021916908360030b63ffffffff160217905550600190509392505050565b6000612a9f60405180807f4d41524b45545f41444d494e5f524f4c450000000000000000000000000000008152506011019050604051809103902083611faf565b9050919050565b612aaf33611472565b612b21576040517f08c379a00000000000000000000000000000000000000000000000000000000081526004018080602001828103825260198152602001807f5265737472696374656420746f2053746f72654f776e65722e0000000000000081525060200191505060405180910390fd5b803373ffffffffffffffffffffffffffffffffffffffff16600360008360030b60030b815260200190815260200160002060020160009054906101000a900473ffffffffffffffffffffffffffffffffffffffff1673ffffffffffffffffffffffffffffffffffffffff1614612bff576040517f08c379a00000000000000000000000000000000000000000000000000000000081526004018080602001828103825260198152602001807f5265737472696374656420746f2053746f72654f776e65722e0000000000000081525060200191505060405180910390fd5b600160009054906101000a900460ff1615612c82576040517f08c379a00000000000000000000000000000000000000000000000000000000081526004018080602001828103825260108152602001807f5061757361626c653a207061757365640000000000000000000000000000000081525060200191505060405180910390fd5b600460008460030b60030b8152602001908152602001600020600080820160006101000a81549063ffffffff0219169055600182016000612cc391906136a1565b60028201600090556003820160006101000a81549063ffffffff02191690556003820160046101000a81549060ff02191690556003820160056101000a81549073ffffffffffffffffffffffffffffffffffffffff02191690556004820160006101000a81549073ffffffffffffffffffffffffffffffffffffffff021916905550507f0d5e110ab63ef94da0e5220f2fd7ca7cd47ad988685b640dae02e20e221d880c83604051808260030b60030b815260200191505060405180910390a1505050565b6000612da760008084815260200190815260200160002060000161339d565b9050919050565b612dd460008084815260200190815260200160002060020154612dcf613225565b612388565b612e29576040517f08c379a00000000000000000000000000000000000000000000000000000000081526004018080602001828103825260308152602001806137606030913960400191505060405180910390fd5b612e3382826132c0565b5050565b60405180807f4d41524b45545f41444d494e5f524f4c450000000000000000000000000000008152506011019050604051809103902081565b60006060600080600460008660030b60030b815260200190815260200160002060000160009054906101000a900460030b600460008760030b60030b8152602001908152602001600020600101600460008860030b60030b815260200190815260200160002060020154600460008960030b60030b815260200190815260200160002060030160009054906101000a900460030b828054600181600116156101000203166002900480601f016020809104026020016040519081016040528092919081815260200182805460018160011615610100020316600290048015612f995780601f10612f6e57610100808354040283529160200191612f99565b820191906000526020600020905b815481529060010190602001808311612f7c57829003601f168201915b5050505050925093509350935093509193509193565b612fb833611472565b61302a576040517f08c379a00000000000000000000000000000000000000000000000000000000081526004018080602001828103825260198152602001807f5265737472696374656420746f2053746f72654f776e65722e0000000000000081525060200191505060405180910390fd5b600160009054906101000a900460ff16156130ad576040517f08c379a00000000000000000000000000000000000000000000000000000000081526004018080602001828103825260108152602001807f5061757361626c653a207061757365640000000000000000000000000000000081525060200191505060405180910390fd5b6130b681611fe0565b600360008260030b60030b8152602001908152602001600020600080820160006101000a81549063ffffffff02191690556001820160006130f791906136a1565b6002820160006101000a81549073ffffffffffffffffffffffffffffffffffffffff0219169055600382016000905550507f218a62bfd8746a7ce8e6a0928f49edb94357262b3fcf175c5f3383a295c2d31281604051808260030b60030b815260200191505060405180910390a150565b61317133610fe8565b6131e3576040517f08c379a00000000000000000000000000000000000000000000000000000000081526004018080602001828103825260158152602001807f5265737472696374656420746f2061646d696e732e000000000000000000000081525060200191505060405180910390fd5b61322260405180807f4d41524b45545f41444d494e5f524f4c450000000000000000000000000000008152506011019050604051809103902082611322565b50565b600033905090565b613254816000808581526020019081526020016000206000016133b290919063ffffffff16565b156132bc57613261613225565b73ffffffffffffffffffffffffffffffffffffffff168173ffffffffffffffffffffffffffffffffffffffff16837f2f8788117e7eff1d82e926ec794901d17c78024a50270940304540a733656f0d60405160405180910390a45b5050565b6132e7816000808581526020019081526020016000206000016133e290919063ffffffff16565b1561334f576132f4613225565b73ffffffffffffffffffffffffffffffffffffffff168173ffffffffffffffffffffffffffffffffffffffff16837ff6391f5c32d9c69d2a47ea670b442974b53935d1edc7fd64eb21e047a839171b60405160405180910390a45b5050565b60006133628360000183613412565b60001c905092915050565b6000613395836000018373ffffffffffffffffffffffffffffffffffffffff1660001b613495565b905092915050565b60006133ab826000016134b8565b9050919050565b60006133da836000018373ffffffffffffffffffffffffffffffffffffffff1660001b6134c9565b905092915050565b600061340a836000018373ffffffffffffffffffffffffffffffffffffffff1660001b613539565b905092915050565b600081836000018054905011613473576040517f08c379a000000000000000000000000000000000000000000000000000000000815260040180806020018281038252602281526020018061370f6022913960400191505060405180910390fd5b82600001828154811061348257fe5b9060005260206000200154905092915050565b600080836001016000848152602001908152602001600020541415905092915050565b600081600001805490509050919050565b60006134d58383613495565b61352e578260000182908060018154018082558091505060019003906000526020600020016000909190919091505582600001805490508360010160008481526020019081526020016000208190555060019050613533565b600090505b92915050565b60008083600101600084815260200190815260200160002054905060008114613615576000600182039050600060018660000180549050039050600086600001828154811061358457fe5b90600052602060002001549050808760000184815481106135a157fe5b90600052602060002001819055506001830187600101600083815260200190815260200160002081905550866000018054806135d957fe5b6001900381819060005260206000200160009055905586600101600087815260200190815260200160002060009055600194505050505061361b565b60009150505b92915050565b828054600181600116156101000203166002900490600052602060002090601f016020900481019282601f1061366257805160ff1916838001178555613690565b82800160010185558215613690579182015b8281111561368f578251825591602001919060010190613674565b5b50905061369d91906136e9565b5090565b50805460018160011615610100020316600290046000825580601f106136c757506136e6565b601f0160209004906000526020600020908101906136e591906136e9565b5b50565b61370b91905b808211156137075760008160009055506001016136ef565b5090565b9056fe456e756d657261626c655365743a20696e646578206f7574206f6620626f756e6473416363657373436f6e74726f6c3a2073656e646572206d75737420626520616e2061646d696e20746f206772616e74416363657373436f6e74726f6c3a2073656e646572206d75737420626520616e2061646d696e20746f207265766f6b65416363657373436f6e74726f6c3a2063616e206f6e6c792072656e6f756e636520726f6c657320666f722073656c66a264697066735822122011473ecad18b0ac20743a9b76b5289b233826d8b0b988896470aa03eebd83f6e64736f6c63430006020033",
  "source": "pragma solidity >=0.5.16<0.8.0;\n\nimport \"@openzeppelin/contracts/math/SafeMath.sol\";\nimport \"@openzeppelin/contracts/utils/Pausable.sol\";\nimport \"@openzeppelin/contracts/utils/ReentrancyGuard.sol\";\nimport \"./Administered.sol\";\n\n/// @title A simulator for Market Place\n/// @author Aysha Amin\n/// @notice You can use this contract for only the most basic simulation\ncontract Marketplace is Administered, Pausable, ReentrancyGuard{\n\nusing SafeMath for uint256;\n  struct Store{\n\t\tint32 id; \n\t\tstring name;\n\t\taddress owner; \n\t\tuint256 balance; \n\t}\n  struct Product{\n    int32 id;\n    string name;\n    uint256 price;\n    int32 storeId; \n    State state;\n    address payable seller;\n    address payable buyer;\n  }\n  enum State{\n    ForSale,\n    Sold\n  }\n\n\tmapping (int32 => Store) private stores; \n  mapping (int32 => Product) private products;\n  int32 private productCount;\n  int32 private storeCount;\n\n\n  constructor() public \n  {\n    /* Here, set the owner as the person who instantiated the contract\n       and set your idCount to 0. */\n       //owner=msg.sender;\n     _setupRole(DEFAULT_ADMIN_ROLE, msg.sender);\n    //_setupRole(MARKET_ADMIN_ROLE, msg.sender);\n    _setRoleAdmin(MARKET_ADMIN_ROLE, DEFAULT_ADMIN_ROLE);\n    _setRoleAdmin(STORE_OWNER_ROLE, MARKET_ADMIN_ROLE);\n       productCount=0;\n       storeCount=0;\n  }\n\n  event LogForSale(int32 id);\n  event LogSold(int32 id);\n  event LogStoreAdded (\n\t\tint32 id, \n\t\tstring name, \n\t\taddress owner, \n\t\tuint256 balance);\n\n  event LogProductAdded (\n\t\tint32 id, \n\t\tstring name, \n\t\tuint256 price, \n\t\tint32 storeId);\n  event LogWithdrawStoreBalance(\n    int32 storeId,\n\t\tuint256 amount\n  );\n  event LogPriceUpdated(\n    int32 id, \n\t\tuint256 oldPrice, \n\t\tuint256 newPrice\n  );\n  event ProductRemoved(int32 _productId);\n  event ProductsRemoved(int32 _storeId);\n  event StoreRemoved(int32 _storeId);\n\n\n  modifier forSale(int32 _productId){require(products[_productId].state == State.ForSale && products[_productId].price >= 0); _;}\n  modifier sold(int32 _productId){require(products[_productId].state == State.Sold && products[_productId].buyer != address(0)); _;}\n  modifier paidEnough(uint256 _price) { require(msg.value >= _price); _;}\n  modifier checkValue(int32 _productId) {\n    //refund them after pay for item (why it is before, _ checks for logic before func)\n    _;\n    uint256 _price = products[_productId].price;\n    uint256 amountToRefund = msg.value - _price ;\n    //uint256 amountToRefund = msg.value.sub(_price) ;\n    products[_productId].buyer.transfer(amountToRefund);\n  }\n  \n  modifier onlyOwnerOfThisStore(int32 _storeId)\n  {\n    require(stores[_storeId].owner == msg.sender, \"Restricted to StoreOwner.\");\n    _;\n  }\n\n  /// @dev Add a Store.\n\t/// @param _name Name of Store to Add \n  \n  function addStore(string memory _name)\n  onlyStoreOwner\n  whenNotPaused\n  public\n  //returns(bool)\n  {\n    stores[storeCount] = Store({ id: storeCount,name: _name, owner: msg.sender, balance: 0});\n    \n    storeCount+=1;\n    //storeCount.add(1);\n    emit LogStoreAdded(storeCount, _name, msg.sender, 0);\n    //return true;\n  }\n  \n  /// @dev Get Store Count.\n  /// @return The count of the stores\n  function getStoreCount() \n  public \n  view \n  returns (int32) {\n    return storeCount;\n  } \n\n  /// @dev Get a Store.\n\t/// @param _storeId ID of Store to Get \n  function getStore(int32 _storeId) \n  public \n  view \n  returns (int32 id,string memory name, address owner, uint256 balance) {\n    name = stores[_storeId].name;\n    owner = stores[_storeId].owner;\n    balance = stores[_storeId].balance;\n    return (_storeId,name, owner, balance);\n  } \n\n  /// @dev Remove a Store.\n\t/// @param _storeId ID of Store to Remove \n  function removeStore(int32 _storeId)\n  onlyStoreOwner\n  whenNotPaused\n  public\n  {\n    removeStoreProducts(_storeId);\n    delete stores[_storeId];\n\t\temit StoreRemoved(_storeId);\n  }\n\n  /// @dev Add a product.\n\t/// @param _name Name of product to Add \n  /// @param _price Price ID for product \n  /// @param _storeId Store ID for product to Add \n  function addProduct(string memory _name,uint256 _price,int32  _storeId)\n    onlyStoreOwner\n    whenNotPaused\n    public\n    returns(bool)\n  {\n    products[productCount] = Product({id: productCount, name: _name, price: _price, storeId:_storeId ,state: State.ForSale, seller: msg.sender, buyer: address(0)});\n    emit LogProductAdded(productCount, _name,_price, _storeId);\n    emit LogForSale(productCount);\n    productCount += 1;\n    //productCount = productCount.add(1);\n    return true;\n  }\n\n  /// @dev Get a product.\n\t/// @param _productId ID of product to Get \n  function getProduct(int32 _productId)\n\tpublic\n  view\n\treturns (int32,string memory, uint256, int32) {\n\n\t\treturn ( products[_productId].id,\n      products[_productId].name,\n\t\t\t\tproducts[_productId].price,\n\t\t\t\tproducts[_productId].storeId\n        );\n\t}\n\n  /// @dev Get Product Count.\n  /// @return The count of the Products\n  function getProductCount() \n  public \n  view \n  returns (int32) {\n    return productCount;\n  } \n\n  /// @dev update a product.\n  /// @param _productId ID of product to Update \n  /// @param _price New Price ID for product \n  /// @param _storeId Store ID for product to Update \n  function updateProduct(int32 _productId, uint256 _price, int32 _storeId) \n  onlyStoreOwner\n  onlyOwnerOfThisStore(_storeId)\n  whenNotPaused\n  public {\n    uint256 oldPrice=products[_productId].price;\n\t\tproducts[_productId].price=_price;\n\t\temit LogPriceUpdated(_productId, oldPrice, _price);\n  }\n\n  /// @dev Removes a product.\n\t/// @param _storeId Store ID for product to remove \n\t/// @param _productId ID of product to remove \n  function removeProduct(int32 _productId,int32 _storeId)\n  onlyStoreOwner\n  onlyOwnerOfThisStore(_storeId)\n  whenNotPaused\n  public\n  {\n\t\tdelete products[_productId];\n\t\temit ProductRemoved(_productId);\n  }\n\n  /// @dev Removes products from store.\n\t/// @param _storeId Storefront ID for products to remove \n  function removeStoreProducts(int32 _storeId)\n  onlyStoreOwner\n  onlyOwnerOfThisStore(_storeId)\n  whenNotPaused\n  public\n  {\n\t\tfor(int32 i=0; i<productCount; i+1) {\n\t\t\tif ( products[i].storeId == _storeId) {\n\t\t\t\tdelete products[i];\n\t\t\t\temit ProductRemoved(products[i].id);\n\t\t\t}\n\t\t}\n    emit ProductsRemoved(_storeId);\n  }\n\n  /// @dev Purchase a product.\n  /// @param _productId ID of product to Purchase \n  /// @return The Purchase Done\n  function purchaseProduct(int32 _productId)\n  public\n  payable\n  forSale(_productId) \n  paidEnough(products[_productId].price) \n  checkValue(_productId)\n  whenNotPaused\n  returns(bool)\n  {\n    products[_productId].buyer = msg.sender;\n    products[_productId].state = State.Sold;\n    stores[products[_productId].storeId].balance+=products[_productId].price;\n    //stores[products[_productId].storeId].balance.add(products[_productId].price);\n    emit LogSold(_productId);\n    return true;\n  }\n  //nonReentrant\n  //onlyOwnerOfThisStore(_storeId)\n\n  /// @dev Withdraw The Store Balance.\n  /// @param _storeId ID of Store to Withdraw \n  /// @return The Withdraw Done\n  function withdrawStoreBalance(int32 _storeId) \n  public \n  payable\n\tonlyStoreOwner\n\twhenNotPaused\n  nonReentrant\n  returns (bool)\n  {\n\t\trequire(stores[_storeId].balance > 0);\n\t\tuint storeBalance = stores[_storeId].balance;\n    stores[_storeId].balance = 0;\n\t\tmsg.sender.transfer(storeBalance);\n\t\temit LogWithdrawStoreBalance(_storeId, storeBalance);\n\t\treturn true;\n\t}\nfunction getBalance() \npublic\nview\nreturns (uint256)\n{\n    return address(this).balance;\n}\n  \n\n}",
  "sourcePath": "/home/aysha/Github/Online-Marketplace-Daap/contracts/Marketplace.sol",
  "compiler": {
    "name": "solc",
    "version": "0.6.2+commit.bacdbe57.Emscripten.clang"
  },
  "schemaVersion": "3.3.2",
  "updatedAt": "2020-12-11T06:53:44.487Z",
  "devdoc": {
    "author": "Aysha Amin",
    "methods": {
      "addAdmin(address)": {
        "details": "Add an account to the admin role. Restricted to admins.",
        "params": {
          "account": "address of account to Add as Admin."
        }
      },
      "addMarketAdmin(address)": {
        "details": "Add an account to the admin role. Restricted to admins.",
        "params": {
          "account": "address of account to to Add as MarketAdmin."
        }
      },
      "addProduct(string,uint256,int32)": {
        "details": "Add a product.",
        "params": {
          "_name": "Name of product to Add ",
          "_price": "Price ID for product ",
          "_storeId": "Store ID for product to Add "
        }
      },
      "addStore(string)": {
        "details": "Add a Store.",
        "params": {
          "_name": "Name of Store to Add "
        }
      },
      "addStoreOwner(address)": {
        "details": "Add an account to the user role. Restricted to MarketAdmins.",
        "params": {
          "account": "address of account to Add as StoreOwner."
        }
      },
      "getMarketAdminMember(uint256)": {
        "details": "get MarketAdminMember. Restricted to Admins.",
        "returns": {
          "_0": "MarketAdmin Member."
        }
      },
      "getMarketAdminsCount()": {
        "details": "get MarketAdminsCount. Restricted to Admins.",
        "returns": {
          "_0": "MarketAdmins Count."
        }
      },
      "getProduct(int32)": {
        "details": "Get a product.",
        "params": {
          "_productId": "ID of product to Get "
        }
      },
      "getProductCount()": {
        "details": "Get Product Count.",
        "returns": {
          "_0": "The count of the Products"
        }
      },
      "getRoleAdmin(bytes32)": {
        "details": "Returns the admin role that controls `role`. See {grantRole} and {revokeRole}.     * To change a role's admin, use {_setRoleAdmin}."
      },
      "getRoleMember(bytes32,uint256)": {
        "details": "Returns one of the accounts that have `role`. `index` must be a value between 0 and {getRoleMemberCount}, non-inclusive.     * Role bearers are not sorted in any particular way, and their ordering may change at any point.     * WARNING: When using {getRoleMember} and {getRoleMemberCount}, make sure you perform all queries on the same block. See the following https://forum.openzeppelin.com/t/iterating-over-elements-on-enumerableset-in-openzeppelin-contracts/2296[forum post] for more information."
      },
      "getRoleMemberCount(bytes32)": {
        "details": "Returns the number of accounts that have `role`. Can be used together with {getRoleMember} to enumerate all bearers of a role."
      },
      "getStore(int32)": {
        "details": "Get a Store.",
        "params": {
          "_storeId": "ID of Store to Get "
        }
      },
      "getStoreCount()": {
        "details": "Get Store Count.",
        "returns": {
          "_0": "The count of the stores"
        }
      },
      "getStoreOwnerMember(uint256)": {
        "details": "get StoreOwnerMember. Restricted to MarketAdmins.",
        "returns": {
          "_0": "StoreOwners Member."
        }
      },
      "getStoreOwnersCount()": {
        "details": "get MarketAdminsCount. Restricted to MarketAdmins.",
        "returns": {
          "_0": "StoreOwners Count."
        }
      },
      "grantRole(bytes32,address)": {
        "details": "Grants `role` to `account`.     * If `account` had not been already granted `role`, emits a {RoleGranted} event.     * Requirements:     * - the caller must have ``role``'s admin role."
      },
      "hasRole(bytes32,address)": {
        "details": "Returns `true` if `account` has been granted `role`."
      },
      "isAdmin(address)": {
        "details": "Return `true` if the account belongs to the admin role.",
        "params": {
          "account": "address of account to check is admin."
        }
      },
      "isMarketAdmin(address)": {
        "details": "Return `true` if the account belongs to the MarketAdmin role.",
        "params": {
          "account": "address of account to check is MarketAdmin."
        }
      },
      "isStoreOwner(address)": {
        "details": "Return `true` if the account belongs to the StoreOwner role.",
        "params": {
          "account": "address of account to check is StoreOwner."
        }
      },
      "paused()": {
        "details": "Returns true if the contract is paused, and false otherwise."
      },
      "purchaseProduct(int32)": {
        "details": "Purchase a product.",
        "params": {
          "_productId": "ID of product to Purchase "
        },
        "returns": {
          "_0": "The Purchase Done"
        }
      },
      "removeMarketAdmin(address)": {
        "details": "Remove an account from the MarketAdmin role. Restricted to admins.",
        "params": {
          "account": "address of account to Remove."
        }
      },
      "removeProduct(int32,int32)": {
        "details": "Removes a product.",
        "params": {
          "_productId": "ID of product to remove ",
          "_storeId": "Store ID for product to remove "
        }
      },
      "removeStore(int32)": {
        "details": "Remove a Store.",
        "params": {
          "_storeId": "ID of Store to Remove "
        }
      },
      "removeStoreOwner(address)": {
        "details": "Remove an account from the StoreOwner role. Restricted to MarketAdmins.",
        "params": {
          "account": "address of account to Remove."
        }
      },
      "removeStoreProducts(int32)": {
        "details": "Removes products from store.",
        "params": {
          "_storeId": "Storefront ID for products to remove "
        }
      },
      "renounceAdmin()": {
        "details": "Remove oneself from the admin role."
      },
      "renounceRole(bytes32,address)": {
        "details": "Revokes `role` from the calling account.     * Roles are often managed via {grantRole} and {revokeRole}: this function's purpose is to provide a mechanism for accounts to lose their privileges if they are compromised (such as when a trusted device is misplaced).     * If the calling account had been granted `role`, emits a {RoleRevoked} event.     * Requirements:     * - the caller must be `account`."
      },
      "revokeRole(bytes32,address)": {
        "details": "Revokes `role` from `account`.     * If `account` had been granted `role`, emits a {RoleRevoked} event.     * Requirements:     * - the caller must have ``role``'s admin role."
      },
      "updateProduct(int32,uint256,int32)": {
        "details": "update a product.",
        "params": {
          "_price": "New Price ID for product ",
          "_productId": "ID of product to Update ",
          "_storeId": "Store ID for product to Update "
        }
      },
      "withdrawStoreBalance(int32)": {
        "details": "Withdraw The Store Balance.",
        "params": {
          "_storeId": "ID of Store to Withdraw "
        },
        "returns": {
          "_0": "The Withdraw Done"
        }
      }
    },
    "title": "A simulator for Market Place"
  },
  "userdoc": {
    "methods": {},
    "notice": "You can use this contract for only the most basic simulation"
  }
}