{
  "contractName": "Marketplace",
  "abi": [
    {
      "inputs": [],
      "stateMutability": "nonpayable",
      "type": "constructor"
    },
    {
      "anonymous": false,
      "inputs": [
        {
          "indexed": false,
          "internalType": "uint256",
          "name": "id",
          "type": "uint256"
        }
      ],
      "name": "LogForSale",
      "type": "event"
    },
    {
      "anonymous": false,
      "inputs": [
        {
          "indexed": false,
          "internalType": "uint256",
          "name": "id",
          "type": "uint256"
        },
        {
          "indexed": false,
          "internalType": "uint256",
          "name": "oldPrice",
          "type": "uint256"
        },
        {
          "indexed": false,
          "internalType": "uint256",
          "name": "newPrice",
          "type": "uint256"
        }
      ],
      "name": "LogPriceUpdated",
      "type": "event"
    },
    {
      "anonymous": false,
      "inputs": [
        {
          "indexed": false,
          "internalType": "uint256",
          "name": "id",
          "type": "uint256"
        },
        {
          "indexed": false,
          "internalType": "string",
          "name": "name",
          "type": "string"
        },
        {
          "indexed": false,
          "internalType": "uint256",
          "name": "price",
          "type": "uint256"
        },
        {
          "indexed": false,
          "internalType": "uint256",
          "name": "storeId",
          "type": "uint256"
        }
      ],
      "name": "LogProductAdded",
      "type": "event"
    },
    {
      "anonymous": false,
      "inputs": [
        {
          "indexed": false,
          "internalType": "uint256",
          "name": "id",
          "type": "uint256"
        }
      ],
      "name": "LogSold",
      "type": "event"
    },
    {
      "anonymous": false,
      "inputs": [
        {
          "indexed": false,
          "internalType": "uint256",
          "name": "id",
          "type": "uint256"
        },
        {
          "indexed": false,
          "internalType": "string",
          "name": "name",
          "type": "string"
        },
        {
          "indexed": false,
          "internalType": "address",
          "name": "owner",
          "type": "address"
        },
        {
          "indexed": false,
          "internalType": "uint256",
          "name": "balance",
          "type": "uint256"
        }
      ],
      "name": "LogStoreAdded",
      "type": "event"
    },
    {
      "anonymous": false,
      "inputs": [
        {
          "indexed": false,
          "internalType": "uint256",
          "name": "storeId",
          "type": "uint256"
        },
        {
          "indexed": false,
          "internalType": "uint256",
          "name": "amount",
          "type": "uint256"
        }
      ],
      "name": "LogWithdrawStoreBalance",
      "type": "event"
    },
    {
      "anonymous": false,
      "inputs": [
        {
          "indexed": false,
          "internalType": "address",
          "name": "account",
          "type": "address"
        }
      ],
      "name": "Paused",
      "type": "event"
    },
    {
      "anonymous": false,
      "inputs": [
        {
          "indexed": false,
          "internalType": "uint256",
          "name": "_productId",
          "type": "uint256"
        }
      ],
      "name": "ProductRemoved",
      "type": "event"
    },
    {
      "anonymous": false,
      "inputs": [
        {
          "indexed": false,
          "internalType": "uint256",
          "name": "_storeId",
          "type": "uint256"
        }
      ],
      "name": "ProductsRemoved",
      "type": "event"
    },
    {
      "anonymous": false,
      "inputs": [
        {
          "indexed": true,
          "internalType": "bytes32",
          "name": "role",
          "type": "bytes32"
        },
        {
          "indexed": true,
          "internalType": "bytes32",
          "name": "previousAdminRole",
          "type": "bytes32"
        },
        {
          "indexed": true,
          "internalType": "bytes32",
          "name": "newAdminRole",
          "type": "bytes32"
        }
      ],
      "name": "RoleAdminChanged",
      "type": "event"
    },
    {
      "anonymous": false,
      "inputs": [
        {
          "indexed": true,
          "internalType": "bytes32",
          "name": "role",
          "type": "bytes32"
        },
        {
          "indexed": true,
          "internalType": "address",
          "name": "account",
          "type": "address"
        },
        {
          "indexed": true,
          "internalType": "address",
          "name": "sender",
          "type": "address"
        }
      ],
      "name": "RoleGranted",
      "type": "event"
    },
    {
      "anonymous": false,
      "inputs": [
        {
          "indexed": true,
          "internalType": "bytes32",
          "name": "role",
          "type": "bytes32"
        },
        {
          "indexed": true,
          "internalType": "address",
          "name": "account",
          "type": "address"
        },
        {
          "indexed": true,
          "internalType": "address",
          "name": "sender",
          "type": "address"
        }
      ],
      "name": "RoleRevoked",
      "type": "event"
    },
    {
      "anonymous": false,
      "inputs": [
        {
          "indexed": false,
          "internalType": "uint256",
          "name": "_storeId",
          "type": "uint256"
        }
      ],
      "name": "StoreRemoved",
      "type": "event"
    },
    {
      "anonymous": false,
      "inputs": [
        {
          "indexed": false,
          "internalType": "address",
          "name": "account",
          "type": "address"
        }
      ],
      "name": "Unpaused",
      "type": "event"
    },
    {
      "inputs": [],
      "name": "DEFAULT_ADMIN_ROLE",
      "outputs": [
        {
          "internalType": "bytes32",
          "name": "",
          "type": "bytes32"
        }
      ],
      "stateMutability": "view",
      "type": "function",
      "constant": true
    },
    {
      "inputs": [],
      "name": "MARKET_ADMIN_ROLE",
      "outputs": [
        {
          "internalType": "bytes32",
          "name": "",
          "type": "bytes32"
        }
      ],
      "stateMutability": "view",
      "type": "function",
      "constant": true
    },
    {
      "inputs": [],
      "name": "STORE_OWNER_ROLE",
      "outputs": [
        {
          "internalType": "bytes32",
          "name": "",
          "type": "bytes32"
        }
      ],
      "stateMutability": "view",
      "type": "function",
      "constant": true
    },
    {
      "inputs": [
        {
          "internalType": "address",
          "name": "account",
          "type": "address"
        }
      ],
      "name": "addAdmin",
      "outputs": [],
      "stateMutability": "nonpayable",
      "type": "function"
    },
    {
      "inputs": [
        {
          "internalType": "address",
          "name": "account",
          "type": "address"
        }
      ],
      "name": "addMarketAdmin",
      "outputs": [],
      "stateMutability": "nonpayable",
      "type": "function"
    },
    {
      "inputs": [
        {
          "internalType": "address",
          "name": "account",
          "type": "address"
        }
      ],
      "name": "addStoreOwner",
      "outputs": [],
      "stateMutability": "nonpayable",
      "type": "function"
    },
    {
      "inputs": [
        {
          "internalType": "uint256",
          "name": "index",
          "type": "uint256"
        }
      ],
      "name": "getMarketAdminMember",
      "outputs": [
        {
          "internalType": "address",
          "name": "",
          "type": "address"
        }
      ],
      "stateMutability": "view",
      "type": "function",
      "constant": true
    },
    {
      "inputs": [],
      "name": "getMarketAdminsCount",
      "outputs": [
        {
          "internalType": "uint256",
          "name": "",
          "type": "uint256"
        }
      ],
      "stateMutability": "view",
      "type": "function",
      "constant": true
    },
    {
      "inputs": [
        {
          "internalType": "bytes32",
          "name": "role",
          "type": "bytes32"
        }
      ],
      "name": "getRoleAdmin",
      "outputs": [
        {
          "internalType": "bytes32",
          "name": "",
          "type": "bytes32"
        }
      ],
      "stateMutability": "view",
      "type": "function",
      "constant": true
    },
    {
      "inputs": [
        {
          "internalType": "bytes32",
          "name": "role",
          "type": "bytes32"
        },
        {
          "internalType": "uint256",
          "name": "index",
          "type": "uint256"
        }
      ],
      "name": "getRoleMember",
      "outputs": [
        {
          "internalType": "address",
          "name": "",
          "type": "address"
        }
      ],
      "stateMutability": "view",
      "type": "function",
      "constant": true
    },
    {
      "inputs": [
        {
          "internalType": "bytes32",
          "name": "role",
          "type": "bytes32"
        }
      ],
      "name": "getRoleMemberCount",
      "outputs": [
        {
          "internalType": "uint256",
          "name": "",
          "type": "uint256"
        }
      ],
      "stateMutability": "view",
      "type": "function",
      "constant": true
    },
    {
      "inputs": [
        {
          "internalType": "uint256",
          "name": "index",
          "type": "uint256"
        }
      ],
      "name": "getStoreOwnerMember",
      "outputs": [
        {
          "internalType": "address",
          "name": "",
          "type": "address"
        }
      ],
      "stateMutability": "view",
      "type": "function",
      "constant": true
    },
    {
      "inputs": [],
      "name": "getStoreOwnersCount",
      "outputs": [
        {
          "internalType": "uint256",
          "name": "",
          "type": "uint256"
        }
      ],
      "stateMutability": "view",
      "type": "function",
      "constant": true
    },
    {
      "inputs": [
        {
          "internalType": "bytes32",
          "name": "role",
          "type": "bytes32"
        },
        {
          "internalType": "address",
          "name": "account",
          "type": "address"
        }
      ],
      "name": "grantRole",
      "outputs": [],
      "stateMutability": "nonpayable",
      "type": "function"
    },
    {
      "inputs": [
        {
          "internalType": "bytes32",
          "name": "role",
          "type": "bytes32"
        },
        {
          "internalType": "address",
          "name": "account",
          "type": "address"
        }
      ],
      "name": "hasRole",
      "outputs": [
        {
          "internalType": "bool",
          "name": "",
          "type": "bool"
        }
      ],
      "stateMutability": "view",
      "type": "function",
      "constant": true
    },
    {
      "inputs": [
        {
          "internalType": "address",
          "name": "account",
          "type": "address"
        }
      ],
      "name": "isAdmin",
      "outputs": [
        {
          "internalType": "bool",
          "name": "",
          "type": "bool"
        }
      ],
      "stateMutability": "view",
      "type": "function",
      "constant": true
    },
    {
      "inputs": [
        {
          "internalType": "address",
          "name": "account",
          "type": "address"
        }
      ],
      "name": "isMarketAdmin",
      "outputs": [
        {
          "internalType": "bool",
          "name": "",
          "type": "bool"
        }
      ],
      "stateMutability": "view",
      "type": "function",
      "constant": true
    },
    {
      "inputs": [
        {
          "internalType": "address",
          "name": "account",
          "type": "address"
        }
      ],
      "name": "isStoreOwner",
      "outputs": [
        {
          "internalType": "bool",
          "name": "",
          "type": "bool"
        }
      ],
      "stateMutability": "view",
      "type": "function",
      "constant": true
    },
    {
      "inputs": [],
      "name": "paused",
      "outputs": [
        {
          "internalType": "bool",
          "name": "",
          "type": "bool"
        }
      ],
      "stateMutability": "view",
      "type": "function",
      "constant": true
    },
    {
      "inputs": [],
      "name": "productCount",
      "outputs": [
        {
          "internalType": "uint256",
          "name": "",
          "type": "uint256"
        }
      ],
      "stateMutability": "view",
      "type": "function",
      "constant": true
    },
    {
      "inputs": [
        {
          "internalType": "uint256",
          "name": "",
          "type": "uint256"
        }
      ],
      "name": "products",
      "outputs": [
        {
          "internalType": "uint256",
          "name": "id",
          "type": "uint256"
        },
        {
          "internalType": "string",
          "name": "name",
          "type": "string"
        },
        {
          "internalType": "uint256",
          "name": "price",
          "type": "uint256"
        },
        {
          "internalType": "uint256",
          "name": "storeId",
          "type": "uint256"
        },
        {
          "internalType": "enum Marketplace.State",
          "name": "state",
          "type": "uint8"
        },
        {
          "internalType": "address payable",
          "name": "seller",
          "type": "address"
        },
        {
          "internalType": "address payable",
          "name": "buyer",
          "type": "address"
        }
      ],
      "stateMutability": "view",
      "type": "function",
      "constant": true
    },
    {
      "inputs": [
        {
          "internalType": "address",
          "name": "account",
          "type": "address"
        }
      ],
      "name": "removeMarketAdmin",
      "outputs": [],
      "stateMutability": "nonpayable",
      "type": "function"
    },
    {
      "inputs": [
        {
          "internalType": "address",
          "name": "account",
          "type": "address"
        }
      ],
      "name": "removeStoreOwner",
      "outputs": [],
      "stateMutability": "nonpayable",
      "type": "function"
    },
    {
      "inputs": [],
      "name": "renounceAdmin",
      "outputs": [],
      "stateMutability": "nonpayable",
      "type": "function"
    },
    {
      "inputs": [
        {
          "internalType": "bytes32",
          "name": "role",
          "type": "bytes32"
        },
        {
          "internalType": "address",
          "name": "account",
          "type": "address"
        }
      ],
      "name": "renounceRole",
      "outputs": [],
      "stateMutability": "nonpayable",
      "type": "function"
    },
    {
      "inputs": [
        {
          "internalType": "bytes32",
          "name": "role",
          "type": "bytes32"
        },
        {
          "internalType": "address",
          "name": "account",
          "type": "address"
        }
      ],
      "name": "revokeRole",
      "outputs": [],
      "stateMutability": "nonpayable",
      "type": "function"
    },
    {
      "inputs": [],
      "name": "storeCount",
      "outputs": [
        {
          "internalType": "uint256",
          "name": "",
          "type": "uint256"
        }
      ],
      "stateMutability": "view",
      "type": "function",
      "constant": true
    },
    {
      "inputs": [
        {
          "internalType": "uint256",
          "name": "",
          "type": "uint256"
        }
      ],
      "name": "stores",
      "outputs": [
        {
          "internalType": "uint256",
          "name": "id",
          "type": "uint256"
        },
        {
          "internalType": "string",
          "name": "name",
          "type": "string"
        },
        {
          "internalType": "address",
          "name": "owner",
          "type": "address"
        },
        {
          "internalType": "uint256",
          "name": "balance",
          "type": "uint256"
        }
      ],
      "stateMutability": "view",
      "type": "function",
      "constant": true
    },
    {
      "inputs": [
        {
          "internalType": "string",
          "name": "_name",
          "type": "string"
        }
      ],
      "name": "addStore",
      "outputs": [],
      "stateMutability": "nonpayable",
      "type": "function"
    },
    {
      "inputs": [],
      "name": "getStoreCount",
      "outputs": [
        {
          "internalType": "uint256",
          "name": "",
          "type": "uint256"
        }
      ],
      "stateMutability": "view",
      "type": "function",
      "constant": true
    },
    {
      "inputs": [
        {
          "internalType": "uint256",
          "name": "_storeId",
          "type": "uint256"
        }
      ],
      "name": "getStore",
      "outputs": [
        {
          "internalType": "uint256",
          "name": "id",
          "type": "uint256"
        },
        {
          "internalType": "string",
          "name": "name",
          "type": "string"
        },
        {
          "internalType": "address",
          "name": "owner",
          "type": "address"
        },
        {
          "internalType": "uint256",
          "name": "balance",
          "type": "uint256"
        }
      ],
      "stateMutability": "view",
      "type": "function",
      "constant": true
    },
    {
      "inputs": [
        {
          "internalType": "uint256",
          "name": "_storeId",
          "type": "uint256"
        }
      ],
      "name": "removeStore",
      "outputs": [],
      "stateMutability": "nonpayable",
      "type": "function"
    },
    {
      "inputs": [
        {
          "internalType": "string",
          "name": "_name",
          "type": "string"
        },
        {
          "internalType": "uint256",
          "name": "_price",
          "type": "uint256"
        },
        {
          "internalType": "uint256",
          "name": "_storeId",
          "type": "uint256"
        }
      ],
      "name": "addProduct",
      "outputs": [
        {
          "internalType": "bool",
          "name": "",
          "type": "bool"
        }
      ],
      "stateMutability": "nonpayable",
      "type": "function"
    },
    {
      "inputs": [
        {
          "internalType": "uint256",
          "name": "_productId",
          "type": "uint256"
        }
      ],
      "name": "getProduct",
      "outputs": [
        {
          "internalType": "string",
          "name": "",
          "type": "string"
        },
        {
          "internalType": "uint256",
          "name": "",
          "type": "uint256"
        },
        {
          "internalType": "uint256",
          "name": "",
          "type": "uint256"
        }
      ],
      "stateMutability": "view",
      "type": "function",
      "constant": true
    },
    {
      "inputs": [],
      "name": "getProductCount",
      "outputs": [
        {
          "internalType": "uint256",
          "name": "",
          "type": "uint256"
        }
      ],
      "stateMutability": "view",
      "type": "function",
      "constant": true
    },
    {
      "inputs": [
        {
          "internalType": "uint256",
          "name": "_productId",
          "type": "uint256"
        },
        {
          "internalType": "uint256",
          "name": "_price",
          "type": "uint256"
        },
        {
          "internalType": "uint256",
          "name": "_storeId",
          "type": "uint256"
        }
      ],
      "name": "updateProduct",
      "outputs": [],
      "stateMutability": "nonpayable",
      "type": "function"
    },
    {
      "inputs": [
        {
          "internalType": "uint256",
          "name": "_productId",
          "type": "uint256"
        },
        {
          "internalType": "uint256",
          "name": "_storeId",
          "type": "uint256"
        }
      ],
      "name": "removeProduct",
      "outputs": [],
      "stateMutability": "nonpayable",
      "type": "function"
    },
    {
      "inputs": [
        {
          "internalType": "uint256",
          "name": "_storeId",
          "type": "uint256"
        }
      ],
      "name": "removeStoreProducts",
      "outputs": [],
      "stateMutability": "nonpayable",
      "type": "function"
    },
    {
      "inputs": [
        {
          "internalType": "uint256",
          "name": "_productId",
          "type": "uint256"
        }
      ],
      "name": "purchaseProduct",
      "outputs": [
        {
          "internalType": "bool",
          "name": "",
          "type": "bool"
        }
      ],
      "stateMutability": "payable",
      "type": "function",
      "payable": true
    },
    {
      "inputs": [
        {
          "internalType": "uint256",
          "name": "_storeId",
          "type": "uint256"
        }
      ],
      "name": "withdrawStoreBalance",
      "outputs": [
        {
          "internalType": "bool",
          "name": "",
          "type": "bool"
        }
      ],
      "stateMutability": "payable",
      "type": "function",
      "payable": true
    }
  ],
  "bytecode": "0x60806040523480156200001157600080fd5b50620000276000801b336200020160201b60201c565b6200007160405180807f4d41524b45545f41444d494e5f524f4c45000000000000000000000000000000815250601101905060405180910390206000801b6200021760201b60201c565b620000ed60405180807f53544f52455f4f574e4552000000000000000000000000000000000000000000815250600b019050604051809103902060405180807f4d41524b45545f41444d494e5f524f4c45000000000000000000000000000000815250601101905060405180910390206200021760201b60201c565b6000600160006101000a81548160ff0219169083151502179055506001600281905550620001256000801b336200020160201b60201c565b6200016f60405180807f4d41524b45545f41444d494e5f524f4c45000000000000000000000000000000815250601101905060405180910390206000801b6200021760201b60201c565b620001eb60405180807f53544f52455f4f574e4552000000000000000000000000000000000000000000815250600b019050604051809103902060405180807f4d41524b45545f41444d494e5f524f4c45000000000000000000000000000000815250601101905060405180910390206200021760201b60201c565b60006005819055506000600681905550620003f9565b6200021382826200027960201b60201c565b5050565b8060008084815260200190815260200160002060020154837fbd79b86ffe0ab8e8776151514217cd7cacd52c909f66475c3af44e129f0b00ff60405160405180910390a480600080848152602001908152602001600020600201819055505050565b620002a7816000808581526020019081526020016000206000016200031c60201b6200376f1790919060201c565b156200031857620002bd6200035460201b60201c565b73ffffffffffffffffffffffffffffffffffffffff168173ffffffffffffffffffffffffffffffffffffffff16837f2f8788117e7eff1d82e926ec794901d17c78024a50270940304540a733656f0d60405160405180910390a45b5050565b60006200034c836000018373ffffffffffffffffffffffffffffffffffffffff1660001b6200035c60201b60201c565b905092915050565b600033905090565b6000620003708383620003d660201b60201c565b620003cb578260000182908060018154018082558091505060019003906000526020600020016000909190919091505582600001805490508360010160008481526020019081526020016000208190555060019050620003d0565b600090505b92915050565b600080836001016000848152602001908152602001600020541415905092915050565b613c7180620004096000396000f3fe60806040526004361061023b5760003560e01c80639010d07c1161012e578063b38f668b116100ab578063d6f0d39f1161006f578063d6f0d39f14610fcd578063e0f6ef8714610ff8578063e8a59cd814611023578063f3c93a9214611118578063f85292ca146111695761023b565b8063b38f668b14610d95578063b9db15b414610de6578063be5610b914610ea8578063ca15c87314610f23578063d547741f14610f725761023b565b80639bc0432c116100f25780639bc0432c14610c705780639d4cca8e14610cab578063a1b141d414610cd6578063a217fddf14610d01578063a845925d14610d2c5761023b565b80639010d07c14610ad157806391d1485414610b5657806395e8142814610bc957806398e8bd9714610bf45780639adeb5f114610c1f5761023b565b80635287d535116101bc5780636adaabb6116101805780636adaabb61461080557806370480275146108305780637acc0b201461088157806383403120146109c55780638bad0c0a14610aba5761023b565b80635287d5351461060f5780635c975abb146106545780635effd33c146106835780636174fdd1146106ec578063662feffc1461073d5761023b565b806324d7806c1161020357806324d7806c1461047f5780632f2ff15d146104e857806336568abe1461054357806338e76a031461059e5780634a348da9146105e45761023b565b8063057a711e14610240578063087f7da8146102bb578063125b0b34146102f657806315aaeb22146103ea578063248a9ca314610430575b600080fd5b34801561024c57600080fd5b506102796004803603602081101561026357600080fd5b81019080803590602001909291905050506111b8565b604051808273ffffffffffffffffffffffffffffffffffffffff1673ffffffffffffffffffffffffffffffffffffffff16815260200191505060405180910390f35b3480156102c757600080fd5b506102f4600480360360208110156102de57600080fd5b8101908080359060200190929190505050611200565b005b34801561030257600080fd5b506103d06004803603606081101561031957600080fd5b810190808035906020019064010000000081111561033657600080fd5b82018360208201111561034857600080fd5b8035906020019184600183028401116401000000008311171561036a57600080fd5b91908080601f016020809104026020016040519081016040528093929190818152602001838380828437600081840152601f19601f8201169050808301925050505050505091929192908035906020019092919080359060200190929190505050611548565b604051808215151515815260200191505060405180910390f35b6104166004803603602081101561040057600080fd5b81019080803590602001909291905050506118d6565b604051808215151515815260200191505060405180910390f35b34801561043c57600080fd5b506104696004803603602081101561045357600080fd5b8101908080359060200190929190505050611c1f565b6040518082815260200191505060405180910390f35b34801561048b57600080fd5b506104ce600480360360208110156104a257600080fd5b81019080803573ffffffffffffffffffffffffffffffffffffffff169060200190929190505050611c3e565b604051808215151515815260200191505060405180910390f35b3480156104f457600080fd5b506105416004803603604081101561050b57600080fd5b8101908080359060200190929190803573ffffffffffffffffffffffffffffffffffffffff169060200190929190505050611c54565b005b34801561054f57600080fd5b5061059c6004803603604081101561056657600080fd5b8101908080359060200190929190803573ffffffffffffffffffffffffffffffffffffffff169060200190929190505050611cdd565b005b6105ca600480360360208110156105b457600080fd5b8101908080359060200190929190505050611d76565b604051808215151515815260200191505060405180910390f35b3480156105f057600080fd5b506105f96120d2565b6040518082815260200191505060405180910390f35b34801561061b57600080fd5b506106526004803603604081101561063257600080fd5b8101908080359060200190929190803590602001909291905050506120dc565b005b34801561066057600080fd5b5061066961238e565b604051808215151515815260200191505060405180910390f35b34801561068f57600080fd5b506106d2600480360360208110156106a657600080fd5b81019080803573ffffffffffffffffffffffffffffffffffffffff1690602001909291905050506123a5565b604051808215151515815260200191505060405180910390f35b3480156106f857600080fd5b5061073b6004803603602081101561070f57600080fd5b81019080803573ffffffffffffffffffffffffffffffffffffffff1690602001909291905050506123ed565b005b34801561074957600080fd5b506108036004803603602081101561076057600080fd5b810190808035906020019064010000000081111561077d57600080fd5b82018360208201111561078f57600080fd5b803590602001918460018302840111640100000000831117156107b157600080fd5b91908080601f016020809104026020016040519081016040528093929190818152602001838380828437600081840152601f19601f8201169050808301925050505050505091929192905050506124aa565b005b34801561081157600080fd5b5061081a61276f565b6040518082815260200191505060405180910390f35b34801561083c57600080fd5b5061087f6004803603602081101561085357600080fd5b81019080803573ffffffffffffffffffffffffffffffffffffffff1690602001909291905050506127a8565b005b34801561088d57600080fd5b506108ba600480360360208110156108a457600080fd5b8101908080359060200190929190505050612833565b60405180888152602001806020018781526020018681526020018560018111156108e057fe5b60ff1681526020018473ffffffffffffffffffffffffffffffffffffffff1673ffffffffffffffffffffffffffffffffffffffff1681526020018373ffffffffffffffffffffffffffffffffffffffff1673ffffffffffffffffffffffffffffffffffffffff168152602001828103825288818151815260200191508051906020019080838360005b83811015610984578082015181840152602081019050610969565b50505050905090810190601f1680156109b15780820380516001836020036101000a031916815260200191505b509850505050505050505060405180910390f35b3480156109d157600080fd5b506109fe600480360360208110156109e857600080fd5b810190808035906020019092919050505061295a565b60405180858152602001806020018473ffffffffffffffffffffffffffffffffffffffff1673ffffffffffffffffffffffffffffffffffffffff168152602001838152602001828103825285818151815260200191508051906020019080838360005b83811015610a7c578082015181840152602081019050610a61565b50505050905090810190601f168015610aa95780820380516001836020036101000a031916815260200191505b509550505050505060405180910390f35b348015610ac657600080fd5b50610acf612a77565b005b348015610add57600080fd5b50610b1460048036036040811015610af457600080fd5b810190808035906020019092919080359060200190929190505050612a86565b604051808273ffffffffffffffffffffffffffffffffffffffff1673ffffffffffffffffffffffffffffffffffffffff16815260200191505060405180910390f35b348015610b6257600080fd5b50610baf60048036036040811015610b7957600080fd5b8101908080359060200190929190803573ffffffffffffffffffffffffffffffffffffffff169060200190929190505050612ab7565b604051808215151515815260200191505060405180910390f35b348015610bd557600080fd5b50610bde612ae8565b6040518082815260200191505060405180910390f35b348015610c0057600080fd5b50610c09612b2d565b6040518082815260200191505060405180910390f35b348015610c2b57600080fd5b50610c6e60048036036020811015610c4257600080fd5b81019080803573ffffffffffffffffffffffffffffffffffffffff169060200190929190505050612b37565b005b348015610c7c57600080fd5b50610ca960048036036020811015610c9357600080fd5b8101908080359060200190929190505050612bf4565b005b348015610cb757600080fd5b50610cc0612d92565b6040518082815260200191505060405180910390f35b348015610ce257600080fd5b50610ceb612dd7565b6040518082815260200191505060405180910390f35b348015610d0d57600080fd5b50610d16612ddd565b6040518082815260200191505060405180910390f35b348015610d3857600080fd5b50610d7b60048036036020811015610d4f57600080fd5b81019080803573ffffffffffffffffffffffffffffffffffffffff169060200190929190505050612de4565b604051808215151515815260200191505060405180910390f35b348015610da157600080fd5b50610de460048036036020811015610db857600080fd5b81019080803573ffffffffffffffffffffffffffffffffffffffff169060200190929190505050612e2c565b005b348015610df257600080fd5b50610e1f60048036036020811015610e0957600080fd5b8101908080359060200190929190505050612ee9565b6040518080602001848152602001838152602001828103825285818151815260200191508051906020019080838360005b83811015610e6b578082015181840152602081019050610e50565b50505050905090810190601f168015610e985780820380516001836020036101000a031916815260200191505b5094505050505060405180910390f35b348015610eb457600080fd5b50610ee160048036036020811015610ecb57600080fd5b8101908080359060200190929190505050612fdb565b604051808273ffffffffffffffffffffffffffffffffffffffff1673ffffffffffffffffffffffffffffffffffffffff16815260200191505060405180910390f35b348015610f2f57600080fd5b50610f5c60048036036020811015610f4657600080fd5b8101908080359060200190929190505050613023565b6040518082815260200191505060405180910390f35b348015610f7e57600080fd5b50610fcb60048036036040811015610f9557600080fd5b8101908080359060200190929190803573ffffffffffffffffffffffffffffffffffffffff169060200190929190505050613049565b005b348015610fd957600080fd5b50610fe26130d2565b6040518082815260200191505060405180910390f35b34801561100457600080fd5b5061100d61310b565b6040518082815260200191505060405180910390f35b34801561102f57600080fd5b5061105c6004803603602081101561104657600080fd5b8101908080359060200190929190505050613111565b60405180858152602001806020018473ffffffffffffffffffffffffffffffffffffffff1673ffffffffffffffffffffffffffffffffffffffff168152602001838152602001828103825285818151815260200191508051906020019080838360005b838110156110da5780820151818401526020810190506110bf565b50505050905090810190601f1680156111075780820380516001836020036101000a031916815260200191505b509550505050505060405180910390f35b34801561112457600080fd5b506111676004803603602081101561113b57600080fd5b81019080803573ffffffffffffffffffffffffffffffffffffffff1690602001909291905050506131f9565b005b34801561117557600080fd5b506111b66004803603606081101561118c57600080fd5b810190808035906020019092919080359060200190929190803590602001909291905050506132b6565b005b60006111f960405180807f53544f52455f4f574e4552000000000000000000000000000000000000000000815250600b019050604051809103902083612a86565b9050919050565b611209336123a5565b61127b576040517f08c379a00000000000000000000000000000000000000000000000000000000081526004018080602001828103825260198152602001807f5265737472696374656420746f2053746f72654f776e65722e0000000000000081525060200191505060405180910390fd5b803373ffffffffffffffffffffffffffffffffffffffff166003600083815260200190815260200160002060020160009054906101000a900473ffffffffffffffffffffffffffffffffffffffff1673ffffffffffffffffffffffffffffffffffffffff1614611353576040517f08c379a00000000000000000000000000000000000000000000000000000000081526004018080602001828103825260198152602001807f5265737472696374656420746f2053746f72654f776e65722e0000000000000081525060200191505060405180910390fd5b600160009054906101000a900460ff16156113d6576040517f08c379a00000000000000000000000000000000000000000000000000000000081526004018080602001828103825260108152602001807f5061757361626c653a207061757365640000000000000000000000000000000081525060200191505060405180910390fd5b60008090505b60055481101561150c5782600460008381526020019081526020016000206003015414156114f257600460008281526020019081526020016000206000808201600090556001820160006114309190613a9e565b600282016000905560038201600090556004820160006101000a81549060ff02191690556004820160016101000a81549073ffffffffffffffffffffffffffffffffffffffff02191690556005820160006101000a81549073ffffffffffffffffffffffffffffffffffffffff021916905550507f07015631cff457b5b13492c2045e70c6305a0a4aa773e432e79abbe2cf52c1eb60046000838152602001908152602001600020600001546040518082815260200191505060405180910390a15b61150660018261351090919063ffffffff16565b506113dc565b507fa80990a022db750a9e2caf60be3e96096bfb7a98e01506413190227406ba9824826040518082815260200191505060405180910390a15050565b6000611553336123a5565b6115c5576040517f08c379a00000000000000000000000000000000000000000000000000000000081526004018080602001828103825260198152602001807f5265737472696374656420746f2053746f72654f776e65722e0000000000000081525060200191505060405180910390fd5b600160009054906101000a900460ff1615611648576040517f08c379a00000000000000000000000000000000000000000000000000000000081526004018080602001828103825260108152602001807f5061757361626c653a207061757365640000000000000000000000000000000081525060200191505060405180910390fd5b6040518060e0016040528060055481526020018581526020018481526020018381526020016000600181111561167a57fe5b81526020013373ffffffffffffffffffffffffffffffffffffffff168152602001600073ffffffffffffffffffffffffffffffffffffffff168152506004600060055481526020019081526020016000206000820151816000015560208201518160010190805190602001906116f1929190613ae6565b50604082015181600201556060820151816003015560808201518160040160006101000a81548160ff0219169083600181111561172a57fe5b021790555060a08201518160040160016101000a81548173ffffffffffffffffffffffffffffffffffffffff021916908373ffffffffffffffffffffffffffffffffffffffff16021790555060c08201518160050160006101000a81548173ffffffffffffffffffffffffffffffffffffffff021916908373ffffffffffffffffffffffffffffffffffffffff1602179055509050507fb47064f137db457a23f0999063b78d3911cd5604e0eea6e1220725f595d545076005548585856040518085815260200180602001848152602001838152602001828103825285818151815260200191508051906020019080838360005b8381101561183957808201518184015260208101905061181e565b50505050905090810190601f1680156118665780820380516001836020036101000a031916815260200191505b509550505050505060405180910390a17f4627c48065af2a9648cbecdd4b9da340c00e501243cd49a8a71c30c987e8b7616005546040518082815260200191505060405180910390a16118c5600160055461351090919063ffffffff16565b600581905550600190509392505050565b60006118e1336123a5565b611953576040517f08c379a00000000000000000000000000000000000000000000000000000000081526004018080602001828103825260198152602001807f5265737472696374656420746f2053746f72654f776e65722e0000000000000081525060200191505060405180910390fd5b813373ffffffffffffffffffffffffffffffffffffffff166003600083815260200190815260200160002060020160009054906101000a900473ffffffffffffffffffffffffffffffffffffffff1673ffffffffffffffffffffffffffffffffffffffff1614611a2b576040517f08c379a00000000000000000000000000000000000000000000000000000000081526004018080602001828103825260198152602001807f5265737472696374656420746f2053746f72654f776e65722e0000000000000081525060200191505060405180910390fd5b600160009054906101000a900460ff1615611aae576040517f08c379a00000000000000000000000000000000000000000000000000000000081526004018080602001828103825260108152602001807f5061757361626c653a207061757365640000000000000000000000000000000081525060200191505060405180910390fd5b600280541415611b26576040517f08c379a000000000000000000000000000000000000000000000000000000000815260040180806020018281038252601f8152602001807f5265656e7472616e637947756172643a207265656e7472616e742063616c6c0081525060200191505060405180910390fd5b600280819055506000600360008581526020019081526020016000206003015411611b5057600080fd5b600060036000858152602001908152602001600020600301549050600060036000868152602001908152602001600020600301819055503373ffffffffffffffffffffffffffffffffffffffff166108fc829081150290604051600060405180830381858888f19350505050158015611bcd573d6000803e3d6000fd5b507efa835badd2ac7cadcd302547c91df2ec74e1fc02fc068c3f53f4ecff6363548482604051808381526020018281526020019250505060405180910390a16001925050600160028190555050919050565b6000806000838152602001908152602001600020600201549050919050565b6000611c4d6000801b83612ab7565b9050919050565b611c7a60008084815260200190815260200160002060020154611c75613598565b612ab7565b611ccf576040517f08c379a000000000000000000000000000000000000000000000000000000000815260040180806020018281038252602f815260200180613bae602f913960400191505060405180910390fd5b611cd982826135a0565b5050565b611ce5613598565b73ffffffffffffffffffffffffffffffffffffffff168173ffffffffffffffffffffffffffffffffffffffff1614611d68576040517f08c379a000000000000000000000000000000000000000000000000000000000815260040180806020018281038252602f815260200180613c0d602f913960400191505060405180910390fd5b611d728282613633565b5050565b60008160006001811115611d8657fe5b6004600083815260200190815260200160002060040160009054906101000a900460ff166001811115611db557fe5b148015611dd957506000600460008381526020019081526020016000206002015410155b611de257600080fd5b600460008481526020019081526020016000206002015480341015611e0657600080fd5b83600160009054906101000a900460ff1615611e8a576040517f08c379a00000000000000000000000000000000000000000000000000000000081526004018080602001828103825260108152602001807f5061757361626c653a207061757365640000000000000000000000000000000081525060200191505060405180910390fd5b600280541415611f02576040517f08c379a000000000000000000000000000000000000000000000000000000000815260040180806020018281038252601f8152602001807f5265656e7472616e637947756172643a207265656e7472616e742063616c6c0081525060200191505060405180910390fd5b60028081905550336004600087815260200190815260200160002060050160006101000a81548173ffffffffffffffffffffffffffffffffffffffff021916908373ffffffffffffffffffffffffffffffffffffffff16021790555060016004600087815260200190815260200160002060040160006101000a81548160ff02191690836001811115611f9157fe5b0217905550611fd53460036000600460008a81526020019081526020016000206003015481526020019081526020016000206003015461351090919063ffffffff16565b507fe64ca8c671e48636f85f3008c1dd538e36bfa74fb6f2790b56b72fcc33b879ef856040518082815260200191505060405180910390a1600193506001600281905550600060046000838152602001908152602001600020600201549050600061204982346136c690919063ffffffff16565b90506004600084815260200190815260200160002060050160009054906101000a900473ffffffffffffffffffffffffffffffffffffffff1673ffffffffffffffffffffffffffffffffffffffff166108fc829081150290604051600060405180830381858888f193505050501580156120c7573d6000803e3d6000fd5b505050505050919050565b6000600554905090565b6120e5336123a5565b612157576040517f08c379a00000000000000000000000000000000000000000000000000000000081526004018080602001828103825260198152602001807f5265737472696374656420746f2053746f72654f776e65722e0000000000000081525060200191505060405180910390fd5b803373ffffffffffffffffffffffffffffffffffffffff166003600083815260200190815260200160002060020160009054906101000a900473ffffffffffffffffffffffffffffffffffffffff1673ffffffffffffffffffffffffffffffffffffffff161461222f576040517f08c379a00000000000000000000000000000000000000000000000000000000081526004018080602001828103825260198152602001807f5265737472696374656420746f2053746f72654f776e65722e0000000000000081525060200191505060405180910390fd5b600160009054906101000a900460ff16156122b2576040517f08c379a00000000000000000000000000000000000000000000000000000000081526004018080602001828103825260108152602001807f5061757361626c653a207061757365640000000000000000000000000000000081525060200191505060405180910390fd5b600460008481526020019081526020016000206000808201600090556001820160006122de9190613a9e565b600282016000905560038201600090556004820160006101000a81549060ff02191690556004820160016101000a81549073ffffffffffffffffffffffffffffffffffffffff02191690556005820160006101000a81549073ffffffffffffffffffffffffffffffffffffffff021916905550507f07015631cff457b5b13492c2045e70c6305a0a4aa773e432e79abbe2cf52c1eb836040518082815260200191505060405180910390a1505050565b6000600160009054906101000a900460ff16905090565b60006123e660405180807f53544f52455f4f574e4552000000000000000000000000000000000000000000815250600b019050604051809103902083612ab7565b9050919050565b6123f633612de4565b612468576040517f08c379a000000000000000000000000000000000000000000000000000000000815260040180806020018281038252601a8152602001807f5265737472696374656420746f204d61726b657441646d696e2e00000000000081525060200191505060405180910390fd5b6124a760405180807f53544f52455f4f574e4552000000000000000000000000000000000000000000815250600b019050604051809103902082613049565b50565b6124b3336123a5565b612525576040517f08c379a00000000000000000000000000000000000000000000000000000000081526004018080602001828103825260198152602001807f5265737472696374656420746f2053746f72654f776e65722e0000000000000081525060200191505060405180910390fd5b600160009054906101000a900460ff16156125a8576040517f08c379a00000000000000000000000000000000000000000000000000000000081526004018080602001828103825260108152602001807f5061757361626c653a207061757365640000000000000000000000000000000081525060200191505060405180910390fd5b604051806080016040528060065481526020018281526020013373ffffffffffffffffffffffffffffffffffffffff168152602001600081525060036000600654815260200190815260200160002060008201518160000155602082015181600101908051906020019061261d929190613ae6565b5060408201518160020160006101000a81548173ffffffffffffffffffffffffffffffffffffffff021916908373ffffffffffffffffffffffffffffffffffffffff16021790555060608201518160030155905050612688600160065461351090919063ffffffff16565b507f5498ef7bd71610f6fcee71a30d782124db98071203d7e0a4bb248861711999906006548233600060405180858152602001806020018473ffffffffffffffffffffffffffffffffffffffff1673ffffffffffffffffffffffffffffffffffffffff168152602001838152602001828103825285818151815260200191508051906020019080838360005b8381101561272f578082015181840152602081019050612714565b50505050905090810190601f16801561275c5780820380516001836020036101000a031916815260200191505b509550505050505060405180910390a150565b60405180807f53544f52455f4f574e4552000000000000000000000000000000000000000000815250600b019050604051809103902081565b6127b133611c3e565b612823576040517f08c379a00000000000000000000000000000000000000000000000000000000081526004018080602001828103825260158152602001807f5265737472696374656420746f2061646d696e732e000000000000000000000081525060200191505060405180910390fd5b6128306000801b82611c54565b50565b6004602052806000526040600020600091509050806000015490806001018054600181600116156101000203166002900480601f0160208091040260200160405190810160405280929190818152602001828054600181600116156101000203166002900480156128e55780601f106128ba576101008083540402835291602001916128e5565b820191906000526020600020905b8154815290600101906020018083116128c857829003601f168201915b5050505050908060020154908060030154908060040160009054906101000a900460ff16908060040160019054906101000a900473ffffffffffffffffffffffffffffffffffffffff16908060050160009054906101000a900473ffffffffffffffffffffffffffffffffffffffff16905087565b60006060600080600360008681526020019081526020016000206001018054600181600116156101000203166002900480601f016020809104026020016040519081016040528092919081815260200182805460018160011615610100020316600290048015612a0b5780601f106129e057610100808354040283529160200191612a0b565b820191906000526020600020905b8154815290600101906020018083116129ee57829003601f168201915b505050505092506003600086815260200190815260200160002060020160009054906101000a900473ffffffffffffffffffffffffffffffffffffffff169150600360008681526020019081526020016000206003015490508483838393509350935093509193509193565b612a846000801b33611cdd565b565b6000612aaf8260008086815260200190815260200160002060000161371090919063ffffffff16565b905092915050565b6000612ae08260008086815260200190815260200160002060000161372a90919063ffffffff16565b905092915050565b6000612b2860405180807f4d41524b45545f41444d494e5f524f4c4500000000000000000000000000000081525060110190506040518091039020613023565b905090565b6000600654905090565b612b4033612de4565b612bb2576040517f08c379a000000000000000000000000000000000000000000000000000000000815260040180806020018281038252601a8152602001807f5265737472696374656420746f204d61726b657441646d696e2e00000000000081525060200191505060405180910390fd5b612bf160405180807f53544f52455f4f574e4552000000000000000000000000000000000000000000815250600b019050604051809103902082611c54565b50565b612bfd336123a5565b612c6f576040517f08c379a00000000000000000000000000000000000000000000000000000000081526004018080602001828103825260198152602001807f5265737472696374656420746f2053746f72654f776e65722e0000000000000081525060200191505060405180910390fd5b600160009054906101000a900460ff1615612cf2576040517f08c379a00000000000000000000000000000000000000000000000000000000081526004018080602001828103825260108152602001807f5061757361626c653a207061757365640000000000000000000000000000000081525060200191505060405180910390fd5b612cfb81611200565b60036000828152602001908152602001600020600080820160009055600182016000612d279190613a9e565b6002820160006101000a81549073ffffffffffffffffffffffffffffffffffffffff0219169055600382016000905550507fb500ab3f4b111e50e443925c5af6e6355475364757d656efb1023cd573324768816040518082815260200191505060405180910390a150565b6000612dd260405180807f53544f52455f4f574e4552000000000000000000000000000000000000000000815250600b0190506040518091039020613023565b905090565b60065481565b6000801b81565b6000612e2560405180807f4d41524b45545f41444d494e5f524f4c450000000000000000000000000000008152506011019050604051809103902083612ab7565b9050919050565b612e3533611c3e565b612ea7576040517f08c379a00000000000000000000000000000000000000000000000000000000081526004018080602001828103825260158152602001807f5265737472696374656420746f2061646d696e732e000000000000000000000081525060200191505060405180910390fd5b612ee660405180807f4d41524b45545f41444d494e5f524f4c450000000000000000000000000000008152506011019050604051809103902082613049565b50565b60606000806004600085815260200190815260200160002060010160046000868152602001908152602001600020600201546004600087815260200190815260200160002060030154828054600181600116156101000203166002900480601f016020809104026020016040519081016040528092919081815260200182805460018160011615610100020316600290048015612fc75780601f10612f9c57610100808354040283529160200191612fc7565b820191906000526020600020905b815481529060010190602001808311612faa57829003601f168201915b505050505092509250925092509193909250565b600061301c60405180807f4d41524b45545f41444d494e5f524f4c450000000000000000000000000000008152506011019050604051809103902083612a86565b9050919050565b600061304260008084815260200190815260200160002060000161375a565b9050919050565b61306f6000808481526020019081526020016000206002015461306a613598565b612ab7565b6130c4576040517f08c379a0000000000000000000000000000000000000000000000000000000008152600401808060200182810382526030815260200180613bdd6030913960400191505060405180910390fd5b6130ce8282613633565b5050565b60405180807f4d41524b45545f41444d494e5f524f4c450000000000000000000000000000008152506011019050604051809103902081565b60055481565b6003602052806000526040600020600091509050806000015490806001018054600181600116156101000203166002900480601f0160208091040260200160405190810160405280929190818152602001828054600181600116156101000203166002900480156131c35780601f10613198576101008083540402835291602001916131c3565b820191906000526020600020905b8154815290600101906020018083116131a657829003601f168201915b5050505050908060020160009054906101000a900473ffffffffffffffffffffffffffffffffffffffff16908060030154905084565b61320233611c3e565b613274576040517f08c379a00000000000000000000000000000000000000000000000000000000081526004018080602001828103825260158152602001807f5265737472696374656420746f2061646d696e732e000000000000000000000081525060200191505060405180910390fd5b6132b360405180807f4d41524b45545f41444d494e5f524f4c450000000000000000000000000000008152506011019050604051809103902082611c54565b50565b6132bf336123a5565b613331576040517f08c379a00000000000000000000000000000000000000000000000000000000081526004018080602001828103825260198152602001807f5265737472696374656420746f2053746f72654f776e65722e0000000000000081525060200191505060405180910390fd5b803373ffffffffffffffffffffffffffffffffffffffff166003600083815260200190815260200160002060020160009054906101000a900473ffffffffffffffffffffffffffffffffffffffff1673ffffffffffffffffffffffffffffffffffffffff1614613409576040517f08c379a00000000000000000000000000000000000000000000000000000000081526004018080602001828103825260198152602001807f5265737472696374656420746f2053746f72654f776e65722e0000000000000081525060200191505060405180910390fd5b600160009054906101000a900460ff161561348c576040517f08c379a00000000000000000000000000000000000000000000000000000000081526004018080602001828103825260108152602001807f5061757361626c653a207061757365640000000000000000000000000000000081525060200191505060405180910390fd5b6000600460008681526020019081526020016000206002015490508360046000878152602001908152602001600020600201819055507f85326753e04f600bd6af5ac2ef1e4b5cce8f97ff58b3e90733151aefc7aae77a85828660405180848152602001838152602001828152602001935050505060405180910390a15050505050565b60008082840190508381101561358e576040517f08c379a000000000000000000000000000000000000000000000000000000000815260040180806020018281038252601b8152602001807f536166654d6174683a206164646974696f6e206f766572666c6f77000000000081525060200191505060405180910390fd5b8091505092915050565b600033905090565b6135c78160008085815260200190815260200160002060000161376f90919063ffffffff16565b1561362f576135d4613598565b73ffffffffffffffffffffffffffffffffffffffff168173ffffffffffffffffffffffffffffffffffffffff16837f2f8788117e7eff1d82e926ec794901d17c78024a50270940304540a733656f0d60405160405180910390a45b5050565b61365a8160008085815260200190815260200160002060000161379f90919063ffffffff16565b156136c257613667613598565b73ffffffffffffffffffffffffffffffffffffffff168173ffffffffffffffffffffffffffffffffffffffff16837ff6391f5c32d9c69d2a47ea670b442974b53935d1edc7fd64eb21e047a839171b60405160405180910390a45b5050565b600061370883836040518060400160405280601e81526020017f536166654d6174683a207375627472616374696f6e206f766572666c6f7700008152506137cf565b905092915050565b600061371f836000018361388f565b60001c905092915050565b6000613752836000018373ffffffffffffffffffffffffffffffffffffffff1660001b613912565b905092915050565b600061376882600001613935565b9050919050565b6000613797836000018373ffffffffffffffffffffffffffffffffffffffff1660001b613946565b905092915050565b60006137c7836000018373ffffffffffffffffffffffffffffffffffffffff1660001b6139b6565b905092915050565b600083831115829061387c576040517f08c379a00000000000000000000000000000000000000000000000000000000081526004018080602001828103825283818151815260200191508051906020019080838360005b83811015613841578082015181840152602081019050613826565b50505050905090810190601f16801561386e5780820380516001836020036101000a031916815260200191505b509250505060405180910390fd5b5060008385039050809150509392505050565b6000818360000180549050116138f0576040517f08c379a0000000000000000000000000000000000000000000000000000000008152600401808060200182810382526022815260200180613b8c6022913960400191505060405180910390fd5b8260000182815481106138ff57fe5b9060005260206000200154905092915050565b600080836001016000848152602001908152602001600020541415905092915050565b600081600001805490509050919050565b60006139528383613912565b6139ab5782600001829080600181540180825580915050600190039060005260206000200160009091909190915055826000018054905083600101600084815260200190815260200160002081905550600190506139b0565b600090505b92915050565b60008083600101600084815260200190815260200160002054905060008114613a925760006001820390506000600186600001805490500390506000866000018281548110613a0157fe5b9060005260206000200154905080876000018481548110613a1e57fe5b9060005260206000200181905550600183018760010160008381526020019081526020016000208190555086600001805480613a5657fe5b60019003818190600052602060002001600090559055866001016000878152602001908152602001600020600090556001945050505050613a98565b60009150505b92915050565b50805460018160011615610100020316600290046000825580601f10613ac45750613ae3565b601f016020900490600052602060002090810190613ae29190613b66565b5b50565b828054600181600116156101000203166002900490600052602060002090601f016020900481019282601f10613b2757805160ff1916838001178555613b55565b82800160010185558215613b55579182015b82811115613b54578251825591602001919060010190613b39565b5b509050613b629190613b66565b5090565b613b8891905b80821115613b84576000816000905550600101613b6c565b5090565b9056fe456e756d657261626c655365743a20696e646578206f7574206f6620626f756e6473416363657373436f6e74726f6c3a2073656e646572206d75737420626520616e2061646d696e20746f206772616e74416363657373436f6e74726f6c3a2073656e646572206d75737420626520616e2061646d696e20746f207265766f6b65416363657373436f6e74726f6c3a2063616e206f6e6c792072656e6f756e636520726f6c657320666f722073656c66a26469706673582212202b27fc28e3692305bb25ac2bc755025a06fb567bd7669d2f2f6174ca4393d07e64736f6c63430006020033",
  "source": "pragma solidity >=0.5.16<0.8.0;\n\nimport \"@openzeppelin/contracts/math/SafeMath.sol\";\nimport \"@openzeppelin/contracts/utils/Pausable.sol\";\nimport \"@openzeppelin/contracts/utils/ReentrancyGuard.sol\";\nimport \"./Administered.sol\";\n\n/// @title A simulator for Market Place\n/// @author Aysha Amin\n/// @notice You can use this contract for only the most basic simulation\ncontract Marketplace is Administered, Pausable, ReentrancyGuard{\n\nusing SafeMath for uint256;\n  struct Store{\n\t\tuint256 id; \n\t\tstring name;\n\t\taddress owner; \n\t\tuint256 balance; \n\t}\n  struct Product{\n    uint256 id;\n    string name;\n    uint256 price;\n    uint storeId; \n    State state;\n    address payable seller;\n    address payable buyer;\n  }\n  enum State{\n    ForSale,\n    Sold\n  }\n\n\tmapping (uint256 => Store) public stores; \n  mapping (uint256 => Product) public products;\n  uint256 public productCount;\n  uint256 public storeCount;\n\n\n  constructor() public \n  {\n    /* Here, set the owner as the person who instantiated the contract\n       and set your idCount to 0. */\n       //owner=msg.sender;\n       _setupRole(DEFAULT_ADMIN_ROLE, msg.sender);\n    //_setupRole(MARKET_ADMIN_ROLE, msg.sender);\n    _setRoleAdmin(MARKET_ADMIN_ROLE, DEFAULT_ADMIN_ROLE);\n    _setRoleAdmin(STORE_OWNER_ROLE, MARKET_ADMIN_ROLE);\n       productCount=0;\n       storeCount=0;\n  }\n\n  event LogForSale(uint256 id);\n  event LogSold(uint256 id);\n  event LogStoreAdded (\n\t\tuint256 id, \n\t\tstring name, \n\t\taddress owner, \n\t\tuint256 balance);\n\n  event LogProductAdded (\n\t\tuint256 id, \n\t\tstring name, \n\t\tuint256 price, \n\t\tuint256 storeId);\n  event LogWithdrawStoreBalance(\n    uint256 storeId,\n\t\tuint256 amount\n  );\n  event LogPriceUpdated(\n    uint256 id, \n\t\tuint256 oldPrice, \n\t\tuint256 newPrice\n  );\n  event ProductRemoved(uint256 _productId);\n  event ProductsRemoved(uint256 _storeId);\n  event StoreRemoved(uint256 _storeId);\n\n\n  modifier forSale(uint256 _productId){require(products[_productId].state == State.ForSale && products[_productId].price >= 0); _;}\n  modifier sold(uint256 _productId){require(products[_productId].state == State.Sold && products[_productId].buyer != address(0)); _;}\n  modifier paidEnough(uint256 _price) { require(msg.value >= _price); _;}\n  modifier checkValue(uint256 _productId) {\n    //refund them after pay for item (why it is before, _ checks for logic before func)\n    _;\n    uint256 _price = products[_productId].price;\n    uint256 amountToRefund = msg.value.sub(_price) ;\n    products[_productId].buyer.transfer(amountToRefund);\n  }\n  \n  modifier onlyOwnerOfThisStore(uint256 _storeId)\n  {\n    require(stores[_storeId].owner == msg.sender, \"Restricted to StoreOwner.\");\n    _;\n  }\n\n  /// @dev Add a Store.\n\t/// @param _name Name of Store to Add \n  \n  function addStore(string memory _name)\n  onlyStoreOwner\n  whenNotPaused\n  public\n  //returns(bool)\n  {\n    stores[storeCount] = Store({ id: storeCount,name: _name, owner: msg.sender, balance: 0});\n    \n    //++storeCount;\n    storeCount.add(1);\n    emit LogStoreAdded(storeCount, _name, msg.sender, 0);\n    //return true;\n  }\n  \n  /// @dev Get Store Count.\n  /// @return The count of the stores\n  function getStoreCount() \n  public \n  view \n  returns (uint256) {\n    return storeCount;\n  } \n\n  /// @dev Get a Store.\n\t/// @param _storeId ID of Store to Get \n  function getStore(uint256 _storeId) \n  public \n  view \n  returns (uint256 id,string memory name, address owner, uint256 balance) {\n    name = stores[_storeId].name;\n    owner = stores[_storeId].owner;\n    balance = stores[_storeId].balance;\n    return (_storeId,name, owner, balance);\n  } \n\n  /// @dev Remove a Store.\n\t/// @param _storeId ID of Store to Remove \n  function removeStore(uint256 _storeId)\n  onlyStoreOwner\n  whenNotPaused\n  public\n  {\n    removeStoreProducts(_storeId);\n    delete stores[_storeId];\n\t\temit StoreRemoved(_storeId);\n  }\n\n  /// @dev Add a product.\n\t/// @param _name Name of product to Add \n  /// @param _price Price ID for product \n  /// @param _storeId Store ID for product to Add \n  function addProduct(string memory _name,uint256 _price,uint256  _storeId)\n    onlyStoreOwner\n    whenNotPaused\n    public\n    returns(bool)\n  {\n    products[productCount] = Product({name: _name, id: productCount, price: _price, storeId:_storeId ,state: State.ForSale, seller: msg.sender, buyer: address(0)});\n    emit LogProductAdded(productCount, _name,_price, _storeId);\n    emit LogForSale(productCount);\n    productCount = productCount.add(1);\n    return true;\n  }\n\n  /// @dev Get a product.\n\t/// @param _productId ID of product to Get \n  function getProduct(uint256 _productId)\n\tview \n\tpublic\n\treturns (string memory, uint256, uint256) {\n\n\t\treturn ( products[_productId].name,\n\t\t\t\tproducts[_productId].price,\n\t\t\t\tproducts[_productId].storeId\n        );\n\t}\n\n  /// @dev Get Product Count.\n  /// @return The count of the Products\n  function getProductCount() \n  public \n  view \n  returns (uint256) {\n    return productCount;\n  } \n\n  /// @dev update a product.\n  /// @param _productId ID of product to Update \n  /// @param _price New Price ID for product \n  /// @param _storeId Store ID for product to Update \n  function updateProduct(uint256 _productId, uint256 _price, uint256 _storeId) \n  onlyStoreOwner\n  onlyOwnerOfThisStore(_storeId)\n  whenNotPaused\n  public {\n    uint256 oldPrice=products[_productId].price;\n\t\tproducts[_productId].price=_price;\n\t\temit LogPriceUpdated(_productId, oldPrice, _price);\n  }\n\n  /// @dev Removes a product.\n\t/// @param _storeId Store ID for product to remove \n\t/// @param _productId ID of product to remove \n  function removeProduct(uint256 _productId,uint256 _storeId)\n  onlyStoreOwner\n  onlyOwnerOfThisStore(_storeId)\n  whenNotPaused\n  public\n  {\n\t\tdelete products[_productId];\n\t\temit ProductRemoved(_productId);\n  }\n\n  /// @dev Removes products from store.\n\t/// @param _storeId Storefront ID for products to remove \n  function removeStoreProducts(uint256 _storeId)\n  onlyStoreOwner\n  onlyOwnerOfThisStore(_storeId)\n  whenNotPaused\n  public\n  {\n\t\tfor(uint i=0; i<productCount; i.add(1)) {\n\t\t\tif ( products[i].storeId == _storeId) {\n\t\t\t\tdelete products[i];\n\t\t\t\temit ProductRemoved(products[i].id);\n\t\t\t}\n\t\t}\n    emit ProductsRemoved(_storeId);\n  }\n\n  /// @dev Purchase a product.\n  /// @param _productId ID of product to Purchase \n  /// @return The Product Purchased\n  function purchaseProduct(uint256 _productId)\n  payable\n  forSale(_productId) \n  paidEnough(products[_productId].price) \n  checkValue(_productId)\n  whenNotPaused\n  nonReentrant\n  public\n  returns (bool)\n  {\n    products[_productId].buyer = msg.sender;\n    products[_productId].state = State.Sold;\n    stores[products[_productId].storeId].balance.add(msg.value);\n    emit LogSold(_productId);\n    return true;\n  }\n\n  /// @dev Withdraw The Store Balance.\n  /// @param _storeId ID of Store to Withdraw \n  /// @return The Withdraw Done\n  function withdrawStoreBalance(uint256 _storeId) \n  payable\n\tonlyStoreOwner\n  onlyOwnerOfThisStore(_storeId)\n\twhenNotPaused\n  nonReentrant\n\tpublic \n  returns (bool)\n  {\n\t\trequire(stores[_storeId].balance > 0);\n\t\tuint storeBalance = stores[_storeId].balance;\n    stores[_storeId].balance = 0;\n\t\tmsg.sender.transfer(storeBalance);\n\t\temit LogWithdrawStoreBalance(_storeId, storeBalance);\n\t\treturn true;\n\t}\n\n}",
  "sourcePath": "/home/aysha/Github/Online-Marketplace/contracts/Marketplace.sol",
  "compiler": {
    "name": "solc",
    "version": "0.6.2+commit.bacdbe57.Emscripten.clang"
  },
  "schemaVersion": "3.3.2",
  "updatedAt": "2020-12-02T18:42:53.974Z",
  "networkType": "ethereum",
  "devdoc": {
    "author": "Aysha Amin",
    "methods": {
      "addAdmin(address)": {
        "details": "Add an account to the admin role. Restricted to admins.",
        "params": {
          "account": "address of account to Add as Admin."
        }
      },
      "addMarketAdmin(address)": {
        "details": "Add an account to the admin role. Restricted to admins.",
        "params": {
          "account": "address of account to to Add as MarketAdmin."
        }
      },
      "addProduct(string,uint256,uint256)": {
        "details": "Add a product.",
        "params": {
          "_name": "Name of product to Add ",
          "_price": "Price ID for product ",
          "_storeId": "Store ID for product to Add "
        }
      },
      "addStore(string)": {
        "details": "Add a Store.",
        "params": {
          "_name": "Name of Store to Add "
        }
      },
      "addStoreOwner(address)": {
        "details": "Add an account to the user role. Restricted to MarketAdmins.",
        "params": {
          "account": "address of account to Add as StoreOwner."
        }
      },
      "getMarketAdminMember(uint256)": {
        "details": "get MarketAdminMember. Restricted to Admins.",
        "returns": {
          "_0": "MarketAdmin Member."
        }
      },
      "getMarketAdminsCount()": {
        "details": "get MarketAdminsCount. Restricted to Admins.",
        "returns": {
          "_0": "MarketAdmins Count."
        }
      },
      "getProduct(uint256)": {
        "details": "Get a product.",
        "params": {
          "_productId": "ID of product to Get "
        }
      },
      "getProductCount()": {
        "details": "Get Product Count.",
        "returns": {
          "_0": "The count of the Products"
        }
      },
      "getRoleAdmin(bytes32)": {
        "details": "Returns the admin role that controls `role`. See {grantRole} and {revokeRole}.     * To change a role's admin, use {_setRoleAdmin}."
      },
      "getRoleMember(bytes32,uint256)": {
        "details": "Returns one of the accounts that have `role`. `index` must be a value between 0 and {getRoleMemberCount}, non-inclusive.     * Role bearers are not sorted in any particular way, and their ordering may change at any point.     * WARNING: When using {getRoleMember} and {getRoleMemberCount}, make sure you perform all queries on the same block. See the following https://forum.openzeppelin.com/t/iterating-over-elements-on-enumerableset-in-openzeppelin-contracts/2296[forum post] for more information."
      },
      "getRoleMemberCount(bytes32)": {
        "details": "Returns the number of accounts that have `role`. Can be used together with {getRoleMember} to enumerate all bearers of a role."
      },
      "getStore(uint256)": {
        "details": "Get a Store.",
        "params": {
          "_storeId": "ID of Store to Get "
        }
      },
      "getStoreCount()": {
        "details": "Get Store Count.",
        "returns": {
          "_0": "The count of the stores"
        }
      },
      "getStoreOwnerMember(uint256)": {
        "details": "get StoreOwnerMember. Restricted to MarketAdmins.",
        "returns": {
          "_0": "StoreOwners Member."
        }
      },
      "getStoreOwnersCount()": {
        "details": "get MarketAdminsCount. Restricted to MarketAdmins.",
        "returns": {
          "_0": "StoreOwners Count."
        }
      },
      "grantRole(bytes32,address)": {
        "details": "Grants `role` to `account`.     * If `account` had not been already granted `role`, emits a {RoleGranted} event.     * Requirements:     * - the caller must have ``role``'s admin role."
      },
      "hasRole(bytes32,address)": {
        "details": "Returns `true` if `account` has been granted `role`."
      },
      "isAdmin(address)": {
        "details": "Return `true` if the account belongs to the admin role.",
        "params": {
          "account": "address of account to check is admin."
        }
      },
      "isMarketAdmin(address)": {
        "details": "Return `true` if the account belongs to the MarketAdmin role.",
        "params": {
          "account": "address of account to check is MarketAdmin."
        }
      },
      "isStoreOwner(address)": {
        "details": "Return `true` if the account belongs to the StoreOwner role.",
        "params": {
          "account": "address of account to check is StoreOwner."
        }
      },
      "paused()": {
        "details": "Returns true if the contract is paused, and false otherwise."
      },
      "purchaseProduct(uint256)": {
        "details": "Purchase a product.",
        "params": {
          "_productId": "ID of product to Purchase "
        },
        "returns": {
          "_0": "The Product Purchased"
        }
      },
      "removeMarketAdmin(address)": {
        "details": "Remove an account from the MarketAdmin role. Restricted to admins.",
        "params": {
          "account": "address of account to Remove."
        }
      },
      "removeProduct(uint256,uint256)": {
        "details": "Removes a product.",
        "params": {
          "_productId": "ID of product to remove ",
          "_storeId": "Store ID for product to remove "
        }
      },
      "removeStore(uint256)": {
        "details": "Remove a Store.",
        "params": {
          "_storeId": "ID of Store to Remove "
        }
      },
      "removeStoreOwner(address)": {
        "details": "Remove an account from the StoreOwner role. Restricted to MarketAdmins.",
        "params": {
          "account": "address of account to Remove."
        }
      },
      "removeStoreProducts(uint256)": {
        "details": "Removes products from store.",
        "params": {
          "_storeId": "Storefront ID for products to remove "
        }
      },
      "renounceAdmin()": {
        "details": "Remove oneself from the admin role."
      },
      "renounceRole(bytes32,address)": {
        "details": "Revokes `role` from the calling account.     * Roles are often managed via {grantRole} and {revokeRole}: this function's purpose is to provide a mechanism for accounts to lose their privileges if they are compromised (such as when a trusted device is misplaced).     * If the calling account had been granted `role`, emits a {RoleRevoked} event.     * Requirements:     * - the caller must be `account`."
      },
      "revokeRole(bytes32,address)": {
        "details": "Revokes `role` from `account`.     * If `account` had been granted `role`, emits a {RoleRevoked} event.     * Requirements:     * - the caller must have ``role``'s admin role."
      },
      "updateProduct(uint256,uint256,uint256)": {
        "details": "update a product.",
        "params": {
          "_price": "New Price ID for product ",
          "_productId": "ID of product to Update ",
          "_storeId": "Store ID for product to Update "
        }
      },
      "withdrawStoreBalance(uint256)": {
        "details": "Withdraw The Store Balance.",
        "params": {
          "_storeId": "ID of Store to Withdraw "
        },
        "returns": {
          "_0": "The Withdraw Done"
        }
      }
    },
    "title": "A simulator for Market Place"
  },
  "userdoc": {
    "methods": {},
    "notice": "You can use this contract for only the most basic simulation"
  }
}