{
  "contractName": "Marketplace",
  "abi": [
    {
      "inputs": [],
      "stateMutability": "nonpayable",
      "type": "constructor"
    },
    {
      "anonymous": false,
      "inputs": [
        {
          "indexed": false,
          "internalType": "int32",
          "name": "id",
          "type": "int32"
        }
      ],
      "name": "LogForSale",
      "type": "event"
    },
    {
      "anonymous": false,
      "inputs": [
        {
          "indexed": false,
          "internalType": "int32",
          "name": "id",
          "type": "int32"
        },
        {
          "indexed": false,
          "internalType": "uint256",
          "name": "oldPrice",
          "type": "uint256"
        },
        {
          "indexed": false,
          "internalType": "uint256",
          "name": "newPrice",
          "type": "uint256"
        }
      ],
      "name": "LogPriceUpdated",
      "type": "event"
    },
    {
      "anonymous": false,
      "inputs": [
        {
          "indexed": false,
          "internalType": "int32",
          "name": "id",
          "type": "int32"
        },
        {
          "indexed": false,
          "internalType": "string",
          "name": "name",
          "type": "string"
        },
        {
          "indexed": false,
          "internalType": "uint256",
          "name": "price",
          "type": "uint256"
        },
        {
          "indexed": false,
          "internalType": "int32",
          "name": "storeId",
          "type": "int32"
        }
      ],
      "name": "LogProductAdded",
      "type": "event"
    },
    {
      "anonymous": false,
      "inputs": [
        {
          "indexed": false,
          "internalType": "int32",
          "name": "id",
          "type": "int32"
        }
      ],
      "name": "LogSold",
      "type": "event"
    },
    {
      "anonymous": false,
      "inputs": [
        {
          "indexed": false,
          "internalType": "int32",
          "name": "id",
          "type": "int32"
        },
        {
          "indexed": false,
          "internalType": "string",
          "name": "name",
          "type": "string"
        },
        {
          "indexed": false,
          "internalType": "address",
          "name": "owner",
          "type": "address"
        },
        {
          "indexed": false,
          "internalType": "uint256",
          "name": "balance",
          "type": "uint256"
        }
      ],
      "name": "LogStoreAdded",
      "type": "event"
    },
    {
      "anonymous": false,
      "inputs": [
        {
          "indexed": false,
          "internalType": "int32",
          "name": "storeId",
          "type": "int32"
        },
        {
          "indexed": false,
          "internalType": "uint256",
          "name": "amount",
          "type": "uint256"
        }
      ],
      "name": "LogWithdrawStoreBalance",
      "type": "event"
    },
    {
      "anonymous": false,
      "inputs": [
        {
          "indexed": false,
          "internalType": "address",
          "name": "account",
          "type": "address"
        }
      ],
      "name": "Paused",
      "type": "event"
    },
    {
      "anonymous": false,
      "inputs": [
        {
          "indexed": false,
          "internalType": "int32",
          "name": "_productId",
          "type": "int32"
        }
      ],
      "name": "ProductRemoved",
      "type": "event"
    },
    {
      "anonymous": false,
      "inputs": [
        {
          "indexed": false,
          "internalType": "int32",
          "name": "_storeId",
          "type": "int32"
        }
      ],
      "name": "ProductsRemoved",
      "type": "event"
    },
    {
      "anonymous": false,
      "inputs": [
        {
          "indexed": true,
          "internalType": "bytes32",
          "name": "role",
          "type": "bytes32"
        },
        {
          "indexed": true,
          "internalType": "bytes32",
          "name": "previousAdminRole",
          "type": "bytes32"
        },
        {
          "indexed": true,
          "internalType": "bytes32",
          "name": "newAdminRole",
          "type": "bytes32"
        }
      ],
      "name": "RoleAdminChanged",
      "type": "event"
    },
    {
      "anonymous": false,
      "inputs": [
        {
          "indexed": true,
          "internalType": "bytes32",
          "name": "role",
          "type": "bytes32"
        },
        {
          "indexed": true,
          "internalType": "address",
          "name": "account",
          "type": "address"
        },
        {
          "indexed": true,
          "internalType": "address",
          "name": "sender",
          "type": "address"
        }
      ],
      "name": "RoleGranted",
      "type": "event"
    },
    {
      "anonymous": false,
      "inputs": [
        {
          "indexed": true,
          "internalType": "bytes32",
          "name": "role",
          "type": "bytes32"
        },
        {
          "indexed": true,
          "internalType": "address",
          "name": "account",
          "type": "address"
        },
        {
          "indexed": true,
          "internalType": "address",
          "name": "sender",
          "type": "address"
        }
      ],
      "name": "RoleRevoked",
      "type": "event"
    },
    {
      "anonymous": false,
      "inputs": [
        {
          "indexed": false,
          "internalType": "int32",
          "name": "_storeId",
          "type": "int32"
        }
      ],
      "name": "StoreRemoved",
      "type": "event"
    },
    {
      "anonymous": false,
      "inputs": [
        {
          "indexed": false,
          "internalType": "address",
          "name": "account",
          "type": "address"
        }
      ],
      "name": "Unpaused",
      "type": "event"
    },
    {
      "inputs": [],
      "name": "DEFAULT_ADMIN_ROLE",
      "outputs": [
        {
          "internalType": "bytes32",
          "name": "",
          "type": "bytes32"
        }
      ],
      "stateMutability": "view",
      "type": "function",
      "constant": true
    },
    {
      "inputs": [],
      "name": "MARKET_ADMIN_ROLE",
      "outputs": [
        {
          "internalType": "bytes32",
          "name": "",
          "type": "bytes32"
        }
      ],
      "stateMutability": "view",
      "type": "function",
      "constant": true
    },
    {
      "inputs": [],
      "name": "STORE_OWNER_ROLE",
      "outputs": [
        {
          "internalType": "bytes32",
          "name": "",
          "type": "bytes32"
        }
      ],
      "stateMutability": "view",
      "type": "function",
      "constant": true
    },
    {
      "inputs": [
        {
          "internalType": "address",
          "name": "account",
          "type": "address"
        }
      ],
      "name": "addAdmin",
      "outputs": [],
      "stateMutability": "nonpayable",
      "type": "function"
    },
    {
      "inputs": [
        {
          "internalType": "address",
          "name": "account",
          "type": "address"
        }
      ],
      "name": "addMarketAdmin",
      "outputs": [],
      "stateMutability": "nonpayable",
      "type": "function"
    },
    {
      "inputs": [
        {
          "internalType": "address",
          "name": "account",
          "type": "address"
        }
      ],
      "name": "addStoreOwner",
      "outputs": [],
      "stateMutability": "nonpayable",
      "type": "function"
    },
    {
      "inputs": [
        {
          "internalType": "uint256",
          "name": "index",
          "type": "uint256"
        }
      ],
      "name": "getMarketAdminMember",
      "outputs": [
        {
          "internalType": "address",
          "name": "",
          "type": "address"
        }
      ],
      "stateMutability": "view",
      "type": "function",
      "constant": true
    },
    {
      "inputs": [],
      "name": "getMarketAdminsCount",
      "outputs": [
        {
          "internalType": "uint256",
          "name": "",
          "type": "uint256"
        }
      ],
      "stateMutability": "view",
      "type": "function",
      "constant": true
    },
    {
      "inputs": [
        {
          "internalType": "bytes32",
          "name": "role",
          "type": "bytes32"
        }
      ],
      "name": "getRoleAdmin",
      "outputs": [
        {
          "internalType": "bytes32",
          "name": "",
          "type": "bytes32"
        }
      ],
      "stateMutability": "view",
      "type": "function",
      "constant": true
    },
    {
      "inputs": [
        {
          "internalType": "bytes32",
          "name": "role",
          "type": "bytes32"
        },
        {
          "internalType": "uint256",
          "name": "index",
          "type": "uint256"
        }
      ],
      "name": "getRoleMember",
      "outputs": [
        {
          "internalType": "address",
          "name": "",
          "type": "address"
        }
      ],
      "stateMutability": "view",
      "type": "function",
      "constant": true
    },
    {
      "inputs": [
        {
          "internalType": "bytes32",
          "name": "role",
          "type": "bytes32"
        }
      ],
      "name": "getRoleMemberCount",
      "outputs": [
        {
          "internalType": "uint256",
          "name": "",
          "type": "uint256"
        }
      ],
      "stateMutability": "view",
      "type": "function",
      "constant": true
    },
    {
      "inputs": [
        {
          "internalType": "uint256",
          "name": "index",
          "type": "uint256"
        }
      ],
      "name": "getStoreOwnerMember",
      "outputs": [
        {
          "internalType": "address",
          "name": "",
          "type": "address"
        }
      ],
      "stateMutability": "view",
      "type": "function",
      "constant": true
    },
    {
      "inputs": [],
      "name": "getStoreOwnersCount",
      "outputs": [
        {
          "internalType": "uint256",
          "name": "",
          "type": "uint256"
        }
      ],
      "stateMutability": "view",
      "type": "function",
      "constant": true
    },
    {
      "inputs": [
        {
          "internalType": "bytes32",
          "name": "role",
          "type": "bytes32"
        },
        {
          "internalType": "address",
          "name": "account",
          "type": "address"
        }
      ],
      "name": "grantRole",
      "outputs": [],
      "stateMutability": "nonpayable",
      "type": "function"
    },
    {
      "inputs": [
        {
          "internalType": "bytes32",
          "name": "role",
          "type": "bytes32"
        },
        {
          "internalType": "address",
          "name": "account",
          "type": "address"
        }
      ],
      "name": "hasRole",
      "outputs": [
        {
          "internalType": "bool",
          "name": "",
          "type": "bool"
        }
      ],
      "stateMutability": "view",
      "type": "function",
      "constant": true
    },
    {
      "inputs": [
        {
          "internalType": "address",
          "name": "account",
          "type": "address"
        }
      ],
      "name": "isAdmin",
      "outputs": [
        {
          "internalType": "bool",
          "name": "",
          "type": "bool"
        }
      ],
      "stateMutability": "view",
      "type": "function",
      "constant": true
    },
    {
      "inputs": [
        {
          "internalType": "address",
          "name": "account",
          "type": "address"
        }
      ],
      "name": "isMarketAdmin",
      "outputs": [
        {
          "internalType": "bool",
          "name": "",
          "type": "bool"
        }
      ],
      "stateMutability": "view",
      "type": "function",
      "constant": true
    },
    {
      "inputs": [
        {
          "internalType": "address",
          "name": "account",
          "type": "address"
        }
      ],
      "name": "isStoreOwner",
      "outputs": [
        {
          "internalType": "bool",
          "name": "",
          "type": "bool"
        }
      ],
      "stateMutability": "view",
      "type": "function",
      "constant": true
    },
    {
      "inputs": [],
      "name": "paused",
      "outputs": [
        {
          "internalType": "bool",
          "name": "",
          "type": "bool"
        }
      ],
      "stateMutability": "view",
      "type": "function",
      "constant": true
    },
    {
      "inputs": [
        {
          "internalType": "address",
          "name": "account",
          "type": "address"
        }
      ],
      "name": "removeMarketAdmin",
      "outputs": [],
      "stateMutability": "nonpayable",
      "type": "function"
    },
    {
      "inputs": [
        {
          "internalType": "address",
          "name": "account",
          "type": "address"
        }
      ],
      "name": "removeStoreOwner",
      "outputs": [],
      "stateMutability": "nonpayable",
      "type": "function"
    },
    {
      "inputs": [],
      "name": "renounceAdmin",
      "outputs": [],
      "stateMutability": "nonpayable",
      "type": "function"
    },
    {
      "inputs": [
        {
          "internalType": "bytes32",
          "name": "role",
          "type": "bytes32"
        },
        {
          "internalType": "address",
          "name": "account",
          "type": "address"
        }
      ],
      "name": "renounceRole",
      "outputs": [],
      "stateMutability": "nonpayable",
      "type": "function"
    },
    {
      "inputs": [
        {
          "internalType": "bytes32",
          "name": "role",
          "type": "bytes32"
        },
        {
          "internalType": "address",
          "name": "account",
          "type": "address"
        }
      ],
      "name": "revokeRole",
      "outputs": [],
      "stateMutability": "nonpayable",
      "type": "function"
    },
    {
      "inputs": [
        {
          "internalType": "string",
          "name": "_name",
          "type": "string"
        }
      ],
      "name": "addStore",
      "outputs": [],
      "stateMutability": "nonpayable",
      "type": "function"
    },
    {
      "inputs": [],
      "name": "getStoreCount",
      "outputs": [
        {
          "internalType": "int32",
          "name": "",
          "type": "int32"
        }
      ],
      "stateMutability": "view",
      "type": "function",
      "constant": true
    },
    {
      "inputs": [
        {
          "internalType": "int32",
          "name": "_storeId",
          "type": "int32"
        }
      ],
      "name": "getStore",
      "outputs": [
        {
          "internalType": "int32",
          "name": "id",
          "type": "int32"
        },
        {
          "internalType": "string",
          "name": "name",
          "type": "string"
        },
        {
          "internalType": "address",
          "name": "owner",
          "type": "address"
        },
        {
          "internalType": "uint256",
          "name": "balance",
          "type": "uint256"
        }
      ],
      "stateMutability": "view",
      "type": "function",
      "constant": true
    },
    {
      "inputs": [
        {
          "internalType": "int32",
          "name": "_storeId",
          "type": "int32"
        }
      ],
      "name": "removeStore",
      "outputs": [],
      "stateMutability": "nonpayable",
      "type": "function"
    },
    {
      "inputs": [
        {
          "internalType": "string",
          "name": "_name",
          "type": "string"
        },
        {
          "internalType": "uint256",
          "name": "_price",
          "type": "uint256"
        },
        {
          "internalType": "int32",
          "name": "_storeId",
          "type": "int32"
        }
      ],
      "name": "addProduct",
      "outputs": [
        {
          "internalType": "bool",
          "name": "",
          "type": "bool"
        }
      ],
      "stateMutability": "nonpayable",
      "type": "function"
    },
    {
      "inputs": [
        {
          "internalType": "int32",
          "name": "_productId",
          "type": "int32"
        }
      ],
      "name": "getProduct",
      "outputs": [
        {
          "internalType": "string",
          "name": "",
          "type": "string"
        },
        {
          "internalType": "uint256",
          "name": "",
          "type": "uint256"
        },
        {
          "internalType": "int32",
          "name": "",
          "type": "int32"
        }
      ],
      "stateMutability": "view",
      "type": "function",
      "constant": true
    },
    {
      "inputs": [],
      "name": "getProductCount",
      "outputs": [
        {
          "internalType": "int32",
          "name": "",
          "type": "int32"
        }
      ],
      "stateMutability": "view",
      "type": "function",
      "constant": true
    },
    {
      "inputs": [
        {
          "internalType": "int32",
          "name": "_productId",
          "type": "int32"
        },
        {
          "internalType": "uint256",
          "name": "_price",
          "type": "uint256"
        },
        {
          "internalType": "int32",
          "name": "_storeId",
          "type": "int32"
        }
      ],
      "name": "updateProduct",
      "outputs": [],
      "stateMutability": "nonpayable",
      "type": "function"
    },
    {
      "inputs": [
        {
          "internalType": "int32",
          "name": "_productId",
          "type": "int32"
        },
        {
          "internalType": "int32",
          "name": "_storeId",
          "type": "int32"
        }
      ],
      "name": "removeProduct",
      "outputs": [],
      "stateMutability": "nonpayable",
      "type": "function"
    },
    {
      "inputs": [
        {
          "internalType": "int32",
          "name": "_storeId",
          "type": "int32"
        }
      ],
      "name": "removeStoreProducts",
      "outputs": [],
      "stateMutability": "nonpayable",
      "type": "function"
    },
    {
      "inputs": [
        {
          "internalType": "int32",
          "name": "_productId",
          "type": "int32"
        }
      ],
      "name": "purchaseProduct",
      "outputs": [
        {
          "internalType": "bool",
          "name": "",
          "type": "bool"
        }
      ],
      "stateMutability": "payable",
      "type": "function",
      "payable": true
    },
    {
      "inputs": [
        {
          "internalType": "int32",
          "name": "_storeId",
          "type": "int32"
        }
      ],
      "name": "withdrawStoreBalance",
      "outputs": [
        {
          "internalType": "bool",
          "name": "",
          "type": "bool"
        }
      ],
      "stateMutability": "payable",
      "type": "function",
      "payable": true
    }
  ],
  "bytecode": "0x60806040523480156200001157600080fd5b50620000276000801b336200023b60201b60201c565b6200007160405180807f4d41524b45545f41444d494e5f524f4c45000000000000000000000000000000815250601101905060405180910390206000801b6200025160201b60201c565b620000ed60405180807f53544f52455f4f574e4552000000000000000000000000000000000000000000815250600b019050604051809103902060405180807f4d41524b45545f41444d494e5f524f4c45000000000000000000000000000000815250601101905060405180910390206200025160201b60201c565b6000600160006101000a81548160ff0219169083151502179055506001600281905550620001256000801b336200023b60201b60201c565b6200016f60405180807f4d41524b45545f41444d494e5f524f4c45000000000000000000000000000000815250601101905060405180910390206000801b6200025160201b60201c565b620001eb60405180807f53544f52455f4f574e4552000000000000000000000000000000000000000000815250600b019050604051809103902060405180807f4d41524b45545f41444d494e5f524f4c45000000000000000000000000000000815250601101905060405180910390206200025160201b60201c565b6000600560006101000a81548163ffffffff021916908360030b63ffffffff1602179055506000600560046101000a81548163ffffffff021916908360030b63ffffffff16021790555062000433565b6200024d8282620002b360201b60201c565b5050565b8060008084815260200190815260200160002060020154837fbd79b86ffe0ab8e8776151514217cd7cacd52c909f66475c3af44e129f0b00ff60405160405180910390a480600080848152602001908152602001600020600201819055505050565b620002e1816000808581526020019081526020016000206000016200035660201b6200362b1790919060201c565b156200035257620002f76200038e60201b60201c565b73ffffffffffffffffffffffffffffffffffffffff168173ffffffffffffffffffffffffffffffffffffffff16837f2f8788117e7eff1d82e926ec794901d17c78024a50270940304540a733656f0d60405160405180910390a45b5050565b600062000386836000018373ffffffffffffffffffffffffffffffffffffffff1660001b6200039660201b60201c565b905092915050565b600033905090565b6000620003aa83836200041060201b60201c565b620004055782600001829080600181540180825580915050600190039060005260206000200160009091909190915055826000018054905083600101600084815260200190815260200160002081905550600190506200040a565b600090505b92915050565b600080836001016000848152602001908152602001600020541415905092915050565b613a6d80620004436000396000f3fe60806040526004361061020f5760003560e01c806390f8ef9611610118578063b9dc5a95116100a0578063d547741f1161006f578063d547741f14610d56578063d6f0d39f14610db1578063e5fc39a214610ddc578063ece768ea14610ea7578063f3c93a9214610ee55761020f565b8063b9dc5a9514610b4a578063be5610b914610c41578063c4d6ea1614610cbc578063ca15c87314610d075761020f565b80639adeb5f1116100e75780639adeb5f1146109e95780639d4cca8e14610a3a578063a217fddf14610a65578063a845925d14610a90578063b38f668b14610af95761020f565b806390f8ef96146108dc57806391d148541461091a57806395e814281461098d57806398e8bd97146109b85761020f565b80636174fdd11161019b57806377e180f21161016a57806377e180f2146106a457806379d91d59146106ed5780637b23adb8146107425780638bad0c0a146108405780639010d07c146108575761020f565b80636174fdd11461050f578063662feffc146105605780636adaabb61461062857806370480275146106535761020f565b80632f2ff15d116101e25780632f2ff15d1461039057806336568abe146103eb5780634a348da9146104465780635c975abb146104775780635effd33c146104a65761020f565b8063057a711e14610214578063248a9ca31461028f57806324d7806c146102de578063284e900514610347575b600080fd5b34801561022057600080fd5b5061024d6004803603602081101561023757600080fd5b8101908080359060200190929190505050610f36565b604051808273ffffffffffffffffffffffffffffffffffffffff1673ffffffffffffffffffffffffffffffffffffffff16815260200191505060405180910390f35b34801561029b57600080fd5b506102c8600480360360208110156102b257600080fd5b8101908080359060200190929190505050610f7e565b6040518082815260200191505060405180910390f35b3480156102ea57600080fd5b5061032d6004803603602081101561030157600080fd5b81019080803573ffffffffffffffffffffffffffffffffffffffff169060200190929190505050610f9d565b604051808215151515815260200191505060405180910390f35b6103766004803603602081101561035d57600080fd5b81019080803560030b9060200190929190505050610fb3565b604051808215151515815260200191505060405180910390f35b34801561039c57600080fd5b506103e9600480360360408110156103b357600080fd5b8101908080359060200190929190803573ffffffffffffffffffffffffffffffffffffffff169060200190929190505050611358565b005b3480156103f757600080fd5b506104446004803603604081101561040e57600080fd5b8101908080359060200190929190803573ffffffffffffffffffffffffffffffffffffffff1690602001909291905050506113e1565b005b34801561045257600080fd5b5061045b61147a565b604051808260030b60030b815260200191505060405180910390f35b34801561048357600080fd5b5061048c611491565b604051808215151515815260200191505060405180910390f35b3480156104b257600080fd5b506104f5600480360360208110156104c957600080fd5b81019080803573ffffffffffffffffffffffffffffffffffffffff1690602001909291905050506114a8565b604051808215151515815260200191505060405180910390f35b34801561051b57600080fd5b5061055e6004803603602081101561053257600080fd5b81019080803573ffffffffffffffffffffffffffffffffffffffff1690602001909291905050506114f0565b005b34801561056c57600080fd5b506106266004803603602081101561058357600080fd5b81019080803590602001906401000000008111156105a057600080fd5b8201836020820111156105b257600080fd5b803590602001918460018302840111640100000000831117156105d457600080fd5b91908080601f016020809104026020016040519081016040528093929190818152602001838380828437600081840152601f19601f8201169050808301925050505050505091929192905050506115ad565b005b34801561063457600080fd5b5061063d6118e8565b6040518082815260200191505060405180910390f35b34801561065f57600080fd5b506106a26004803603602081101561067657600080fd5b81019080803573ffffffffffffffffffffffffffffffffffffffff169060200190929190505050611921565b005b6106d3600480360360208110156106ba57600080fd5b81019080803560030b90602001909291905050506119ac565b604051808215151515815260200191505060405180910390f35b3480156106f957600080fd5b506107406004803603606081101561071057600080fd5b81019080803560030b906020019092919080359060200190929190803560030b9060200190929190505050611d14565b005b34801561074e57600080fd5b5061077e6004803603602081101561076557600080fd5b81019080803560030b9060200190929190505050611f86565b604051808560030b60030b8152602001806020018473ffffffffffffffffffffffffffffffffffffffff1673ffffffffffffffffffffffffffffffffffffffff168152602001838152602001828103825285818151815260200191508051906020019080838360005b838110156108025780820151818401526020810190506107e7565b50505050905090810190601f16801561082f5780820380516001836020036101000a031916815260200191505b509550505050505060405180910390f35b34801561084c57600080fd5b506108556120b5565b005b34801561086357600080fd5b5061089a6004803603604081101561087a57600080fd5b8101908080359060200190929190803590602001909291905050506120c4565b604051808273ffffffffffffffffffffffffffffffffffffffff1673ffffffffffffffffffffffffffffffffffffffff16815260200191505060405180910390f35b3480156108e857600080fd5b50610918600480360360208110156108ff57600080fd5b81019080803560030b90602001909291905050506120f5565b005b34801561092657600080fd5b506109736004803603604081101561093d57600080fd5b8101908080359060200190929190803573ffffffffffffffffffffffffffffffffffffffff16906020019092919050505061249d565b604051808215151515815260200191505060405180910390f35b34801561099957600080fd5b506109a26124ce565b6040518082815260200191505060405180910390f35b3480156109c457600080fd5b506109cd612513565b604051808260030b60030b815260200191505060405180910390f35b3480156109f557600080fd5b50610a3860048036036020811015610a0c57600080fd5b81019080803573ffffffffffffffffffffffffffffffffffffffff16906020019092919050505061252a565b005b348015610a4657600080fd5b50610a4f6125e7565b6040518082815260200191505060405180910390f35b348015610a7157600080fd5b50610a7a61262c565b6040518082815260200191505060405180910390f35b348015610a9c57600080fd5b50610adf60048036036020811015610ab357600080fd5b81019080803573ffffffffffffffffffffffffffffffffffffffff169060200190929190505050612633565b604051808215151515815260200191505060405180910390f35b348015610b0557600080fd5b50610b4860048036036020811015610b1c57600080fd5b81019080803573ffffffffffffffffffffffffffffffffffffffff16906020019092919050505061267b565b005b348015610b5657600080fd5b50610c2760048036036060811015610b6d57600080fd5b8101908080359060200190640100000000811115610b8a57600080fd5b820183602082011115610b9c57600080fd5b80359060200191846001830284011164010000000083111715610bbe57600080fd5b91908080601f016020809104026020016040519081016040528093929190818152602001838380828437600081840152601f19601f82011690508083019250505050505050919291929080359060200190929190803560030b9060200190929190505050612738565b604051808215151515815260200191505060405180910390f35b348015610c4d57600080fd5b50610c7a60048036036020811015610c6457600080fd5b8101908080359060200190929190505050612b73565b604051808273ffffffffffffffffffffffffffffffffffffffff1673ffffffffffffffffffffffffffffffffffffffff16815260200191505060405180910390f35b348015610cc857600080fd5b50610d0560048036036040811015610cdf57600080fd5b81019080803560030b9060200190929190803560030b9060200190929190505050612bbb565b005b348015610d1357600080fd5b50610d4060048036036020811015610d2a57600080fd5b8101908080359060200190929190505050612e9d565b6040518082815260200191505060405180910390f35b348015610d6257600080fd5b50610daf60048036036040811015610d7957600080fd5b8101908080359060200190929190803573ffffffffffffffffffffffffffffffffffffffff169060200190929190505050612ec3565b005b348015610dbd57600080fd5b50610dc6612f4c565b6040518082815260200191505060405180910390f35b348015610de857600080fd5b50610e1860048036036020811015610dff57600080fd5b81019080803560030b9060200190929190505050612f85565b60405180806020018481526020018360030b60030b8152602001828103825285818151815260200191508051906020019080838360005b83811015610e6a578082015181840152602081019050610e4f565b50505050905090810190601f168015610e975780820380516001836020036101000a031916815260200191505b5094505050505060405180910390f35b348015610eb357600080fd5b50610ee360048036036020811015610eca57600080fd5b81019080803560030b9060200190929190505050613096565b005b348015610ef157600080fd5b50610f3460048036036020811015610f0857600080fd5b81019080803573ffffffffffffffffffffffffffffffffffffffff16906020019092919050505061324f565b005b6000610f7760405180807f53544f52455f4f574e4552000000000000000000000000000000000000000000815250600b0190506040518091039020836120c4565b9050919050565b6000806000838152602001908152602001600020600201549050919050565b6000610fac6000801b8361249d565b9050919050565b60008160006001811115610fc357fe5b600460008360030b60030b815260200190815260200160002060030160049054906101000a900460ff166001811115610ff857fe5b14801561102257506000600460008360030b60030b81526020019081526020016000206002015410155b61102b57600080fd5b600460008460030b60030b8152602001908152602001600020600201548034101561105557600080fd5b83600160009054906101000a900460ff16156110d9576040517f08c379a00000000000000000000000000000000000000000000000000000000081526004018080602001828103825260108152602001807f5061757361626c653a207061757365640000000000000000000000000000000081525060200191505060405180910390fd5b600280541415611151576040517f08c379a000000000000000000000000000000000000000000000000000000000815260040180806020018281038252601f8152602001807f5265656e7472616e637947756172643a207265656e7472616e742063616c6c0081525060200191505060405180910390fd5b6002808190555033600460008760030b60030b815260200190815260200160002060040160006101000a81548173ffffffffffffffffffffffffffffffffffffffff021916908373ffffffffffffffffffffffffffffffffffffffff1602179055506001600460008760030b60030b815260200190815260200160002060030160046101000a81548160ff021916908360018111156111ec57fe5b02179055506112493460036000600460008a60030b60030b815260200190815260200160002060030160009054906101000a900460030b60030b60030b81526020019081526020016000206003015461330c90919063ffffffff16565b507f35f1e222ba9436989de77a620f7f3846801c633a6daa7c8330cc2881afed21bb85604051808260030b60030b815260200191505060405180910390a16001935060016002819055506000600460008360030b60030b815260200190815260200160002060020154905060006112c9823461339490919063ffffffff16565b9050600460008460030b60030b815260200190815260200160002060040160009054906101000a900473ffffffffffffffffffffffffffffffffffffffff1673ffffffffffffffffffffffffffffffffffffffff166108fc829081150290604051600060405180830381858888f1935050505015801561134d573d6000803e3d6000fd5b505050505050919050565b61137e600080848152602001908152602001600020600201546113796133de565b61249d565b6113d3576040517f08c379a000000000000000000000000000000000000000000000000000000000815260040180806020018281038252602f8152602001806139aa602f913960400191505060405180910390fd5b6113dd82826133e6565b5050565b6113e96133de565b73ffffffffffffffffffffffffffffffffffffffff168173ffffffffffffffffffffffffffffffffffffffff161461146c576040517f08c379a000000000000000000000000000000000000000000000000000000000815260040180806020018281038252602f815260200180613a09602f913960400191505060405180910390fd5b6114768282613479565b5050565b6000600560009054906101000a900460030b905090565b6000600160009054906101000a900460ff16905090565b60006114e960405180807f53544f52455f4f574e4552000000000000000000000000000000000000000000815250600b01905060405180910390208361249d565b9050919050565b6114f933612633565b61156b576040517f08c379a000000000000000000000000000000000000000000000000000000000815260040180806020018281038252601a8152602001807f5265737472696374656420746f204d61726b657441646d696e2e00000000000081525060200191505060405180910390fd5b6115aa60405180807f53544f52455f4f574e4552000000000000000000000000000000000000000000815250600b019050604051809103902082612ec3565b50565b6115b6336114a8565b611628576040517f08c379a00000000000000000000000000000000000000000000000000000000081526004018080602001828103825260198152602001807f5265737472696374656420746f2053746f72654f776e65722e0000000000000081525060200191505060405180910390fd5b600160009054906101000a900460ff16156116ab576040517f08c379a00000000000000000000000000000000000000000000000000000000081526004018080602001828103825260108152602001807f5061757361626c653a207061757365640000000000000000000000000000000081525060200191505060405180910390fd5b6040518060800160405280600560049054906101000a900460030b60030b81526020018281526020013373ffffffffffffffffffffffffffffffffffffffff168152602001600081525060036000600560049054906101000a900460030b60030b60030b815260200190815260200160002060008201518160000160006101000a81548163ffffffff021916908360030b63ffffffff160217905550602082015181600101908051906020019061176392919061389a565b5060408201518160020160006101000a81548173ffffffffffffffffffffffffffffffffffffffff021916908373ffffffffffffffffffffffffffffffffffffffff160217905550606082015181600301559050506001600560048282829054906101000a900460030b0192506101000a81548163ffffffff021916908360030b63ffffffff1602179055507f679bd0bc274fe4212bc9b7cedcef9325b3ef82647b3fb776c37e432927934ceb600560049054906101000a900460030b82336000604051808560030b60030b8152602001806020018473ffffffffffffffffffffffffffffffffffffffff1673ffffffffffffffffffffffffffffffffffffffff168152602001838152602001828103825285818151815260200191508051906020019080838360005b838110156118a857808201518184015260208101905061188d565b50505050905090810190601f1680156118d55780820380516001836020036101000a031916815260200191505b509550505050505060405180910390a150565b60405180807f53544f52455f4f574e4552000000000000000000000000000000000000000000815250600b019050604051809103902081565b61192a33610f9d565b61199c576040517f08c379a00000000000000000000000000000000000000000000000000000000081526004018080602001828103825260158152602001807f5265737472696374656420746f2061646d696e732e000000000000000000000081525060200191505060405180910390fd5b6119a96000801b82611358565b50565b60006119b7336114a8565b611a29576040517f08c379a00000000000000000000000000000000000000000000000000000000081526004018080602001828103825260198152602001807f5265737472696374656420746f2053746f72654f776e65722e0000000000000081525060200191505060405180910390fd5b813373ffffffffffffffffffffffffffffffffffffffff16600360008360030b60030b815260200190815260200160002060020160009054906101000a900473ffffffffffffffffffffffffffffffffffffffff1673ffffffffffffffffffffffffffffffffffffffff1614611b07576040517f08c379a00000000000000000000000000000000000000000000000000000000081526004018080602001828103825260198152602001807f5265737472696374656420746f2053746f72654f776e65722e0000000000000081525060200191505060405180910390fd5b600160009054906101000a900460ff1615611b8a576040517f08c379a00000000000000000000000000000000000000000000000000000000081526004018080602001828103825260108152602001807f5061757361626c653a207061757365640000000000000000000000000000000081525060200191505060405180910390fd5b600280541415611c02576040517f08c379a000000000000000000000000000000000000000000000000000000000815260040180806020018281038252601f8152602001807f5265656e7472616e637947756172643a207265656e7472616e742063616c6c0081525060200191505060405180910390fd5b600280819055506000600360008560030b60030b81526020019081526020016000206003015411611c3257600080fd5b6000600360008560030b60030b81526020019081526020016000206003015490506000600360008660030b60030b8152602001908152602001600020600301819055503373ffffffffffffffffffffffffffffffffffffffff166108fc829081150290604051600060405180830381858888f19350505050158015611cbb573d6000803e3d6000fd5b507fbd11dffb90cd461d3bfa786f4b7e04707b6c5829d6a66cd23cc48c81b38c281f8482604051808360030b60030b81526020018281526020019250505060405180910390a16001925050600160028190555050919050565b611d1d336114a8565b611d8f576040517f08c379a00000000000000000000000000000000000000000000000000000000081526004018080602001828103825260198152602001807f5265737472696374656420746f2053746f72654f776e65722e0000000000000081525060200191505060405180910390fd5b803373ffffffffffffffffffffffffffffffffffffffff16600360008360030b60030b815260200190815260200160002060020160009054906101000a900473ffffffffffffffffffffffffffffffffffffffff1673ffffffffffffffffffffffffffffffffffffffff1614611e6d576040517f08c379a00000000000000000000000000000000000000000000000000000000081526004018080602001828103825260198152602001807f5265737472696374656420746f2053746f72654f776e65722e0000000000000081525060200191505060405180910390fd5b600160009054906101000a900460ff1615611ef0576040517f08c379a00000000000000000000000000000000000000000000000000000000081526004018080602001828103825260108152602001807f5061757361626c653a207061757365640000000000000000000000000000000081525060200191505060405180910390fd5b6000600460008660030b60030b815260200190815260200160002060020154905083600460008760030b60030b8152602001908152602001600020600201819055507ff27d7b5a487cd2bcb7591f1d0aafe5fa65d49b5405cff916574ba773dda46723858286604051808460030b60030b8152602001838152602001828152602001935050505060405180910390a15050505050565b60006060600080600360008660030b60030b81526020019081526020016000206001018054600181600116156101000203166002900480601f01602080910402602001604051908101604052809291908181526020018280546001816001161561010002031660029004801561203d5780601f106120125761010080835404028352916020019161203d565b820191906000526020600020905b81548152906001019060200180831161202057829003601f168201915b50505050509250600360008660030b60030b815260200190815260200160002060020160009054906101000a900473ffffffffffffffffffffffffffffffffffffffff169150600360008660030b60030b81526020019081526020016000206003015490508483838393509350935093509193509193565b6120c26000801b336113e1565b565b60006120ed8260008086815260200190815260200160002060000161350c90919063ffffffff16565b905092915050565b6120fe336114a8565b612170576040517f08c379a00000000000000000000000000000000000000000000000000000000081526004018080602001828103825260198152602001807f5265737472696374656420746f2053746f72654f776e65722e0000000000000081525060200191505060405180910390fd5b803373ffffffffffffffffffffffffffffffffffffffff16600360008360030b60030b815260200190815260200160002060020160009054906101000a900473ffffffffffffffffffffffffffffffffffffffff1673ffffffffffffffffffffffffffffffffffffffff161461224e576040517f08c379a00000000000000000000000000000000000000000000000000000000081526004018080602001828103825260198152602001807f5265737472696374656420746f2053746f72654f776e65722e0000000000000081525060200191505060405180910390fd5b600160009054906101000a900460ff16156122d1576040517f08c379a00000000000000000000000000000000000000000000000000000000081526004018080602001828103825260108152602001807f5061757361626c653a207061757365640000000000000000000000000000000081525060200191505060405180910390fd5b60008090505b600560009054906101000a900460030b60030b8160030b121561245b578260030b600460008360030b60030b815260200190815260200160002060030160009054906101000a900460030b60030b141561245657600460008260030b60030b8152602001908152602001600020600080820160006101000a81549063ffffffff021916905560018201600061236c919061391a565b60028201600090556003820160006101000a81549063ffffffff02191690556003820160046101000a81549060ff02191690556003820160056101000a81549073ffffffffffffffffffffffffffffffffffffffff02191690556004820160006101000a81549073ffffffffffffffffffffffffffffffffffffffff021916905550507f0d5e110ab63ef94da0e5220f2fd7ca7cd47ad988685b640dae02e20e221d880c600460008360030b60030b815260200190815260200160002060000160009054906101000a900460030b604051808260030b60030b815260200191505060405180910390a15b6122d7565b507fd55a26df78b4d45f43c573300e95bb028a6550652585045b2ec2ca031ab164dc82604051808260030b60030b815260200191505060405180910390a15050565b60006124c68260008086815260200190815260200160002060000161352690919063ffffffff16565b905092915050565b600061250e60405180807f4d41524b45545f41444d494e5f524f4c4500000000000000000000000000000081525060110190506040518091039020612e9d565b905090565b6000600560049054906101000a900460030b905090565b61253333612633565b6125a5576040517f08c379a000000000000000000000000000000000000000000000000000000000815260040180806020018281038252601a8152602001807f5265737472696374656420746f204d61726b657441646d696e2e00000000000081525060200191505060405180910390fd5b6125e460405180807f53544f52455f4f574e4552000000000000000000000000000000000000000000815250600b019050604051809103902082611358565b50565b600061262760405180807f53544f52455f4f574e4552000000000000000000000000000000000000000000815250600b0190506040518091039020612e9d565b905090565b6000801b81565b600061267460405180807f4d41524b45545f41444d494e5f524f4c45000000000000000000000000000000815250601101905060405180910390208361249d565b9050919050565b61268433610f9d565b6126f6576040517f08c379a00000000000000000000000000000000000000000000000000000000081526004018080602001828103825260158152602001807f5265737472696374656420746f2061646d696e732e000000000000000000000081525060200191505060405180910390fd5b61273560405180807f4d41524b45545f41444d494e5f524f4c450000000000000000000000000000008152506011019050604051809103902082612ec3565b50565b6000612743336114a8565b6127b5576040517f08c379a00000000000000000000000000000000000000000000000000000000081526004018080602001828103825260198152602001807f5265737472696374656420746f2053746f72654f776e65722e0000000000000081525060200191505060405180910390fd5b600160009054906101000a900460ff1615612838576040517f08c379a00000000000000000000000000000000000000000000000000000000081526004018080602001828103825260108152602001807f5061757361626c653a207061757365640000000000000000000000000000000081525060200191505060405180910390fd5b6040518060e00160405280600560009054906101000a900460030b60030b81526020018581526020018481526020018360030b81526020016000600181111561287d57fe5b81526020013373ffffffffffffffffffffffffffffffffffffffff168152602001600073ffffffffffffffffffffffffffffffffffffffff1681525060046000600560009054906101000a900460030b60030b60030b815260200190815260200160002060008201518160000160006101000a81548163ffffffff021916908360030b63ffffffff160217905550602082015181600101908051906020019061292792919061389a565b506040820151816002015560608201518160030160006101000a81548163ffffffff021916908360030b63ffffffff16021790555060808201518160030160046101000a81548160ff0219169083600181111561298057fe5b021790555060a08201518160030160056101000a81548173ffffffffffffffffffffffffffffffffffffffff021916908373ffffffffffffffffffffffffffffffffffffffff16021790555060c08201518160040160006101000a81548173ffffffffffffffffffffffffffffffffffffffff021916908373ffffffffffffffffffffffffffffffffffffffff1602179055509050507ff5ea14c2dbd9c8caf129f8b7c21e9abde83ad592e1291390eba36b4a37881794600560009054906101000a900460030b858585604051808560030b60030b8152602001806020018481526020018360030b60030b8152602001828103825285818151815260200191508051906020019080838360005b83811015612aa8578082015181840152602081019050612a8d565b50505050905090810190601f168015612ad55780820380516001836020036101000a031916815260200191505b509550505050505060405180910390a17ffbbc37cc55e289efb382fb0468ad27afbcc0deb62d5a9b2723ae5f6e86d33a0a600560009054906101000a900460030b604051808260030b60030b815260200191505060405180910390a16001600560008282829054906101000a900460030b0192506101000a81548163ffffffff021916908360030b63ffffffff160217905550600190509392505050565b6000612bb460405180807f4d41524b45545f41444d494e5f524f4c4500000000000000000000000000000081525060110190506040518091039020836120c4565b9050919050565b612bc4336114a8565b612c36576040517f08c379a00000000000000000000000000000000000000000000000000000000081526004018080602001828103825260198152602001807f5265737472696374656420746f2053746f72654f776e65722e0000000000000081525060200191505060405180910390fd5b803373ffffffffffffffffffffffffffffffffffffffff16600360008360030b60030b815260200190815260200160002060020160009054906101000a900473ffffffffffffffffffffffffffffffffffffffff1673ffffffffffffffffffffffffffffffffffffffff1614612d14576040517f08c379a00000000000000000000000000000000000000000000000000000000081526004018080602001828103825260198152602001807f5265737472696374656420746f2053746f72654f776e65722e0000000000000081525060200191505060405180910390fd5b600160009054906101000a900460ff1615612d97576040517f08c379a00000000000000000000000000000000000000000000000000000000081526004018080602001828103825260108152602001807f5061757361626c653a207061757365640000000000000000000000000000000081525060200191505060405180910390fd5b600460008460030b60030b8152602001908152602001600020600080820160006101000a81549063ffffffff0219169055600182016000612dd8919061391a565b60028201600090556003820160006101000a81549063ffffffff02191690556003820160046101000a81549060ff02191690556003820160056101000a81549073ffffffffffffffffffffffffffffffffffffffff02191690556004820160006101000a81549073ffffffffffffffffffffffffffffffffffffffff021916905550507f0d5e110ab63ef94da0e5220f2fd7ca7cd47ad988685b640dae02e20e221d880c83604051808260030b60030b815260200191505060405180910390a1505050565b6000612ebc600080848152602001908152602001600020600001613556565b9050919050565b612ee960008084815260200190815260200160002060020154612ee46133de565b61249d565b612f3e576040517f08c379a00000000000000000000000000000000000000000000000000000000081526004018080602001828103825260308152602001806139d96030913960400191505060405180910390fd5b612f488282613479565b5050565b60405180807f4d41524b45545f41444d494e5f524f4c450000000000000000000000000000008152506011019050604051809103902081565b6060600080600460008560030b60030b8152602001908152602001600020600101600460008660030b60030b815260200190815260200160002060020154600460008760030b60030b815260200190815260200160002060030160009054906101000a900460030b828054600181600116156101000203166002900480601f0160208091040260200160405190810160405280929190818152602001828054600181600116156101000203166002900480156130825780601f1061305757610100808354040283529160200191613082565b820191906000526020600020905b81548152906001019060200180831161306557829003601f168201915b505050505092509250925092509193909250565b61309f336114a8565b613111576040517f08c379a00000000000000000000000000000000000000000000000000000000081526004018080602001828103825260198152602001807f5265737472696374656420746f2053746f72654f776e65722e0000000000000081525060200191505060405180910390fd5b600160009054906101000a900460ff1615613194576040517f08c379a00000000000000000000000000000000000000000000000000000000081526004018080602001828103825260108152602001807f5061757361626c653a207061757365640000000000000000000000000000000081525060200191505060405180910390fd5b61319d816120f5565b600360008260030b60030b8152602001908152602001600020600080820160006101000a81549063ffffffff02191690556001820160006131de919061391a565b6002820160006101000a81549073ffffffffffffffffffffffffffffffffffffffff0219169055600382016000905550507f218a62bfd8746a7ce8e6a0928f49edb94357262b3fcf175c5f3383a295c2d31281604051808260030b60030b815260200191505060405180910390a150565b61325833610f9d565b6132ca576040517f08c379a00000000000000000000000000000000000000000000000000000000081526004018080602001828103825260158152602001807f5265737472696374656420746f2061646d696e732e000000000000000000000081525060200191505060405180910390fd5b61330960405180807f4d41524b45545f41444d494e5f524f4c450000000000000000000000000000008152506011019050604051809103902082611358565b50565b60008082840190508381101561338a576040517f08c379a000000000000000000000000000000000000000000000000000000000815260040180806020018281038252601b8152602001807f536166654d6174683a206164646974696f6e206f766572666c6f77000000000081525060200191505060405180910390fd5b8091505092915050565b60006133d683836040518060400160405280601e81526020017f536166654d6174683a207375627472616374696f6e206f766572666c6f77000081525061356b565b905092915050565b600033905090565b61340d8160008085815260200190815260200160002060000161362b90919063ffffffff16565b156134755761341a6133de565b73ffffffffffffffffffffffffffffffffffffffff168173ffffffffffffffffffffffffffffffffffffffff16837f2f8788117e7eff1d82e926ec794901d17c78024a50270940304540a733656f0d60405160405180910390a45b5050565b6134a08160008085815260200190815260200160002060000161365b90919063ffffffff16565b15613508576134ad6133de565b73ffffffffffffffffffffffffffffffffffffffff168173ffffffffffffffffffffffffffffffffffffffff16837ff6391f5c32d9c69d2a47ea670b442974b53935d1edc7fd64eb21e047a839171b60405160405180910390a45b5050565b600061351b836000018361368b565b60001c905092915050565b600061354e836000018373ffffffffffffffffffffffffffffffffffffffff1660001b61370e565b905092915050565b600061356482600001613731565b9050919050565b6000838311158290613618576040517f08c379a00000000000000000000000000000000000000000000000000000000081526004018080602001828103825283818151815260200191508051906020019080838360005b838110156135dd5780820151818401526020810190506135c2565b50505050905090810190601f16801561360a5780820380516001836020036101000a031916815260200191505b509250505060405180910390fd5b5060008385039050809150509392505050565b6000613653836000018373ffffffffffffffffffffffffffffffffffffffff1660001b613742565b905092915050565b6000613683836000018373ffffffffffffffffffffffffffffffffffffffff1660001b6137b2565b905092915050565b6000818360000180549050116136ec576040517f08c379a00000000000000000000000000000000000000000000000000000000081526004018080602001828103825260228152602001806139886022913960400191505060405180910390fd5b8260000182815481106136fb57fe5b9060005260206000200154905092915050565b600080836001016000848152602001908152602001600020541415905092915050565b600081600001805490509050919050565b600061374e838361370e565b6137a75782600001829080600181540180825580915050600190039060005260206000200160009091909190915055826000018054905083600101600084815260200190815260200160002081905550600190506137ac565b600090505b92915050565b6000808360010160008481526020019081526020016000205490506000811461388e57600060018203905060006001866000018054905003905060008660000182815481106137fd57fe5b906000526020600020015490508087600001848154811061381a57fe5b906000526020600020018190555060018301876001016000838152602001908152602001600020819055508660000180548061385257fe5b60019003818190600052602060002001600090559055866001016000878152602001908152602001600020600090556001945050505050613894565b60009150505b92915050565b828054600181600116156101000203166002900490600052602060002090601f016020900481019282601f106138db57805160ff1916838001178555613909565b82800160010185558215613909579182015b828111156139085782518255916020019190600101906138ed565b5b5090506139169190613962565b5090565b50805460018160011615610100020316600290046000825580601f10613940575061395f565b601f01602090049060005260206000209081019061395e9190613962565b5b50565b61398491905b80821115613980576000816000905550600101613968565b5090565b9056fe456e756d657261626c655365743a20696e646578206f7574206f6620626f756e6473416363657373436f6e74726f6c3a2073656e646572206d75737420626520616e2061646d696e20746f206772616e74416363657373436f6e74726f6c3a2073656e646572206d75737420626520616e2061646d696e20746f207265766f6b65416363657373436f6e74726f6c3a2063616e206f6e6c792072656e6f756e636520726f6c657320666f722073656c66a2646970667358221220b6bc6e53ad8d018a460c35f11ff58b3413ce199fd4ee8e02a9a4a9568fa5a8cf64736f6c63430006020033",
  "source": "pragma solidity >=0.5.16<0.8.0;\n\nimport \"@openzeppelin/contracts/math/SafeMath.sol\";\nimport \"@openzeppelin/contracts/utils/Pausable.sol\";\nimport \"@openzeppelin/contracts/utils/ReentrancyGuard.sol\";\nimport \"./Administered.sol\";\n\n/// @title A simulator for Market Place\n/// @author Aysha Amin\n/// @notice You can use this contract for only the most basic simulation\ncontract Marketplace is Administered, Pausable, ReentrancyGuard{\n\nusing SafeMath for uint256;\n  struct Store{\n\t\tint32 id; \n\t\tstring name;\n\t\taddress owner; \n\t\tuint256 balance; \n\t}\n  struct Product{\n    int32 id;\n    string name;\n    uint256 price;\n    int32 storeId; \n    State state;\n    address payable seller;\n    address payable buyer;\n  }\n  enum State{\n    ForSale,\n    Sold\n  }\n\n\tmapping (int32 => Store) private stores; \n  mapping (int32 => Product) private products;\n  int32 private productCount;\n  int32 private storeCount;\n\n\n  constructor() public \n  {\n    /* Here, set the owner as the person who instantiated the contract\n       and set your idCount to 0. */\n       //owner=msg.sender;\n     _setupRole(DEFAULT_ADMIN_ROLE, msg.sender);\n    //_setupRole(MARKET_ADMIN_ROLE, msg.sender);\n    _setRoleAdmin(MARKET_ADMIN_ROLE, DEFAULT_ADMIN_ROLE);\n    _setRoleAdmin(STORE_OWNER_ROLE, MARKET_ADMIN_ROLE);\n       productCount=0;\n       storeCount=0;\n  }\n\n  event LogForSale(int32 id);\n  event LogSold(int32 id);\n  event LogStoreAdded (\n\t\tint32 id, \n\t\tstring name, \n\t\taddress owner, \n\t\tuint256 balance);\n\n  event LogProductAdded (\n\t\tint32 id, \n\t\tstring name, \n\t\tuint256 price, \n\t\tint32 storeId);\n  event LogWithdrawStoreBalance(\n    int32 storeId,\n\t\tuint256 amount\n  );\n  event LogPriceUpdated(\n    int32 id, \n\t\tuint256 oldPrice, \n\t\tuint256 newPrice\n  );\n  event ProductRemoved(int32 _productId);\n  event ProductsRemoved(int32 _storeId);\n  event StoreRemoved(int32 _storeId);\n\n\n  modifier forSale(int32 _productId){require(products[_productId].state == State.ForSale && products[_productId].price >= 0); _;}\n  modifier sold(int32 _productId){require(products[_productId].state == State.Sold && products[_productId].buyer != address(0)); _;}\n  modifier paidEnough(uint256 _price) { require(msg.value >= _price); _;}\n  modifier checkValue(int32 _productId) {\n    //refund them after pay for item (why it is before, _ checks for logic before func)\n    _;\n    uint256 _price = products[_productId].price;\n    uint256 amountToRefund = msg.value.sub(_price) ;\n    products[_productId].buyer.transfer(amountToRefund);\n  }\n  \n  modifier onlyOwnerOfThisStore(int32 _storeId)\n  {\n    require(stores[_storeId].owner == msg.sender, \"Restricted to StoreOwner.\");\n    _;\n  }\n\n  /// @dev Add a Store.\n\t/// @param _name Name of Store to Add \n  \n  function addStore(string memory _name)\n  onlyStoreOwner\n  whenNotPaused\n  public\n  //returns(bool)\n  {\n    stores[storeCount] = Store({ id: storeCount,name: _name, owner: msg.sender, balance: 0});\n    \n    storeCount+=1;\n    //storeCount.add(1);\n    emit LogStoreAdded(storeCount, _name, msg.sender, 0);\n    //return true;\n  }\n  \n  /// @dev Get Store Count.\n  /// @return The count of the stores\n  function getStoreCount() \n  public \n  view \n  returns (int32) {\n    return storeCount;\n  } \n\n  /// @dev Get a Store.\n\t/// @param _storeId ID of Store to Get \n  function getStore(int32 _storeId) \n  public \n  view \n  returns (int32 id,string memory name, address owner, uint256 balance) {\n    name = stores[_storeId].name;\n    owner = stores[_storeId].owner;\n    balance = stores[_storeId].balance;\n    return (_storeId,name, owner, balance);\n  } \n\n  /// @dev Remove a Store.\n\t/// @param _storeId ID of Store to Remove \n  function removeStore(int32 _storeId)\n  onlyStoreOwner\n  whenNotPaused\n  public\n  {\n    removeStoreProducts(_storeId);\n    delete stores[_storeId];\n\t\temit StoreRemoved(_storeId);\n  }\n\n  /// @dev Add a product.\n\t/// @param _name Name of product to Add \n  /// @param _price Price ID for product \n  /// @param _storeId Store ID for product to Add \n  function addProduct(string memory _name,uint256 _price,int32  _storeId)\n    onlyStoreOwner\n    whenNotPaused\n    public\n    returns(bool)\n  {\n    products[productCount] = Product({name: _name, id: productCount, price: _price, storeId:_storeId ,state: State.ForSale, seller: msg.sender, buyer: address(0)});\n    emit LogProductAdded(productCount, _name,_price, _storeId);\n    emit LogForSale(productCount);\n    productCount += 1;\n    //productCount = productCount.add(1);\n    return true;\n  }\n\n  /// @dev Get a product.\n\t/// @param _productId ID of product to Get \n  function getProduct(int32 _productId)\n\tview \n\tpublic\n\treturns (string memory, uint256, int32) {\n\n\t\treturn ( products[_productId].name,\n\t\t\t\tproducts[_productId].price,\n\t\t\t\tproducts[_productId].storeId\n        );\n\t}\n\n  /// @dev Get Product Count.\n  /// @return The count of the Products\n  function getProductCount() \n  public \n  view \n  returns (int32) {\n    return productCount;\n  } \n\n  /// @dev update a product.\n  /// @param _productId ID of product to Update \n  /// @param _price New Price ID for product \n  /// @param _storeId Store ID for product to Update \n  function updateProduct(int32 _productId, uint256 _price, int32 _storeId) \n  onlyStoreOwner\n  onlyOwnerOfThisStore(_storeId)\n  whenNotPaused\n  public {\n    uint256 oldPrice=products[_productId].price;\n\t\tproducts[_productId].price=_price;\n\t\temit LogPriceUpdated(_productId, oldPrice, _price);\n  }\n\n  /// @dev Removes a product.\n\t/// @param _storeId Store ID for product to remove \n\t/// @param _productId ID of product to remove \n  function removeProduct(int32 _productId,int32 _storeId)\n  onlyStoreOwner\n  onlyOwnerOfThisStore(_storeId)\n  whenNotPaused\n  public\n  {\n\t\tdelete products[_productId];\n\t\temit ProductRemoved(_productId);\n  }\n\n  /// @dev Removes products from store.\n\t/// @param _storeId Storefront ID for products to remove \n  function removeStoreProducts(int32 _storeId)\n  onlyStoreOwner\n  onlyOwnerOfThisStore(_storeId)\n  whenNotPaused\n  public\n  {\n\t\tfor(int32 i=0; i<productCount; i+1) {\n\t\t\tif ( products[i].storeId == _storeId) {\n\t\t\t\tdelete products[i];\n\t\t\t\temit ProductRemoved(products[i].id);\n\t\t\t}\n\t\t}\n    emit ProductsRemoved(_storeId);\n  }\n\n  /// @dev Purchase a product.\n  /// @param _productId ID of product to Purchase \n  /// @return The Product Purchased\n  function purchaseProduct(int32 _productId)\n  payable\n  forSale(_productId) \n  paidEnough(products[_productId].price) \n  checkValue(_productId)\n  whenNotPaused\n  nonReentrant\n  public\n  returns (bool)\n  {\n    products[_productId].buyer = msg.sender;\n    products[_productId].state = State.Sold;\n    stores[products[_productId].storeId].balance.add(msg.value);\n    emit LogSold(_productId);\n    return true;\n  }\n\n  /// @dev Withdraw The Store Balance.\n  /// @param _storeId ID of Store to Withdraw \n  /// @return The Withdraw Done\n  function withdrawStoreBalance(int32 _storeId) \n  payable\n\tonlyStoreOwner\n  onlyOwnerOfThisStore(_storeId)\n\twhenNotPaused\n  nonReentrant\n\tpublic \n  returns (bool)\n  {\n\t\trequire(stores[_storeId].balance > 0);\n\t\tuint storeBalance = stores[_storeId].balance;\n    stores[_storeId].balance = 0;\n\t\tmsg.sender.transfer(storeBalance);\n\t\temit LogWithdrawStoreBalance(_storeId, storeBalance);\n\t\treturn true;\n\t}\n\n}",
  "sourcePath": "/home/aysha/Github/Online-Marketplace/contracts/Marketplace.sol",
  "compiler": {
    "name": "solc",
    "version": "0.6.2+commit.bacdbe57.Emscripten.clang"
  },
  "schemaVersion": "3.3.2",
  "updatedAt": "2020-12-05T05:54:19.034Z",
  "networkType": "ethereum",
  "devdoc": {
    "author": "Aysha Amin",
    "methods": {
      "addAdmin(address)": {
        "details": "Add an account to the admin role. Restricted to admins.",
        "params": {
          "account": "address of account to Add as Admin."
        }
      },
      "addMarketAdmin(address)": {
        "details": "Add an account to the admin role. Restricted to admins.",
        "params": {
          "account": "address of account to to Add as MarketAdmin."
        }
      },
      "addProduct(string,uint256,int32)": {
        "details": "Add a product.",
        "params": {
          "_name": "Name of product to Add ",
          "_price": "Price ID for product ",
          "_storeId": "Store ID for product to Add "
        }
      },
      "addStore(string)": {
        "details": "Add a Store.",
        "params": {
          "_name": "Name of Store to Add "
        }
      },
      "addStoreOwner(address)": {
        "details": "Add an account to the user role. Restricted to MarketAdmins.",
        "params": {
          "account": "address of account to Add as StoreOwner."
        }
      },
      "getMarketAdminMember(uint256)": {
        "details": "get MarketAdminMember. Restricted to Admins.",
        "returns": {
          "_0": "MarketAdmin Member."
        }
      },
      "getMarketAdminsCount()": {
        "details": "get MarketAdminsCount. Restricted to Admins.",
        "returns": {
          "_0": "MarketAdmins Count."
        }
      },
      "getProduct(int32)": {
        "details": "Get a product.",
        "params": {
          "_productId": "ID of product to Get "
        }
      },
      "getProductCount()": {
        "details": "Get Product Count.",
        "returns": {
          "_0": "The count of the Products"
        }
      },
      "getRoleAdmin(bytes32)": {
        "details": "Returns the admin role that controls `role`. See {grantRole} and {revokeRole}.     * To change a role's admin, use {_setRoleAdmin}."
      },
      "getRoleMember(bytes32,uint256)": {
        "details": "Returns one of the accounts that have `role`. `index` must be a value between 0 and {getRoleMemberCount}, non-inclusive.     * Role bearers are not sorted in any particular way, and their ordering may change at any point.     * WARNING: When using {getRoleMember} and {getRoleMemberCount}, make sure you perform all queries on the same block. See the following https://forum.openzeppelin.com/t/iterating-over-elements-on-enumerableset-in-openzeppelin-contracts/2296[forum post] for more information."
      },
      "getRoleMemberCount(bytes32)": {
        "details": "Returns the number of accounts that have `role`. Can be used together with {getRoleMember} to enumerate all bearers of a role."
      },
      "getStore(int32)": {
        "details": "Get a Store.",
        "params": {
          "_storeId": "ID of Store to Get "
        }
      },
      "getStoreCount()": {
        "details": "Get Store Count.",
        "returns": {
          "_0": "The count of the stores"
        }
      },
      "getStoreOwnerMember(uint256)": {
        "details": "get StoreOwnerMember. Restricted to MarketAdmins.",
        "returns": {
          "_0": "StoreOwners Member."
        }
      },
      "getStoreOwnersCount()": {
        "details": "get MarketAdminsCount. Restricted to MarketAdmins.",
        "returns": {
          "_0": "StoreOwners Count."
        }
      },
      "grantRole(bytes32,address)": {
        "details": "Grants `role` to `account`.     * If `account` had not been already granted `role`, emits a {RoleGranted} event.     * Requirements:     * - the caller must have ``role``'s admin role."
      },
      "hasRole(bytes32,address)": {
        "details": "Returns `true` if `account` has been granted `role`."
      },
      "isAdmin(address)": {
        "details": "Return `true` if the account belongs to the admin role.",
        "params": {
          "account": "address of account to check is admin."
        }
      },
      "isMarketAdmin(address)": {
        "details": "Return `true` if the account belongs to the MarketAdmin role.",
        "params": {
          "account": "address of account to check is MarketAdmin."
        }
      },
      "isStoreOwner(address)": {
        "details": "Return `true` if the account belongs to the StoreOwner role.",
        "params": {
          "account": "address of account to check is StoreOwner."
        }
      },
      "paused()": {
        "details": "Returns true if the contract is paused, and false otherwise."
      },
      "purchaseProduct(int32)": {
        "details": "Purchase a product.",
        "params": {
          "_productId": "ID of product to Purchase "
        },
        "returns": {
          "_0": "The Product Purchased"
        }
      },
      "removeMarketAdmin(address)": {
        "details": "Remove an account from the MarketAdmin role. Restricted to admins.",
        "params": {
          "account": "address of account to Remove."
        }
      },
      "removeProduct(int32,int32)": {
        "details": "Removes a product.",
        "params": {
          "_productId": "ID of product to remove ",
          "_storeId": "Store ID for product to remove "
        }
      },
      "removeStore(int32)": {
        "details": "Remove a Store.",
        "params": {
          "_storeId": "ID of Store to Remove "
        }
      },
      "removeStoreOwner(address)": {
        "details": "Remove an account from the StoreOwner role. Restricted to MarketAdmins.",
        "params": {
          "account": "address of account to Remove."
        }
      },
      "removeStoreProducts(int32)": {
        "details": "Removes products from store.",
        "params": {
          "_storeId": "Storefront ID for products to remove "
        }
      },
      "renounceAdmin()": {
        "details": "Remove oneself from the admin role."
      },
      "renounceRole(bytes32,address)": {
        "details": "Revokes `role` from the calling account.     * Roles are often managed via {grantRole} and {revokeRole}: this function's purpose is to provide a mechanism for accounts to lose their privileges if they are compromised (such as when a trusted device is misplaced).     * If the calling account had been granted `role`, emits a {RoleRevoked} event.     * Requirements:     * - the caller must be `account`."
      },
      "revokeRole(bytes32,address)": {
        "details": "Revokes `role` from `account`.     * If `account` had been granted `role`, emits a {RoleRevoked} event.     * Requirements:     * - the caller must have ``role``'s admin role."
      },
      "updateProduct(int32,uint256,int32)": {
        "details": "update a product.",
        "params": {
          "_price": "New Price ID for product ",
          "_productId": "ID of product to Update ",
          "_storeId": "Store ID for product to Update "
        }
      },
      "withdrawStoreBalance(int32)": {
        "details": "Withdraw The Store Balance.",
        "params": {
          "_storeId": "ID of Store to Withdraw "
        },
        "returns": {
          "_0": "The Withdraw Done"
        }
      }
    },
    "title": "A simulator for Market Place"
  },
  "userdoc": {
    "methods": {},
    "notice": "You can use this contract for only the most basic simulation"
  }
}