{
  "contractName": "Marketplace",
  "abi": [
    {
      "inputs": [],
      "stateMutability": "nonpayable",
      "type": "constructor"
    },
    {
      "anonymous": false,
      "inputs": [
        {
          "indexed": false,
          "internalType": "uint256",
          "name": "id",
          "type": "uint256"
        }
      ],
      "name": "LogForSale",
      "type": "event"
    },
    {
      "anonymous": false,
      "inputs": [
        {
          "indexed": false,
          "internalType": "uint256",
          "name": "id",
          "type": "uint256"
        },
        {
          "indexed": false,
          "internalType": "uint256",
          "name": "oldPrice",
          "type": "uint256"
        },
        {
          "indexed": false,
          "internalType": "uint256",
          "name": "newPrice",
          "type": "uint256"
        }
      ],
      "name": "LogPriceUpdated",
      "type": "event"
    },
    {
      "anonymous": false,
      "inputs": [
        {
          "indexed": false,
          "internalType": "uint256",
          "name": "id",
          "type": "uint256"
        },
        {
          "indexed": false,
          "internalType": "string",
          "name": "name",
          "type": "string"
        },
        {
          "indexed": false,
          "internalType": "uint256",
          "name": "price",
          "type": "uint256"
        },
        {
          "indexed": false,
          "internalType": "uint256",
          "name": "storeId",
          "type": "uint256"
        }
      ],
      "name": "LogProductAdded",
      "type": "event"
    },
    {
      "anonymous": false,
      "inputs": [
        {
          "indexed": false,
          "internalType": "uint256",
          "name": "id",
          "type": "uint256"
        }
      ],
      "name": "LogSold",
      "type": "event"
    },
    {
      "anonymous": false,
      "inputs": [
        {
          "indexed": false,
          "internalType": "uint256",
          "name": "id",
          "type": "uint256"
        },
        {
          "indexed": false,
          "internalType": "string",
          "name": "name",
          "type": "string"
        },
        {
          "indexed": false,
          "internalType": "address",
          "name": "owner",
          "type": "address"
        },
        {
          "indexed": false,
          "internalType": "uint256",
          "name": "balance",
          "type": "uint256"
        }
      ],
      "name": "LogStoreAdded",
      "type": "event"
    },
    {
      "anonymous": false,
      "inputs": [
        {
          "indexed": false,
          "internalType": "uint256",
          "name": "storeId",
          "type": "uint256"
        },
        {
          "indexed": false,
          "internalType": "uint256",
          "name": "amount",
          "type": "uint256"
        }
      ],
      "name": "LogWithdrawStoreBalance",
      "type": "event"
    },
    {
      "anonymous": false,
      "inputs": [
        {
          "indexed": false,
          "internalType": "address",
          "name": "account",
          "type": "address"
        }
      ],
      "name": "Paused",
      "type": "event"
    },
    {
      "anonymous": false,
      "inputs": [
        {
          "indexed": false,
          "internalType": "uint256",
          "name": "_productId",
          "type": "uint256"
        }
      ],
      "name": "ProductRemoved",
      "type": "event"
    },
    {
      "anonymous": false,
      "inputs": [
        {
          "indexed": false,
          "internalType": "uint256",
          "name": "_storeId",
          "type": "uint256"
        }
      ],
      "name": "ProductsRemoved",
      "type": "event"
    },
    {
      "anonymous": false,
      "inputs": [
        {
          "indexed": true,
          "internalType": "bytes32",
          "name": "role",
          "type": "bytes32"
        },
        {
          "indexed": true,
          "internalType": "bytes32",
          "name": "previousAdminRole",
          "type": "bytes32"
        },
        {
          "indexed": true,
          "internalType": "bytes32",
          "name": "newAdminRole",
          "type": "bytes32"
        }
      ],
      "name": "RoleAdminChanged",
      "type": "event"
    },
    {
      "anonymous": false,
      "inputs": [
        {
          "indexed": true,
          "internalType": "bytes32",
          "name": "role",
          "type": "bytes32"
        },
        {
          "indexed": true,
          "internalType": "address",
          "name": "account",
          "type": "address"
        },
        {
          "indexed": true,
          "internalType": "address",
          "name": "sender",
          "type": "address"
        }
      ],
      "name": "RoleGranted",
      "type": "event"
    },
    {
      "anonymous": false,
      "inputs": [
        {
          "indexed": true,
          "internalType": "bytes32",
          "name": "role",
          "type": "bytes32"
        },
        {
          "indexed": true,
          "internalType": "address",
          "name": "account",
          "type": "address"
        },
        {
          "indexed": true,
          "internalType": "address",
          "name": "sender",
          "type": "address"
        }
      ],
      "name": "RoleRevoked",
      "type": "event"
    },
    {
      "anonymous": false,
      "inputs": [
        {
          "indexed": false,
          "internalType": "uint256",
          "name": "_storeId",
          "type": "uint256"
        }
      ],
      "name": "StoreRemoved",
      "type": "event"
    },
    {
      "anonymous": false,
      "inputs": [
        {
          "indexed": false,
          "internalType": "address",
          "name": "account",
          "type": "address"
        }
      ],
      "name": "Unpaused",
      "type": "event"
    },
    {
      "inputs": [],
      "name": "DEFAULT_ADMIN_ROLE",
      "outputs": [
        {
          "internalType": "bytes32",
          "name": "",
          "type": "bytes32"
        }
      ],
      "stateMutability": "view",
      "type": "function",
      "constant": true
    },
    {
      "inputs": [],
      "name": "MARKET_ADMIN_ROLE",
      "outputs": [
        {
          "internalType": "bytes32",
          "name": "",
          "type": "bytes32"
        }
      ],
      "stateMutability": "view",
      "type": "function",
      "constant": true
    },
    {
      "inputs": [],
      "name": "STORE_OWNER_ROLE",
      "outputs": [
        {
          "internalType": "bytes32",
          "name": "",
          "type": "bytes32"
        }
      ],
      "stateMutability": "view",
      "type": "function",
      "constant": true
    },
    {
      "inputs": [
        {
          "internalType": "address",
          "name": "account",
          "type": "address"
        }
      ],
      "name": "addAdmin",
      "outputs": [],
      "stateMutability": "nonpayable",
      "type": "function"
    },
    {
      "inputs": [
        {
          "internalType": "address",
          "name": "account",
          "type": "address"
        }
      ],
      "name": "addMarketAdmin",
      "outputs": [],
      "stateMutability": "nonpayable",
      "type": "function"
    },
    {
      "inputs": [
        {
          "internalType": "address",
          "name": "account",
          "type": "address"
        }
      ],
      "name": "addStoreOwner",
      "outputs": [],
      "stateMutability": "nonpayable",
      "type": "function"
    },
    {
      "inputs": [
        {
          "internalType": "uint256",
          "name": "index",
          "type": "uint256"
        }
      ],
      "name": "getMarketAdminMember",
      "outputs": [
        {
          "internalType": "address",
          "name": "",
          "type": "address"
        }
      ],
      "stateMutability": "view",
      "type": "function",
      "constant": true
    },
    {
      "inputs": [],
      "name": "getMarketAdminsCount",
      "outputs": [
        {
          "internalType": "uint256",
          "name": "",
          "type": "uint256"
        }
      ],
      "stateMutability": "view",
      "type": "function",
      "constant": true
    },
    {
      "inputs": [
        {
          "internalType": "bytes32",
          "name": "role",
          "type": "bytes32"
        }
      ],
      "name": "getRoleAdmin",
      "outputs": [
        {
          "internalType": "bytes32",
          "name": "",
          "type": "bytes32"
        }
      ],
      "stateMutability": "view",
      "type": "function",
      "constant": true
    },
    {
      "inputs": [
        {
          "internalType": "bytes32",
          "name": "role",
          "type": "bytes32"
        },
        {
          "internalType": "uint256",
          "name": "index",
          "type": "uint256"
        }
      ],
      "name": "getRoleMember",
      "outputs": [
        {
          "internalType": "address",
          "name": "",
          "type": "address"
        }
      ],
      "stateMutability": "view",
      "type": "function",
      "constant": true
    },
    {
      "inputs": [
        {
          "internalType": "bytes32",
          "name": "role",
          "type": "bytes32"
        }
      ],
      "name": "getRoleMemberCount",
      "outputs": [
        {
          "internalType": "uint256",
          "name": "",
          "type": "uint256"
        }
      ],
      "stateMutability": "view",
      "type": "function",
      "constant": true
    },
    {
      "inputs": [
        {
          "internalType": "uint256",
          "name": "index",
          "type": "uint256"
        }
      ],
      "name": "getStoreOwnerMember",
      "outputs": [
        {
          "internalType": "address",
          "name": "",
          "type": "address"
        }
      ],
      "stateMutability": "view",
      "type": "function",
      "constant": true
    },
    {
      "inputs": [],
      "name": "getStoreOwnersCount",
      "outputs": [
        {
          "internalType": "uint256",
          "name": "",
          "type": "uint256"
        }
      ],
      "stateMutability": "view",
      "type": "function",
      "constant": true
    },
    {
      "inputs": [
        {
          "internalType": "bytes32",
          "name": "role",
          "type": "bytes32"
        },
        {
          "internalType": "address",
          "name": "account",
          "type": "address"
        }
      ],
      "name": "grantRole",
      "outputs": [],
      "stateMutability": "nonpayable",
      "type": "function"
    },
    {
      "inputs": [
        {
          "internalType": "bytes32",
          "name": "role",
          "type": "bytes32"
        },
        {
          "internalType": "address",
          "name": "account",
          "type": "address"
        }
      ],
      "name": "hasRole",
      "outputs": [
        {
          "internalType": "bool",
          "name": "",
          "type": "bool"
        }
      ],
      "stateMutability": "view",
      "type": "function",
      "constant": true
    },
    {
      "inputs": [
        {
          "internalType": "address",
          "name": "account",
          "type": "address"
        }
      ],
      "name": "isAdmin",
      "outputs": [
        {
          "internalType": "bool",
          "name": "",
          "type": "bool"
        }
      ],
      "stateMutability": "view",
      "type": "function",
      "constant": true
    },
    {
      "inputs": [
        {
          "internalType": "address",
          "name": "account",
          "type": "address"
        }
      ],
      "name": "isMarketAdmin",
      "outputs": [
        {
          "internalType": "bool",
          "name": "",
          "type": "bool"
        }
      ],
      "stateMutability": "view",
      "type": "function",
      "constant": true
    },
    {
      "inputs": [
        {
          "internalType": "address",
          "name": "account",
          "type": "address"
        }
      ],
      "name": "isStoreOwner",
      "outputs": [
        {
          "internalType": "bool",
          "name": "",
          "type": "bool"
        }
      ],
      "stateMutability": "view",
      "type": "function",
      "constant": true
    },
    {
      "inputs": [],
      "name": "paused",
      "outputs": [
        {
          "internalType": "bool",
          "name": "",
          "type": "bool"
        }
      ],
      "stateMutability": "view",
      "type": "function",
      "constant": true
    },
    {
      "inputs": [
        {
          "internalType": "uint256",
          "name": "",
          "type": "uint256"
        }
      ],
      "name": "products",
      "outputs": [
        {
          "internalType": "uint256",
          "name": "id",
          "type": "uint256"
        },
        {
          "internalType": "string",
          "name": "name",
          "type": "string"
        },
        {
          "internalType": "uint256",
          "name": "price",
          "type": "uint256"
        },
        {
          "internalType": "uint256",
          "name": "storeId",
          "type": "uint256"
        },
        {
          "internalType": "enum Marketplace.State",
          "name": "state",
          "type": "uint8"
        },
        {
          "internalType": "address payable",
          "name": "seller",
          "type": "address"
        },
        {
          "internalType": "address payable",
          "name": "buyer",
          "type": "address"
        }
      ],
      "stateMutability": "view",
      "type": "function",
      "constant": true
    },
    {
      "inputs": [
        {
          "internalType": "address",
          "name": "account",
          "type": "address"
        }
      ],
      "name": "removeMarketAdmin",
      "outputs": [],
      "stateMutability": "nonpayable",
      "type": "function"
    },
    {
      "inputs": [
        {
          "internalType": "address",
          "name": "account",
          "type": "address"
        }
      ],
      "name": "removeStoreOwner",
      "outputs": [],
      "stateMutability": "nonpayable",
      "type": "function"
    },
    {
      "inputs": [],
      "name": "renounceAdmin",
      "outputs": [],
      "stateMutability": "nonpayable",
      "type": "function"
    },
    {
      "inputs": [
        {
          "internalType": "bytes32",
          "name": "role",
          "type": "bytes32"
        },
        {
          "internalType": "address",
          "name": "account",
          "type": "address"
        }
      ],
      "name": "renounceRole",
      "outputs": [],
      "stateMutability": "nonpayable",
      "type": "function"
    },
    {
      "inputs": [
        {
          "internalType": "bytes32",
          "name": "role",
          "type": "bytes32"
        },
        {
          "internalType": "address",
          "name": "account",
          "type": "address"
        }
      ],
      "name": "revokeRole",
      "outputs": [],
      "stateMutability": "nonpayable",
      "type": "function"
    },
    {
      "inputs": [
        {
          "internalType": "string",
          "name": "_name",
          "type": "string"
        }
      ],
      "name": "addStore",
      "outputs": [
        {
          "internalType": "bool",
          "name": "",
          "type": "bool"
        }
      ],
      "stateMutability": "nonpayable",
      "type": "function"
    },
    {
      "inputs": [],
      "name": "getStoreCount",
      "outputs": [
        {
          "internalType": "uint256",
          "name": "",
          "type": "uint256"
        }
      ],
      "stateMutability": "view",
      "type": "function",
      "constant": true
    },
    {
      "inputs": [
        {
          "internalType": "uint256",
          "name": "_storeId",
          "type": "uint256"
        }
      ],
      "name": "getStore",
      "outputs": [
        {
          "internalType": "uint256",
          "name": "id",
          "type": "uint256"
        },
        {
          "internalType": "string",
          "name": "name",
          "type": "string"
        },
        {
          "internalType": "address",
          "name": "owner",
          "type": "address"
        },
        {
          "internalType": "uint256",
          "name": "balance",
          "type": "uint256"
        }
      ],
      "stateMutability": "view",
      "type": "function",
      "constant": true
    },
    {
      "inputs": [
        {
          "internalType": "uint256",
          "name": "_storeId",
          "type": "uint256"
        }
      ],
      "name": "removeStore",
      "outputs": [],
      "stateMutability": "nonpayable",
      "type": "function"
    },
    {
      "inputs": [
        {
          "internalType": "string",
          "name": "_name",
          "type": "string"
        },
        {
          "internalType": "uint256",
          "name": "_price",
          "type": "uint256"
        },
        {
          "internalType": "uint256",
          "name": "_storeId",
          "type": "uint256"
        }
      ],
      "name": "addProduct",
      "outputs": [
        {
          "internalType": "bool",
          "name": "",
          "type": "bool"
        }
      ],
      "stateMutability": "nonpayable",
      "type": "function"
    },
    {
      "inputs": [
        {
          "internalType": "uint256",
          "name": "_productId",
          "type": "uint256"
        }
      ],
      "name": "getProduct",
      "outputs": [
        {
          "internalType": "string",
          "name": "",
          "type": "string"
        },
        {
          "internalType": "uint256",
          "name": "",
          "type": "uint256"
        },
        {
          "internalType": "uint256",
          "name": "",
          "type": "uint256"
        }
      ],
      "stateMutability": "view",
      "type": "function",
      "constant": true
    },
    {
      "inputs": [],
      "name": "getProductCount",
      "outputs": [
        {
          "internalType": "uint256",
          "name": "",
          "type": "uint256"
        }
      ],
      "stateMutability": "view",
      "type": "function",
      "constant": true
    },
    {
      "inputs": [
        {
          "internalType": "uint256",
          "name": "_productId",
          "type": "uint256"
        },
        {
          "internalType": "uint256",
          "name": "_price",
          "type": "uint256"
        },
        {
          "internalType": "uint256",
          "name": "_storeId",
          "type": "uint256"
        }
      ],
      "name": "updateProduct",
      "outputs": [],
      "stateMutability": "nonpayable",
      "type": "function"
    },
    {
      "inputs": [
        {
          "internalType": "uint256",
          "name": "_productId",
          "type": "uint256"
        },
        {
          "internalType": "uint256",
          "name": "_storeId",
          "type": "uint256"
        }
      ],
      "name": "removeProduct",
      "outputs": [],
      "stateMutability": "nonpayable",
      "type": "function"
    },
    {
      "inputs": [
        {
          "internalType": "uint256",
          "name": "_storeId",
          "type": "uint256"
        }
      ],
      "name": "removeStoreProducts",
      "outputs": [],
      "stateMutability": "nonpayable",
      "type": "function"
    },
    {
      "inputs": [
        {
          "internalType": "uint256",
          "name": "_productId",
          "type": "uint256"
        }
      ],
      "name": "purchaseProduct",
      "outputs": [
        {
          "internalType": "bool",
          "name": "",
          "type": "bool"
        }
      ],
      "stateMutability": "payable",
      "type": "function",
      "payable": true
    },
    {
      "inputs": [
        {
          "internalType": "uint256",
          "name": "_storeId",
          "type": "uint256"
        }
      ],
      "name": "withdrawStoreBalance",
      "outputs": [
        {
          "internalType": "bool",
          "name": "",
          "type": "bool"
        }
      ],
      "stateMutability": "payable",
      "type": "function",
      "payable": true
    }
  ],
  "bytecode": "0x60806040523480156200001157600080fd5b50620000276000801b336200020160201b60201c565b6200007160405180807f4d41524b45545f41444d494e5f524f4c45000000000000000000000000000000815250601101905060405180910390206000801b6200021760201b60201c565b620000ed60405180807f53544f52455f4f574e4552000000000000000000000000000000000000000000815250600b019050604051809103902060405180807f4d41524b45545f41444d494e5f524f4c45000000000000000000000000000000815250601101905060405180910390206200021760201b60201c565b6000600160006101000a81548160ff0219169083151502179055506001600281905550620001256000801b336200020160201b60201c565b6200016f60405180807f4d41524b45545f41444d494e5f524f4c45000000000000000000000000000000815250601101905060405180910390206000801b6200021760201b60201c565b620001eb60405180807f53544f52455f4f574e4552000000000000000000000000000000000000000000815250600b019050604051809103902060405180807f4d41524b45545f41444d494e5f524f4c45000000000000000000000000000000815250601101905060405180910390206200021760201b60201c565b60006005819055506000600681905550620003f9565b6200021382826200027960201b60201c565b5050565b8060008084815260200190815260200160002060020154837fbd79b86ffe0ab8e8776151514217cd7cacd52c909f66475c3af44e129f0b00ff60405160405180910390a480600080848152602001908152602001600020600201819055505050565b620002a7816000808581526020019081526020016000206000016200031c60201b6200352f1790919060201c565b156200031857620002bd6200035460201b60201c565b73ffffffffffffffffffffffffffffffffffffffff168173ffffffffffffffffffffffffffffffffffffffff16837f2f8788117e7eff1d82e926ec794901d17c78024a50270940304540a733656f0d60405160405180910390a45b5050565b60006200034c836000018373ffffffffffffffffffffffffffffffffffffffff1660001b6200035c60201b60201c565b905092915050565b600033905090565b6000620003708383620003d660201b60201c565b620003cb578260000182908060018154018082558091505060019003906000526020600020016000909190919091505582600001805490508360010160008481526020019081526020016000208190555060019050620003d0565b600090505b92915050565b600080836001016000848152602001908152602001600020541415905092915050565b613a3180620004096000396000f3fe60806040526004361061021a5760003560e01c80638340312011610123578063a217fddf116100ab578063ca15c8731161006f578063ca15c87314610eef578063d547741f14610f3e578063d6f0d39f14610f99578063f3c93a9214610fc4578063f85292ca146110155761021a565b8063a217fddf14610ccd578063a845925d14610cf8578063b38f668b14610d61578063b9db15b414610db2578063be5610b914610e745761021a565b806395e81428116100f257806395e8142814610bc057806398e8bd9714610beb5780639adeb5f114610c165780639bc0432c14610c675780639d4cca8e14610ca25761021a565b806383403120146109bc5780638bad0c0a14610ab15780639010d07c14610ac857806391d1485414610b4d5761021a565b80634a348da9116101a65780636174fdd1116101755780636174fdd1146106cb578063662feffc1461071c5780636adaabb6146107fc57806370480275146108275780637acc0b20146108785761021a565b80634a348da9146105c35780635287d535146105ee5780635c975abb146106335780635effd33c146106625761021a565b8063248a9ca3116101ed578063248a9ca31461040f57806324d7806c1461045e5780632f2ff15d146104c757806336568abe1461052257806338e76a031461057d5761021a565b8063057a711e1461021f578063087f7da81461029a578063125b0b34146102d557806315aaeb22146103c9575b600080fd5b34801561022b57600080fd5b506102586004803603602081101561024257600080fd5b8101908080359060200190929190505050611064565b604051808273ffffffffffffffffffffffffffffffffffffffff1673ffffffffffffffffffffffffffffffffffffffff16815260200191505060405180910390f35b3480156102a657600080fd5b506102d3600480360360208110156102bd57600080fd5b81019080803590602001909291905050506110ac565b005b3480156102e157600080fd5b506103af600480360360608110156102f857600080fd5b810190808035906020019064010000000081111561031557600080fd5b82018360208201111561032757600080fd5b8035906020019184600183028401116401000000008311171561034957600080fd5b91908080601f016020809104026020016040519081016040528093929190818152602001838380828437600081840152601f19601f82011690508083019250505050505050919291929080359060200190929190803590602001909291905050506113f4565b604051808215151515815260200191505060405180910390f35b6103f5600480360360208110156103df57600080fd5b8101908080359060200190929190505050611782565b604051808215151515815260200191505060405180910390f35b34801561041b57600080fd5b506104486004803603602081101561043257600080fd5b8101908080359060200190929190505050611acb565b6040518082815260200191505060405180910390f35b34801561046a57600080fd5b506104ad6004803603602081101561048157600080fd5b81019080803573ffffffffffffffffffffffffffffffffffffffff169060200190929190505050611aea565b604051808215151515815260200191505060405180910390f35b3480156104d357600080fd5b50610520600480360360408110156104ea57600080fd5b8101908080359060200190929190803573ffffffffffffffffffffffffffffffffffffffff169060200190929190505050611b00565b005b34801561052e57600080fd5b5061057b6004803603604081101561054557600080fd5b8101908080359060200190929190803573ffffffffffffffffffffffffffffffffffffffff169060200190929190505050611b89565b005b6105a96004803603602081101561059357600080fd5b8101908080359060200190929190505050611c22565b604051808215151515815260200191505060405180910390f35b3480156105cf57600080fd5b506105d8611f7e565b6040518082815260200191505060405180910390f35b3480156105fa57600080fd5b506106316004803603604081101561061157600080fd5b810190808035906020019092919080359060200190929190505050611f88565b005b34801561063f57600080fd5b5061064861223a565b604051808215151515815260200191505060405180910390f35b34801561066e57600080fd5b506106b16004803603602081101561068557600080fd5b81019080803573ffffffffffffffffffffffffffffffffffffffff169060200190929190505050612251565b604051808215151515815260200191505060405180910390f35b3480156106d757600080fd5b5061071a600480360360208110156106ee57600080fd5b81019080803573ffffffffffffffffffffffffffffffffffffffff169060200190929190505050612299565b005b34801561072857600080fd5b506107e26004803603602081101561073f57600080fd5b810190808035906020019064010000000081111561075c57600080fd5b82018360208201111561076e57600080fd5b8035906020019184600183028401116401000000008311171561079057600080fd5b91908080601f016020809104026020016040519081016040528093929190818152602001838380828437600081840152601f19601f820116905080830192505050505050509192919290505050612356565b604051808215151515815260200191505060405180910390f35b34801561080857600080fd5b50610811612623565b6040518082815260200191505060405180910390f35b34801561083357600080fd5b506108766004803603602081101561084a57600080fd5b81019080803573ffffffffffffffffffffffffffffffffffffffff16906020019092919050505061265c565b005b34801561088457600080fd5b506108b16004803603602081101561089b57600080fd5b81019080803590602001909291905050506126e7565b60405180888152602001806020018781526020018681526020018560018111156108d757fe5b60ff1681526020018473ffffffffffffffffffffffffffffffffffffffff1673ffffffffffffffffffffffffffffffffffffffff1681526020018373ffffffffffffffffffffffffffffffffffffffff1673ffffffffffffffffffffffffffffffffffffffff168152602001828103825288818151815260200191508051906020019080838360005b8381101561097b578082015181840152602081019050610960565b50505050905090810190601f1680156109a85780820380516001836020036101000a031916815260200191505b509850505050505050505060405180910390f35b3480156109c857600080fd5b506109f5600480360360208110156109df57600080fd5b810190808035906020019092919050505061280e565b60405180858152602001806020018473ffffffffffffffffffffffffffffffffffffffff1673ffffffffffffffffffffffffffffffffffffffff168152602001838152602001828103825285818151815260200191508051906020019080838360005b83811015610a73578082015181840152602081019050610a58565b50505050905090810190601f168015610aa05780820380516001836020036101000a031916815260200191505b509550505050505060405180910390f35b348015610abd57600080fd5b50610ac661292b565b005b348015610ad457600080fd5b50610b0b60048036036040811015610aeb57600080fd5b81019080803590602001909291908035906020019092919050505061293a565b604051808273ffffffffffffffffffffffffffffffffffffffff1673ffffffffffffffffffffffffffffffffffffffff16815260200191505060405180910390f35b348015610b5957600080fd5b50610ba660048036036040811015610b7057600080fd5b8101908080359060200190929190803573ffffffffffffffffffffffffffffffffffffffff16906020019092919050505061296b565b604051808215151515815260200191505060405180910390f35b348015610bcc57600080fd5b50610bd561299c565b6040518082815260200191505060405180910390f35b348015610bf757600080fd5b50610c006129e1565b6040518082815260200191505060405180910390f35b348015610c2257600080fd5b50610c6560048036036020811015610c3957600080fd5b81019080803573ffffffffffffffffffffffffffffffffffffffff1690602001909291905050506129eb565b005b348015610c7357600080fd5b50610ca060048036036020811015610c8a57600080fd5b8101908080359060200190929190505050612aa8565b005b348015610cae57600080fd5b50610cb7612c46565b6040518082815260200191505060405180910390f35b348015610cd957600080fd5b50610ce2612c8b565b6040518082815260200191505060405180910390f35b348015610d0457600080fd5b50610d4760048036036020811015610d1b57600080fd5b81019080803573ffffffffffffffffffffffffffffffffffffffff169060200190929190505050612c92565b604051808215151515815260200191505060405180910390f35b348015610d6d57600080fd5b50610db060048036036020811015610d8457600080fd5b81019080803573ffffffffffffffffffffffffffffffffffffffff169060200190929190505050612cda565b005b348015610dbe57600080fd5b50610deb60048036036020811015610dd557600080fd5b8101908080359060200190929190505050612d97565b6040518080602001848152602001838152602001828103825285818151815260200191508051906020019080838360005b83811015610e37578082015181840152602081019050610e1c565b50505050905090810190601f168015610e645780820380516001836020036101000a031916815260200191505b5094505050505060405180910390f35b348015610e8057600080fd5b50610ead60048036036020811015610e9757600080fd5b8101908080359060200190929190505050612e89565b604051808273ffffffffffffffffffffffffffffffffffffffff1673ffffffffffffffffffffffffffffffffffffffff16815260200191505060405180910390f35b348015610efb57600080fd5b50610f2860048036036020811015610f1257600080fd5b8101908080359060200190929190505050612ed1565b6040518082815260200191505060405180910390f35b348015610f4a57600080fd5b50610f9760048036036040811015610f6157600080fd5b8101908080359060200190929190803573ffffffffffffffffffffffffffffffffffffffff169060200190929190505050612ef7565b005b348015610fa557600080fd5b50610fae612f80565b6040518082815260200191505060405180910390f35b348015610fd057600080fd5b5061101360048036036020811015610fe757600080fd5b81019080803573ffffffffffffffffffffffffffffffffffffffff169060200190929190505050612fb9565b005b34801561102157600080fd5b506110626004803603606081101561103857600080fd5b81019080803590602001909291908035906020019092919080359060200190929190505050613076565b005b60006110a560405180807f53544f52455f4f574e4552000000000000000000000000000000000000000000815250600b01905060405180910390208361293a565b9050919050565b6110b533612251565b611127576040517f08c379a00000000000000000000000000000000000000000000000000000000081526004018080602001828103825260198152602001807f5265737472696374656420746f2053746f72654f776e65722e0000000000000081525060200191505060405180910390fd5b803373ffffffffffffffffffffffffffffffffffffffff166003600083815260200190815260200160002060020160009054906101000a900473ffffffffffffffffffffffffffffffffffffffff1673ffffffffffffffffffffffffffffffffffffffff16146111ff576040517f08c379a00000000000000000000000000000000000000000000000000000000081526004018080602001828103825260198152602001807f5265737472696374656420746f2053746f72654f776e65722e0000000000000081525060200191505060405180910390fd5b600160009054906101000a900460ff1615611282576040517f08c379a00000000000000000000000000000000000000000000000000000000081526004018080602001828103825260108152602001807f5061757361626c653a207061757365640000000000000000000000000000000081525060200191505060405180910390fd5b60008090505b6005548110156113b857826004600083815260200190815260200160002060030154141561139e57600460008281526020019081526020016000206000808201600090556001820160006112dc919061385e565b600282016000905560038201600090556004820160006101000a81549060ff02191690556004820160016101000a81549073ffffffffffffffffffffffffffffffffffffffff02191690556005820160006101000a81549073ffffffffffffffffffffffffffffffffffffffff021916905550507f07015631cff457b5b13492c2045e70c6305a0a4aa773e432e79abbe2cf52c1eb60046000838152602001908152602001600020600001546040518082815260200191505060405180910390a15b6113b26001826132d090919063ffffffff16565b50611288565b507fa80990a022db750a9e2caf60be3e96096bfb7a98e01506413190227406ba9824826040518082815260200191505060405180910390a15050565b60006113ff33612251565b611471576040517f08c379a00000000000000000000000000000000000000000000000000000000081526004018080602001828103825260198152602001807f5265737472696374656420746f2053746f72654f776e65722e0000000000000081525060200191505060405180910390fd5b600160009054906101000a900460ff16156114f4576040517f08c379a00000000000000000000000000000000000000000000000000000000081526004018080602001828103825260108152602001807f5061757361626c653a207061757365640000000000000000000000000000000081525060200191505060405180910390fd5b6040518060e0016040528060055481526020018581526020018481526020018381526020016000600181111561152657fe5b81526020013373ffffffffffffffffffffffffffffffffffffffff168152602001600073ffffffffffffffffffffffffffffffffffffffff1681525060046000600554815260200190815260200160002060008201518160000155602082015181600101908051906020019061159d9291906138a6565b50604082015181600201556060820151816003015560808201518160040160006101000a81548160ff021916908360018111156115d657fe5b021790555060a08201518160040160016101000a81548173ffffffffffffffffffffffffffffffffffffffff021916908373ffffffffffffffffffffffffffffffffffffffff16021790555060c08201518160050160006101000a81548173ffffffffffffffffffffffffffffffffffffffff021916908373ffffffffffffffffffffffffffffffffffffffff1602179055509050507fb47064f137db457a23f0999063b78d3911cd5604e0eea6e1220725f595d545076005548585856040518085815260200180602001848152602001838152602001828103825285818151815260200191508051906020019080838360005b838110156116e55780820151818401526020810190506116ca565b50505050905090810190601f1680156117125780820380516001836020036101000a031916815260200191505b509550505050505060405180910390a17f4627c48065af2a9648cbecdd4b9da340c00e501243cd49a8a71c30c987e8b7616005546040518082815260200191505060405180910390a161177160016005546132d090919063ffffffff16565b600581905550600190509392505050565b600061178d33612251565b6117ff576040517f08c379a00000000000000000000000000000000000000000000000000000000081526004018080602001828103825260198152602001807f5265737472696374656420746f2053746f72654f776e65722e0000000000000081525060200191505060405180910390fd5b813373ffffffffffffffffffffffffffffffffffffffff166003600083815260200190815260200160002060020160009054906101000a900473ffffffffffffffffffffffffffffffffffffffff1673ffffffffffffffffffffffffffffffffffffffff16146118d7576040517f08c379a00000000000000000000000000000000000000000000000000000000081526004018080602001828103825260198152602001807f5265737472696374656420746f2053746f72654f776e65722e0000000000000081525060200191505060405180910390fd5b600160009054906101000a900460ff161561195a576040517f08c379a00000000000000000000000000000000000000000000000000000000081526004018080602001828103825260108152602001807f5061757361626c653a207061757365640000000000000000000000000000000081525060200191505060405180910390fd5b6002805414156119d2576040517f08c379a000000000000000000000000000000000000000000000000000000000815260040180806020018281038252601f8152602001807f5265656e7472616e637947756172643a207265656e7472616e742063616c6c0081525060200191505060405180910390fd5b6002808190555060006003600085815260200190815260200160002060030154116119fc57600080fd5b600060036000858152602001908152602001600020600301549050600060036000868152602001908152602001600020600301819055503373ffffffffffffffffffffffffffffffffffffffff166108fc829081150290604051600060405180830381858888f19350505050158015611a79573d6000803e3d6000fd5b507efa835badd2ac7cadcd302547c91df2ec74e1fc02fc068c3f53f4ecff6363548482604051808381526020018281526020019250505060405180910390a16001925050600160028190555050919050565b6000806000838152602001908152602001600020600201549050919050565b6000611af96000801b8361296b565b9050919050565b611b2660008084815260200190815260200160002060020154611b21613358565b61296b565b611b7b576040517f08c379a000000000000000000000000000000000000000000000000000000000815260040180806020018281038252602f81526020018061396e602f913960400191505060405180910390fd5b611b858282613360565b5050565b611b91613358565b73ffffffffffffffffffffffffffffffffffffffff168173ffffffffffffffffffffffffffffffffffffffff1614611c14576040517f08c379a000000000000000000000000000000000000000000000000000000000815260040180806020018281038252602f8152602001806139cd602f913960400191505060405180910390fd5b611c1e82826133f3565b5050565b60008160006001811115611c3257fe5b6004600083815260200190815260200160002060040160009054906101000a900460ff166001811115611c6157fe5b148015611c8557506000600460008381526020019081526020016000206002015410155b611c8e57600080fd5b600460008481526020019081526020016000206002015480341015611cb257600080fd5b83600160009054906101000a900460ff1615611d36576040517f08c379a00000000000000000000000000000000000000000000000000000000081526004018080602001828103825260108152602001807f5061757361626c653a207061757365640000000000000000000000000000000081525060200191505060405180910390fd5b600280541415611dae576040517f08c379a000000000000000000000000000000000000000000000000000000000815260040180806020018281038252601f8152602001807f5265656e7472616e637947756172643a207265656e7472616e742063616c6c0081525060200191505060405180910390fd5b60028081905550336004600087815260200190815260200160002060050160006101000a81548173ffffffffffffffffffffffffffffffffffffffff021916908373ffffffffffffffffffffffffffffffffffffffff16021790555060016004600087815260200190815260200160002060040160006101000a81548160ff02191690836001811115611e3d57fe5b0217905550611e813460036000600460008a8152602001908152602001600020600301548152602001908152602001600020600301546132d090919063ffffffff16565b507fe64ca8c671e48636f85f3008c1dd538e36bfa74fb6f2790b56b72fcc33b879ef856040518082815260200191505060405180910390a16001935060016002819055506000600460008381526020019081526020016000206002015490506000611ef5823461348690919063ffffffff16565b90506004600084815260200190815260200160002060050160009054906101000a900473ffffffffffffffffffffffffffffffffffffffff1673ffffffffffffffffffffffffffffffffffffffff166108fc829081150290604051600060405180830381858888f19350505050158015611f73573d6000803e3d6000fd5b505050505050919050565b6000600554905090565b611f9133612251565b612003576040517f08c379a00000000000000000000000000000000000000000000000000000000081526004018080602001828103825260198152602001807f5265737472696374656420746f2053746f72654f776e65722e0000000000000081525060200191505060405180910390fd5b803373ffffffffffffffffffffffffffffffffffffffff166003600083815260200190815260200160002060020160009054906101000a900473ffffffffffffffffffffffffffffffffffffffff1673ffffffffffffffffffffffffffffffffffffffff16146120db576040517f08c379a00000000000000000000000000000000000000000000000000000000081526004018080602001828103825260198152602001807f5265737472696374656420746f2053746f72654f776e65722e0000000000000081525060200191505060405180910390fd5b600160009054906101000a900460ff161561215e576040517f08c379a00000000000000000000000000000000000000000000000000000000081526004018080602001828103825260108152602001807f5061757361626c653a207061757365640000000000000000000000000000000081525060200191505060405180910390fd5b6004600084815260200190815260200160002060008082016000905560018201600061218a919061385e565b600282016000905560038201600090556004820160006101000a81549060ff02191690556004820160016101000a81549073ffffffffffffffffffffffffffffffffffffffff02191690556005820160006101000a81549073ffffffffffffffffffffffffffffffffffffffff021916905550507f07015631cff457b5b13492c2045e70c6305a0a4aa773e432e79abbe2cf52c1eb836040518082815260200191505060405180910390a1505050565b6000600160009054906101000a900460ff16905090565b600061229260405180807f53544f52455f4f574e4552000000000000000000000000000000000000000000815250600b01905060405180910390208361296b565b9050919050565b6122a233612c92565b612314576040517f08c379a000000000000000000000000000000000000000000000000000000000815260040180806020018281038252601a8152602001807f5265737472696374656420746f204d61726b657441646d696e2e00000000000081525060200191505060405180910390fd5b61235360405180807f53544f52455f4f574e4552000000000000000000000000000000000000000000815250600b019050604051809103902082612ef7565b50565b600061236133612251565b6123d3576040517f08c379a00000000000000000000000000000000000000000000000000000000081526004018080602001828103825260198152602001807f5265737472696374656420746f2053746f72654f776e65722e0000000000000081525060200191505060405180910390fd5b600160009054906101000a900460ff1615612456576040517f08c379a00000000000000000000000000000000000000000000000000000000081526004018080602001828103825260108152602001807f5061757361626c653a207061757365640000000000000000000000000000000081525060200191505060405180910390fd5b604051806080016040528060065481526020018381526020013373ffffffffffffffffffffffffffffffffffffffff16815260200160008152506003600060065481526020019081526020016000206000820151816000015560208201518160010190805190602001906124cb9291906138a6565b5060408201518160020160006101000a81548173ffffffffffffffffffffffffffffffffffffffff021916908373ffffffffffffffffffffffffffffffffffffffff160217905550606082015181600301559050507f5498ef7bd71610f6fcee71a30d782124db98071203d7e0a4bb248861711999906006548333600060405180858152602001806020018473ffffffffffffffffffffffffffffffffffffffff1673ffffffffffffffffffffffffffffffffffffffff168152602001838152602001828103825285818151815260200191508051906020019080838360005b838110156125c65780820151818401526020810190506125ab565b50505050905090810190601f1680156125f35780820380516001836020036101000a031916815260200191505b509550505050505060405180910390a161261960016006546132d090919063ffffffff16565b5060019050919050565b60405180807f53544f52455f4f574e4552000000000000000000000000000000000000000000815250600b019050604051809103902081565b61266533611aea565b6126d7576040517f08c379a00000000000000000000000000000000000000000000000000000000081526004018080602001828103825260158152602001807f5265737472696374656420746f2061646d696e732e000000000000000000000081525060200191505060405180910390fd5b6126e46000801b82611b00565b50565b6004602052806000526040600020600091509050806000015490806001018054600181600116156101000203166002900480601f0160208091040260200160405190810160405280929190818152602001828054600181600116156101000203166002900480156127995780601f1061276e57610100808354040283529160200191612799565b820191906000526020600020905b81548152906001019060200180831161277c57829003601f168201915b5050505050908060020154908060030154908060040160009054906101000a900460ff16908060040160019054906101000a900473ffffffffffffffffffffffffffffffffffffffff16908060050160009054906101000a900473ffffffffffffffffffffffffffffffffffffffff16905087565b60006060600080600360008681526020019081526020016000206001018054600181600116156101000203166002900480601f0160208091040260200160405190810160405280929190818152602001828054600181600116156101000203166002900480156128bf5780601f10612894576101008083540402835291602001916128bf565b820191906000526020600020905b8154815290600101906020018083116128a257829003601f168201915b505050505092506003600086815260200190815260200160002060020160009054906101000a900473ffffffffffffffffffffffffffffffffffffffff169150600360008681526020019081526020016000206003015490508483838393509350935093509193509193565b6129386000801b33611b89565b565b6000612963826000808681526020019081526020016000206000016134d090919063ffffffff16565b905092915050565b6000612994826000808681526020019081526020016000206000016134ea90919063ffffffff16565b905092915050565b60006129dc60405180807f4d41524b45545f41444d494e5f524f4c4500000000000000000000000000000081525060110190506040518091039020612ed1565b905090565b6000600654905090565b6129f433612c92565b612a66576040517f08c379a000000000000000000000000000000000000000000000000000000000815260040180806020018281038252601a8152602001807f5265737472696374656420746f204d61726b657441646d696e2e00000000000081525060200191505060405180910390fd5b612aa560405180807f53544f52455f4f574e4552000000000000000000000000000000000000000000815250600b019050604051809103902082611b00565b50565b612ab133612251565b612b23576040517f08c379a00000000000000000000000000000000000000000000000000000000081526004018080602001828103825260198152602001807f5265737472696374656420746f2053746f72654f776e65722e0000000000000081525060200191505060405180910390fd5b600160009054906101000a900460ff1615612ba6576040517f08c379a00000000000000000000000000000000000000000000000000000000081526004018080602001828103825260108152602001807f5061757361626c653a207061757365640000000000000000000000000000000081525060200191505060405180910390fd5b612baf816110ac565b60036000828152602001908152602001600020600080820160009055600182016000612bdb919061385e565b6002820160006101000a81549073ffffffffffffffffffffffffffffffffffffffff0219169055600382016000905550507fb500ab3f4b111e50e443925c5af6e6355475364757d656efb1023cd573324768816040518082815260200191505060405180910390a150565b6000612c8660405180807f53544f52455f4f574e4552000000000000000000000000000000000000000000815250600b0190506040518091039020612ed1565b905090565b6000801b81565b6000612cd360405180807f4d41524b45545f41444d494e5f524f4c45000000000000000000000000000000815250601101905060405180910390208361296b565b9050919050565b612ce333611aea565b612d55576040517f08c379a00000000000000000000000000000000000000000000000000000000081526004018080602001828103825260158152602001807f5265737472696374656420746f2061646d696e732e000000000000000000000081525060200191505060405180910390fd5b612d9460405180807f4d41524b45545f41444d494e5f524f4c450000000000000000000000000000008152506011019050604051809103902082612ef7565b50565b60606000806004600085815260200190815260200160002060010160046000868152602001908152602001600020600201546004600087815260200190815260200160002060030154828054600181600116156101000203166002900480601f016020809104026020016040519081016040528092919081815260200182805460018160011615610100020316600290048015612e755780601f10612e4a57610100808354040283529160200191612e75565b820191906000526020600020905b815481529060010190602001808311612e5857829003601f168201915b505050505092509250925092509193909250565b6000612eca60405180807f4d41524b45545f41444d494e5f524f4c45000000000000000000000000000000815250601101905060405180910390208361293a565b9050919050565b6000612ef060008084815260200190815260200160002060000161351a565b9050919050565b612f1d60008084815260200190815260200160002060020154612f18613358565b61296b565b612f72576040517f08c379a000000000000000000000000000000000000000000000000000000000815260040180806020018281038252603081526020018061399d6030913960400191505060405180910390fd5b612f7c82826133f3565b5050565b60405180807f4d41524b45545f41444d494e5f524f4c450000000000000000000000000000008152506011019050604051809103902081565b612fc233611aea565b613034576040517f08c379a00000000000000000000000000000000000000000000000000000000081526004018080602001828103825260158152602001807f5265737472696374656420746f2061646d696e732e000000000000000000000081525060200191505060405180910390fd5b61307360405180807f4d41524b45545f41444d494e5f524f4c450000000000000000000000000000008152506011019050604051809103902082611b00565b50565b61307f33612251565b6130f1576040517f08c379a00000000000000000000000000000000000000000000000000000000081526004018080602001828103825260198152602001807f5265737472696374656420746f2053746f72654f776e65722e0000000000000081525060200191505060405180910390fd5b803373ffffffffffffffffffffffffffffffffffffffff166003600083815260200190815260200160002060020160009054906101000a900473ffffffffffffffffffffffffffffffffffffffff1673ffffffffffffffffffffffffffffffffffffffff16146131c9576040517f08c379a00000000000000000000000000000000000000000000000000000000081526004018080602001828103825260198152602001807f5265737472696374656420746f2053746f72654f776e65722e0000000000000081525060200191505060405180910390fd5b600160009054906101000a900460ff161561324c576040517f08c379a00000000000000000000000000000000000000000000000000000000081526004018080602001828103825260108152602001807f5061757361626c653a207061757365640000000000000000000000000000000081525060200191505060405180910390fd5b6000600460008681526020019081526020016000206002015490508360046000878152602001908152602001600020600201819055507f85326753e04f600bd6af5ac2ef1e4b5cce8f97ff58b3e90733151aefc7aae77a85828660405180848152602001838152602001828152602001935050505060405180910390a15050505050565b60008082840190508381101561334e576040517f08c379a000000000000000000000000000000000000000000000000000000000815260040180806020018281038252601b8152602001807f536166654d6174683a206164646974696f6e206f766572666c6f77000000000081525060200191505060405180910390fd5b8091505092915050565b600033905090565b6133878160008085815260200190815260200160002060000161352f90919063ffffffff16565b156133ef57613394613358565b73ffffffffffffffffffffffffffffffffffffffff168173ffffffffffffffffffffffffffffffffffffffff16837f2f8788117e7eff1d82e926ec794901d17c78024a50270940304540a733656f0d60405160405180910390a45b5050565b61341a8160008085815260200190815260200160002060000161355f90919063ffffffff16565b1561348257613427613358565b73ffffffffffffffffffffffffffffffffffffffff168173ffffffffffffffffffffffffffffffffffffffff16837ff6391f5c32d9c69d2a47ea670b442974b53935d1edc7fd64eb21e047a839171b60405160405180910390a45b5050565b60006134c883836040518060400160405280601e81526020017f536166654d6174683a207375627472616374696f6e206f766572666c6f77000081525061358f565b905092915050565b60006134df836000018361364f565b60001c905092915050565b6000613512836000018373ffffffffffffffffffffffffffffffffffffffff1660001b6136d2565b905092915050565b6000613528826000016136f5565b9050919050565b6000613557836000018373ffffffffffffffffffffffffffffffffffffffff1660001b613706565b905092915050565b6000613587836000018373ffffffffffffffffffffffffffffffffffffffff1660001b613776565b905092915050565b600083831115829061363c576040517f08c379a00000000000000000000000000000000000000000000000000000000081526004018080602001828103825283818151815260200191508051906020019080838360005b838110156136015780820151818401526020810190506135e6565b50505050905090810190601f16801561362e5780820380516001836020036101000a031916815260200191505b509250505060405180910390fd5b5060008385039050809150509392505050565b6000818360000180549050116136b0576040517f08c379a000000000000000000000000000000000000000000000000000000000815260040180806020018281038252602281526020018061394c6022913960400191505060405180910390fd5b8260000182815481106136bf57fe5b9060005260206000200154905092915050565b600080836001016000848152602001908152602001600020541415905092915050565b600081600001805490509050919050565b600061371283836136d2565b61376b578260000182908060018154018082558091505060019003906000526020600020016000909190919091505582600001805490508360010160008481526020019081526020016000208190555060019050613770565b600090505b92915050565b6000808360010160008481526020019081526020016000205490506000811461385257600060018203905060006001866000018054905003905060008660000182815481106137c157fe5b90600052602060002001549050808760000184815481106137de57fe5b906000526020600020018190555060018301876001016000838152602001908152602001600020819055508660000180548061381657fe5b60019003818190600052602060002001600090559055866001016000878152602001908152602001600020600090556001945050505050613858565b60009150505b92915050565b50805460018160011615610100020316600290046000825580601f1061388457506138a3565b601f0160209004906000526020600020908101906138a29190613926565b5b50565b828054600181600116156101000203166002900490600052602060002090601f016020900481019282601f106138e757805160ff1916838001178555613915565b82800160010185558215613915579182015b828111156139145782518255916020019190600101906138f9565b5b5090506139229190613926565b5090565b61394891905b8082111561394457600081600090555060010161392c565b5090565b9056fe456e756d657261626c655365743a20696e646578206f7574206f6620626f756e6473416363657373436f6e74726f6c3a2073656e646572206d75737420626520616e2061646d696e20746f206772616e74416363657373436f6e74726f6c3a2073656e646572206d75737420626520616e2061646d696e20746f207265766f6b65416363657373436f6e74726f6c3a2063616e206f6e6c792072656e6f756e636520726f6c657320666f722073656c66a2646970667358221220043617c59e219c355727720387c0740d83b4fddf28884b59da3b0204d470c26464736f6c63430006020033",
  "source": "pragma solidity >=0.5.16<0.8.0;\n\nimport \"@openzeppelin/contracts/math/SafeMath.sol\";\nimport \"@openzeppelin/contracts/utils/Pausable.sol\";\nimport \"@openzeppelin/contracts/utils/ReentrancyGuard.sol\";\nimport \"./Administered.sol\";\nimport \"./Store.sol\";\n\n/// @title A simulator for Market Place\n/// @author Aysha Amin\n/// @notice You can use this contract for only the most basic simulation\ncontract Marketplace is Administered, Pausable, ReentrancyGuard{\n\nusing SafeMath for uint256;\n  struct Store{\n\t\tuint256 id; \n\t\tstring name;\n\t\taddress owner; \n\t\tuint256 balance; \n\t}\n  struct Product{\n    uint256 id;\n    string name;\n    uint256 price;\n    uint storeId; \n    State state;\n    address payable seller;\n    address payable buyer;\n  }\n  enum State{\n    ForSale,\n    Sold\n  }\n\n\tmapping (uint256 => Store) private stores; \n  mapping (uint256 => Product) public products;\n  uint256 productCount;\n  uint256 storeCount;\n\n\n  constructor() public \n  {\n    /* Here, set the owner as the person who instantiated the contract\n       and set your idCount to 0. */\n       //owner=msg.sender;\n       _setupRole(DEFAULT_ADMIN_ROLE, msg.sender);\n    //_setupRole(MARKET_ADMIN_ROLE, msg.sender);\n    _setRoleAdmin(MARKET_ADMIN_ROLE, DEFAULT_ADMIN_ROLE);\n    _setRoleAdmin(STORE_OWNER_ROLE, MARKET_ADMIN_ROLE);\n       productCount=0;\n       storeCount=0;\n  }\n\n  event LogForSale(uint256 id);\n  event LogSold(uint256 id);\n  event LogStoreAdded (\n\t\tuint256 id, \n\t\tstring name, \n\t\taddress owner, \n\t\tuint256 balance);\n\n  event LogProductAdded (\n\t\tuint256 id, \n\t\tstring name, \n\t\tuint256 price, \n\t\tuint256 storeId);\n  event LogWithdrawStoreBalance(\n    uint256 storeId,\n\t\tuint256 amount\n  );\n  event LogPriceUpdated(\n    uint256 id, \n\t\tuint256 oldPrice, \n\t\tuint256 newPrice\n  );\n  event ProductRemoved(uint256 _productId);\n  event ProductsRemoved(uint256 _storeId);\n  event StoreRemoved(uint256 _storeId);\n\n\n  modifier forSale(uint256 _productId){require(products[_productId].state == State.ForSale && products[_productId].price >= 0); _;}\n  modifier sold(uint256 _productId){require(products[_productId].state == State.Sold && products[_productId].buyer != address(0)); _;}\n  modifier paidEnough(uint256 _price) { require(msg.value >= _price); _;}\n  modifier checkValue(uint256 _productId) {\n    //refund them after pay for item (why it is before, _ checks for logic before func)\n    _;\n    uint256 _price = products[_productId].price;\n    uint256 amountToRefund = msg.value.sub(_price) ;\n    products[_productId].buyer.transfer(amountToRefund);\n  }\n  \n  modifier onlyOwnerOfThisStore(uint256 _storeId)\n  {\n    require(stores[_storeId].owner == msg.sender, \"Restricted to StoreOwner.\");\n    _;\n  }\n\n  /// @dev Add a Store.\n\t/// @param _name Name of Store to Add \n  /// @return Store Added\n  function addStore(string memory _name)\n  onlyStoreOwner\n  whenNotPaused\n  public\n  returns(bool)\n  {\n    stores[storeCount] = Store({ id: storeCount,name: _name, owner: msg.sender, balance: 0});\n    emit LogStoreAdded(storeCount, _name, msg.sender, 0);\n    storeCount.add(1);\n    return true;\n  }\n  \n  /// @dev Get Store Count.\n  /// @return The count of the stores\n  function getStoreCount() \n  public \n  view \n  returns (uint256) {\n    return storeCount;\n  } \n\n  /// @dev Get a Store.\n\t/// @param _storeId ID of Store to Get \n  function getStore(uint256 _storeId) \n  public \n  view \n  returns (uint256 id,string memory name, address owner, uint256 balance) {\n    name = stores[_storeId].name;\n    owner = stores[_storeId].owner;\n    balance = stores[_storeId].balance;\n    return (_storeId,name, owner, balance);\n  } \n\n  /// @dev Remove a Store.\n\t/// @param _storeId ID of Store to Remove \n  function removeStore(uint256 _storeId)\n  onlyStoreOwner\n  whenNotPaused\n  public\n  {\n    removeStoreProducts(_storeId);\n    delete stores[_storeId];\n\t\temit StoreRemoved(_storeId);\n  }\n\n  /// @dev Add a product.\n\t/// @param _name Name of product to Add \n  /// @param _price Price ID for product \n  /// @param _storeId Store ID for product to Add \n  function addProduct(string memory _name,uint256 _price,uint256  _storeId)\n    onlyStoreOwner\n    whenNotPaused\n    public\n    returns(bool)\n  {\n    products[productCount] = Product({name: _name, id: productCount, price: _price, storeId:_storeId ,state: State.ForSale, seller: msg.sender, buyer: address(0)});\n    emit LogProductAdded(productCount, _name,_price, _storeId);\n    emit LogForSale(productCount);\n    productCount = productCount.add(1);\n    return true;\n  }\n\n  /// @dev Get a product.\n\t/// @param _productId ID of product to Get \n  function getProduct(uint256 _productId)\n\tview \n\tpublic\n\treturns (string memory, uint256, uint256) {\n\n\t\treturn ( products[_productId].name,\n\t\t\t\tproducts[_productId].price,\n\t\t\t\tproducts[_productId].storeId\n        );\n\t}\n\n  /// @dev Get Product Count.\n  /// @return The count of the Products\n  function getProductCount() \n  public \n  view \n  returns (uint256) {\n    return productCount;\n  } \n\n  /// @dev update a product.\n  /// @param _productId ID of product to Update \n  /// @param _price New Price ID for product \n  /// @param _storeId Store ID for product to Update \n  function updateProduct(uint256 _productId, uint256 _price, uint256 _storeId) \n  onlyStoreOwner\n  onlyOwnerOfThisStore(_storeId)\n  whenNotPaused\n  public {\n    uint256 oldPrice=products[_productId].price;\n\t\tproducts[_productId].price=_price;\n\t\temit LogPriceUpdated(_productId, oldPrice, _price);\n  }\n\n  /// @dev Removes a product.\n\t/// @param _storeId Store ID for product to remove \n\t/// @param _productId ID of product to remove \n  function removeProduct(uint256 _productId,uint256 _storeId)\n  onlyStoreOwner\n  onlyOwnerOfThisStore(_storeId)\n  whenNotPaused\n  public\n  {\n\t\tdelete products[_productId];\n\t\temit ProductRemoved(_productId);\n  }\n\n  /// @dev Removes products from store.\n\t/// @param _storeId Storefront ID for products to remove \n  function removeStoreProducts(uint256 _storeId)\n  onlyStoreOwner\n  onlyOwnerOfThisStore(_storeId)\n  whenNotPaused\n  public\n  {\n\t\tfor(uint i=0; i<productCount; i.add(1)) {\n\t\t\tif ( products[i].storeId == _storeId) {\n\t\t\t\tdelete products[i];\n\t\t\t\temit ProductRemoved(products[i].id);\n\t\t\t}\n\t\t}\n    emit ProductsRemoved(_storeId);\n  }\n\n  /// @dev Purchase a product.\n  /// @param _productId ID of product to Purchase \n  /// @return The Product Purchased\n  function purchaseProduct(uint256 _productId)\n  payable\n  forSale(_productId) \n  paidEnough(products[_productId].price) \n  checkValue(_productId)\n  whenNotPaused\n  nonReentrant\n  public\n  returns (bool)\n  {\n    products[_productId].buyer = msg.sender;\n    products[_productId].state = State.Sold;\n    stores[products[_productId].storeId].balance.add(msg.value);\n    emit LogSold(_productId);\n    return true;\n  }\n\n  /// @dev Withdraw The Store Balance.\n  /// @param _storeId ID of Store to Withdraw \n  /// @return The Withdraw Done\n  function withdrawStoreBalance(uint256 _storeId) \n  payable\n\tonlyStoreOwner\n  onlyOwnerOfThisStore(_storeId)\n\twhenNotPaused\n  nonReentrant\n\tpublic \n  returns (bool)\n  {\n\t\trequire(stores[_storeId].balance > 0);\n\t\tuint storeBalance = stores[_storeId].balance;\n    stores[_storeId].balance = 0;\n\t\tmsg.sender.transfer(storeBalance);\n\t\temit LogWithdrawStoreBalance(_storeId, storeBalance);\n\t\treturn true;\n\t}\n\n}",
  "sourcePath": "/home/aysha/Github/Online-Marketplace/contracts/Marketplace.sol",
  "compiler": {
    "name": "solc",
    "version": "0.6.2+commit.bacdbe57.Emscripten.clang"
  },
  "schemaVersion": "3.3.2",
  "updatedAt": "2020-11-30T05:06:02.528Z",
  "networkType": "ethereum",
  "devdoc": {
    "author": "Aysha Amin",
    "methods": {
      "addAdmin(address)": {
        "details": "Add an account to the admin role. Restricted to admins.",
        "params": {
          "account": "address of account to Add as Admin."
        }
      },
      "addMarketAdmin(address)": {
        "details": "Add an account to the admin role. Restricted to admins.",
        "params": {
          "account": "address of account to to Add as MarketAdmin."
        }
      },
      "addProduct(string,uint256,uint256)": {
        "details": "Add a product.",
        "params": {
          "_name": "Name of product to Add ",
          "_price": "Price ID for product ",
          "_storeId": "Store ID for product to Add "
        }
      },
      "addStore(string)": {
        "details": "Add a Store.",
        "params": {
          "_name": "Name of Store to Add "
        },
        "returns": {
          "_0": "Store Added"
        }
      },
      "addStoreOwner(address)": {
        "details": "Add an account to the user role. Restricted to MarketAdmins.",
        "params": {
          "account": "address of account to Add as StoreOwner."
        }
      },
      "getMarketAdminMember(uint256)": {
        "details": "get MarketAdminMember. Restricted to Admins.",
        "returns": {
          "_0": "MarketAdmin Member."
        }
      },
      "getMarketAdminsCount()": {
        "details": "get MarketAdminsCount. Restricted to Admins.",
        "returns": {
          "_0": "MarketAdmins Count."
        }
      },
      "getProduct(uint256)": {
        "details": "Get a product.",
        "params": {
          "_productId": "ID of product to Get "
        }
      },
      "getProductCount()": {
        "details": "Get Product Count.",
        "returns": {
          "_0": "The count of the Products"
        }
      },
      "getRoleAdmin(bytes32)": {
        "details": "Returns the admin role that controls `role`. See {grantRole} and {revokeRole}.     * To change a role's admin, use {_setRoleAdmin}."
      },
      "getRoleMember(bytes32,uint256)": {
        "details": "Returns one of the accounts that have `role`. `index` must be a value between 0 and {getRoleMemberCount}, non-inclusive.     * Role bearers are not sorted in any particular way, and their ordering may change at any point.     * WARNING: When using {getRoleMember} and {getRoleMemberCount}, make sure you perform all queries on the same block. See the following https://forum.openzeppelin.com/t/iterating-over-elements-on-enumerableset-in-openzeppelin-contracts/2296[forum post] for more information."
      },
      "getRoleMemberCount(bytes32)": {
        "details": "Returns the number of accounts that have `role`. Can be used together with {getRoleMember} to enumerate all bearers of a role."
      },
      "getStore(uint256)": {
        "details": "Get a Store.",
        "params": {
          "_storeId": "ID of Store to Get "
        }
      },
      "getStoreCount()": {
        "details": "Get Store Count.",
        "returns": {
          "_0": "The count of the stores"
        }
      },
      "getStoreOwnerMember(uint256)": {
        "details": "get StoreOwnerMember. Restricted to MarketAdmins.",
        "returns": {
          "_0": "StoreOwners Member."
        }
      },
      "getStoreOwnersCount()": {
        "details": "get MarketAdminsCount. Restricted to MarketAdmins.",
        "returns": {
          "_0": "StoreOwners Count."
        }
      },
      "grantRole(bytes32,address)": {
        "details": "Grants `role` to `account`.     * If `account` had not been already granted `role`, emits a {RoleGranted} event.     * Requirements:     * - the caller must have ``role``'s admin role."
      },
      "hasRole(bytes32,address)": {
        "details": "Returns `true` if `account` has been granted `role`."
      },
      "isAdmin(address)": {
        "details": "Return `true` if the account belongs to the admin role.",
        "params": {
          "account": "address of account to check is admin."
        }
      },
      "isMarketAdmin(address)": {
        "details": "Return `true` if the account belongs to the MarketAdmin role.",
        "params": {
          "account": "address of account to check is MarketAdmin."
        }
      },
      "isStoreOwner(address)": {
        "details": "Return `true` if the account belongs to the StoreOwner role.",
        "params": {
          "account": "address of account to check is StoreOwner."
        }
      },
      "paused()": {
        "details": "Returns true if the contract is paused, and false otherwise."
      },
      "purchaseProduct(uint256)": {
        "details": "Purchase a product.",
        "params": {
          "_productId": "ID of product to Purchase "
        },
        "returns": {
          "_0": "The Product Purchased"
        }
      },
      "removeMarketAdmin(address)": {
        "details": "Remove an account from the MarketAdmin role. Restricted to admins.",
        "params": {
          "account": "address of account to Remove."
        }
      },
      "removeProduct(uint256,uint256)": {
        "details": "Removes a product.",
        "params": {
          "_productId": "ID of product to remove ",
          "_storeId": "Store ID for product to remove "
        }
      },
      "removeStore(uint256)": {
        "details": "Remove a Store.",
        "params": {
          "_storeId": "ID of Store to Remove "
        }
      },
      "removeStoreOwner(address)": {
        "details": "Remove an account from the StoreOwner role. Restricted to MarketAdmins.",
        "params": {
          "account": "address of account to Remove."
        }
      },
      "removeStoreProducts(uint256)": {
        "details": "Removes products from store.",
        "params": {
          "_storeId": "Storefront ID for products to remove "
        }
      },
      "renounceAdmin()": {
        "details": "Remove oneself from the admin role."
      },
      "renounceRole(bytes32,address)": {
        "details": "Revokes `role` from the calling account.     * Roles are often managed via {grantRole} and {revokeRole}: this function's purpose is to provide a mechanism for accounts to lose their privileges if they are compromised (such as when a trusted device is misplaced).     * If the calling account had been granted `role`, emits a {RoleRevoked} event.     * Requirements:     * - the caller must be `account`."
      },
      "revokeRole(bytes32,address)": {
        "details": "Revokes `role` from `account`.     * If `account` had been granted `role`, emits a {RoleRevoked} event.     * Requirements:     * - the caller must have ``role``'s admin role."
      },
      "updateProduct(uint256,uint256,uint256)": {
        "details": "update a product.",
        "params": {
          "_price": "New Price ID for product ",
          "_productId": "ID of product to Update ",
          "_storeId": "Store ID for product to Update "
        }
      },
      "withdrawStoreBalance(uint256)": {
        "details": "Withdraw The Store Balance.",
        "params": {
          "_storeId": "ID of Store to Withdraw "
        },
        "returns": {
          "_0": "The Withdraw Done"
        }
      }
    },
    "title": "A simulator for Market Place"
  },
  "userdoc": {
    "methods": {},
    "notice": "You can use this contract for only the most basic simulation"
  }
}