{
  "contractName": "Store",
  "abi": [
    {
      "inputs": [],
      "name": "AddStore",
      "outputs": [],
      "stateMutability": "nonpayable",
      "type": "function"
    }
  ],
  "bytecode": "0x6080604052348015600f57600080fd5b50606d80601d6000396000f3fe6080604052348015600f57600080fd5b506004361060285760003560e01c8063ae59b3fb14602d575b600080fd5b60336035565b005b56fea264697066735822122047953f9e7c6802a39bcc24635062ec87a9737db2e8e0708bc2c1ca474cdb8cd964736f6c63430006020033",
  "source": "pragma solidity >=0.5.16 <0.8.0;\ncontract Store {\n\nfunction AddStore() public{\n\n}\n\n}",
  "sourcePath": "/home/aysha/Github/Online-Marketplace/contracts/Store.sol",
  "compiler": {
    "name": "solc",
    "version": "0.6.2+commit.bacdbe57.Emscripten.clang"
  },
  "schemaVersion": "3.3.2",
  "updatedAt": "2020-11-30T00:27:44.289Z",
  "devdoc": {
    "methods": {}
  },
  "userdoc": {
    "methods": {}
  }
}