{
  "contractName": "UserProxy",
  "abi": [
    {
      "inputs": [
        {
          "internalType": "address",
          "name": "_Marketplace",
          "type": "address"
        }
      ],
      "stateMutability": "nonpayable",
      "type": "constructor"
    },
    {
      "stateMutability": "payable",
      "type": "fallback"
    },
    {
      "stateMutability": "payable",
      "type": "receive"
    },
    {
      "inputs": [
        {
          "internalType": "string",
          "name": "_name",
          "type": "string"
        },
        {
          "internalType": "uint256",
          "name": "_price",
          "type": "uint256"
        },
        {
          "internalType": "int32",
          "name": "_storeId",
          "type": "int32"
        }
      ],
      "name": "addProduct",
      "outputs": [
        {
          "internalType": "bool",
          "name": "",
          "type": "bool"
        }
      ],
      "stateMutability": "nonpayable",
      "type": "function"
    },
    {
      "inputs": [
        {
          "internalType": "int32",
          "name": "_productId",
          "type": "int32"
        },
        {
          "internalType": "uint256",
          "name": "_offer",
          "type": "uint256"
        }
      ],
      "name": "purchaseProduct",
      "outputs": [
        {
          "internalType": "bool",
          "name": "",
          "type": "bool"
        }
      ],
      "stateMutability": "payable",
      "type": "function"
    }
  ],
  "bytecode": "0x608060405234801561001057600080fd5b506040516105b43803806105b48339818101604052602081101561003357600080fd5b8101908080519060200190929190505050806000806101000a81548173ffffffffffffffffffffffffffffffffffffffff021916908373ffffffffffffffffffffffffffffffffffffffff16021790555050610520806100946000396000f3fe60806040526004361061002d5760003560e01c80639f106e2114610036578063b9dc5a951461008957610034565b3661003457005b005b61006f6004803603604081101561004c57600080fd5b81019080803560030b906020019092919080359060200190929190505050610180565b604051808215151515815260200191505060405180910390f35b34801561009557600080fd5b50610166600480360360608110156100ac57600080fd5b81019080803590602001906401000000008111156100c957600080fd5b8201836020820111156100db57600080fd5b803590602001918460018302840111640100000000831117156100fd57600080fd5b91908080601f016020809104026020016040519081016040528093929190818152602001838380828437600081840152601f19601f82011690508083019250505050505050919291929080359060200190929190803560030b90602001909291905050506102fd565b604051808215151515815260200191505060405180910390f35b6000806000809054906101000a900473ffffffffffffffffffffffffffffffffffffffff1673ffffffffffffffffffffffffffffffffffffffff16620f42408486604051602401808260030b60030b81526020019150506040516020818303038152906040527f284e9005000000000000000000000000000000000000000000000000000000007bffffffffffffffffffffffffffffffffffffffffffffffffffffffff19166020820180517bffffffffffffffffffffffffffffffffffffffffffffffffffffffff83818316178352505050506040518082805190602001908083835b602083106102875780518252602082019150602081019050602083039250610264565b6001836020036101000a038019825116818451168082178552505050505050905001915050600060405180830381858888f193505050503d80600081146102ea576040519150601f19603f3d011682016040523d82523d6000602084013e6102ef565b606091505b505090508091505092915050565b6000806000809054906101000a900473ffffffffffffffffffffffffffffffffffffffff1673ffffffffffffffffffffffffffffffffffffffff1685858560405160240180806020018481526020018360030b60030b8152602001828103825285818151815260200191508051906020019080838360005b83811015610390578082015181840152602081019050610375565b50505050905090810190601f1680156103bd5780820380516001836020036101000a031916815260200191505b509450505050506040516020818303038152906040527fb15247d9000000000000000000000000000000000000000000000000000000007bffffffffffffffffffffffffffffffffffffffffffffffffffffffff19166020820180517bffffffffffffffffffffffffffffffffffffffffffffffffffffffff83818316178352505050506040518082805190602001908083835b602083106104745780518252602082019150602081019050602083039250610451565b6001836020036101000a0380198251168184511680821785525050505050509050019150506000604051808303816000865af19150503d80600081146104d6576040519150601f19603f3d011682016040523d82523d6000602084013e6104db565b606091505b5050905080915050939250505056fea2646970667358221220bcbd7260846964f3f8319ae25e76ea7fe2ff1103a635910d6407ea069c59fac964736f6c63430006020033",
  "source": "pragma solidity >=0.5.16<0.8.0;\n\nimport \"./Marketplace.sol\";\n\ncontract UserProxy {\n\n    address marketplace;\n\n    constructor(address _Marketplace) public {\n        marketplace = _Marketplace;\n    }\n\n    function addProduct(string memory _name,uint256 _price,int32  _storeId) public returns(bool) {\n        (bool success, ) = address(marketplace).call(abi.encodeWithSignature(\"addProduct(string,uint256)\",_name,_price,_storeId));\n        return success;\n    }\n\n    function purchaseProduct(int32 _productId,uint256 _offer) public  payable returns(bool){\n        (bool success, ) = address(marketplace).call{gas: 1000000, value: _offer}(abi.encodeWithSignature(\"purchaseProduct(int32)\",_productId));\n        return success;\n    }\n\n\n    fallback() external payable {}\n\n    receive() external payable {}\n\n}",
  "sourcePath": "/home/aysha/Github/Online-Marketplace-Daap/contracts/UserProxy.sol",
  "compiler": {
    "name": "solc",
    "version": "0.6.2+commit.bacdbe57.Emscripten.clang"
  },
  "schemaVersion": "3.3.2",
  "updatedAt": "2020-12-10T05:43:25.342Z",
  "devdoc": {
    "methods": {}
  },
  "userdoc": {
    "methods": {}
  }
}